:020000040800F2
:1000000000000120713A0008B5390008B73900082E
:10001000B9390008BB390008BD39000800000000EC
:10002000000000000000000000000000BF390008D0
:10003000C139000800000000C3390008C5390008B4
:10004000C13A0008C13A0008C13A0008C13A0008A4
:10005000C13A0008C13A0008C13A0008C13A000894
:10006000C13A0008C13A0008C13A0008C13A000884
:10007000C13A0008C13A0008C13A0008C13A000874
:10008000C13A0008C13A0008C13A0008C13A000864
:10009000C13A0008C13A0008C13A0008C93900084D
:1000A000C13A0008E1390008ED390008C13A0008FA
:1000B000C13A0008C13A0008C13A0008C13A000834
:1000C000C13A0008C13A0008C13A0008C13A000824
:1000D000C13A0008C13A0008C13A0008C13A000814
:1000E000C13A0008C13A0008C13A0008C13A000804
:1000F000C13A0008C13A0008C13A0008C13A0008F4
:10010000C13A00080000000000000000C13A0008E9
:10011000C13A0008C13A0008F9390008153A000848
:10012000C13A0008C13A0008C13A0008C13A0008C3
:10013000C13A0008C13A00080000000000000000B9
:10014000C13A0008C13A0008C13A000800000000A6
:10015000000000000000000000000000000000009F
:10016000C13A0008C13A0008C13A0008C13A000883
:10017000C13A0008C13A0008C13A0008C13A000873
:10018000C13A0008C13A0008000000000000000069
:04019000C13A000868
:1001A00010B5054C237833B9044B13B10448AFF3B1
:1001B00000800123237010BD8C0600200000000089
:1001C000F068000808B5034B1BB103490348AFF3BF
:1001D000008008BD0000000090060020F0680008C4
:1001E00001F0FF01102A2BDB10F0070F08D010F8E8
:1001F000013B013A8B422DD010F0070F42B3F6D1EC
:10020000F0B441EA012141EA014122F007047FF004
:1002100000070023F0E80256083C85EA010586EA5B
:10022000010685FA47F5A3FA87F586FA47F6A5FA97
:1002300087F68EB9EED1F0BC01F0FF0102F00702A3
:1002400032B110F8013B013A83EA010313B1F8D14E
:100250000020704701387047002D06BF354603382F
:10026000073815F0010F07D1013015F4807F02BF68
:10027000013015F4C03F0130F0BC0138704700BFB9
:10028000034613F8012B002AFBD1181A01387047D6
:1002900081F0004102E000BF83F0004330B54FEA37
:1002A00041044FEA430594EA050F08BF90EA020FA4
:1002B0001FBF54EA000C55EA020C7FEA645C7FEA37
:1002C000655C00F0E2804FEA5454D4EB5555B8BF5A
:1002D0006D420CDD2C4480EA020281EA030382EACB
:1002E000000083EA010180EA020281EA0303362D5D
:1002F00088BF30BD11F0004F4FEA01314FF4801C30
:100300004CEA113102D0404261EB410113F0004F41
:100310004FEA03334CEA133302D0524263EB4303F8
:1003200094EA050F00F0A780A4F10104D5F1200E96
:100330000DDB02FA0EFC22FA05F2801841F10001F1
:1003400003FA0EF2801843FA05F359410EE0A5F1C5
:1003500020050EF1200E012A03FA0EFC28BF4CF0F6
:10036000020C43FA05F3C01851EBE37101F00045AC
:1003700007D54FF0000EDCF1000C7EEB00006EEBB9
:100380000101B1F5801F1BD3B1F5001F0CD3490843
:100390005FEA30004FEA3C0C04F101044FEA44529A
:1003A00012F5800F80F09A80BCF1004F08BF5FEA21
:1003B000500C50F1000041EB045141EA050130BD01
:1003C0005FEA4C0C404141EB010111F4801FA4F1A4
:1003D0000104E9D191F0000F04BF01460020B1FAF9
:1003E00081F308BF2033A3F10B03B3F120020CDA31
:1003F0000C3208DD02F1140CC2F10C0201FA0CF00F
:1004000021FA02F10CE002F11402D8BFC2F1200C73
:1004100001FA02F120FA0CFCDCBF41EA0C01904029
:10042000E41AA2BF01EB0451294330BD6FEA040472
:100430001F3C1CDA0C340EDC04F11404C4F120025D
:1004400020FA04F001FA02F340EA030021FA04F36F
:1004500045EA030130BDC4F10C04C4F1200220FAC6
:1004600002F001FA04F340EA0300294630BD21FA04
:1004700004F0294630BD94F0000F83F4801306BFCA
:1004800081F480110134013D4EE77FEA645C18BFBE
:100490007FEA655C29D094EA050F08BF90EA020F55
:1004A00005D054EA000C04BF1946104630BD91EA4D
:1004B000030F1EBF0021002030BD5FEA545C05D150
:1004C0004000494128BF41F0004130BD14F580048F
:1004D0003CBF01F5801130BD01F0004545F0FE4103
:1004E00041F470014FF0000030BD7FEA645C1ABF38
:1004F000194610467FEA655C1CBF0B46024650EA6F
:10050000013406BF52EA033591EA030F41F400219A
:1005100030BD00BF90F0000F04BF0021704730B520
:100520004FF4806404F132044FF000054FF00001F5
:1005300050E700BF90F0000F04BF0021704730B5B6
:100540004FF4806404F1320410F0004548BF40428B
:100550004FF000013EE700BF42004FEAE2014FEAE0
:1005600031014FEA02701FBF12F07F4393F07F4FBB
:1005700081F06051704792F0000F14BF93F07F4FED
:10058000704730B54FF4607401F0004521F0004130
:1005900020E700BF50EA010208BF704730B54FF0B6
:1005A00000050AE050EA010208BF704730B511F0BB
:1005B000004502D5404261EB41014FF4806404F1F3
:1005C00032045FEA915C3FF4DCAE4FF003025FEA75
:1005D000DC0C18BF03325FEADC0C18BF033202EBFD
:1005E000DC02C2F1200300FA03FC20FA02F001FA57
:1005F00003FE40EA0E0021FA02F11444C1E600BFF6
:1006000070B54FF0FF0C4CF4E06C1CEA11541DBFA8
:100610001CEA135594EA0C0F95EA0C0F00F0DEF873
:100620002C4481EA030621EA4C5123EA4C5350EA58
:10063000013518BF52EA033541F4801143F48013A9
:1006400038D0A0FB02CE4FF00005E1FB02E506F03A
:100650000042E0FB03E54FF00006E1FB03569CF08F
:10066000000F18BF4EF0010EA4F1FF04B6F5007F95
:1006700064F5407404D25FEA4E0E6D4146EB060607
:1006800042EAC62141EA55514FEAC52040EA5E5090
:100690004FEACE2EB4F1FD0C88BFBCF5E06F1ED83A
:1006A000BEF1004F08BF5FEA500E50F1000041EB71
:1006B000045170BD06F0004646EA010140EA02001E
:1006C00081EA0301B4EB5C04C2BFD4EB0C0541EA40
:1006D000045170BD41F480114FF0000E013C00F355
:1006E000AB8014F1360FDEBF002001F0004170BD79
:1006F000C4F10004203C35DA0C341BDC04F1140492
:10070000C4F1200500FA05F320FA04F001FA05F21D
:1007100040EA020001F0004221F0004110EBD370EA
:1007200021FA04F642EB06015EEA430E08BF20EA16
:10073000D37070BDC4F10C04C4F1200500FA04F3B9
:1007400020FA05F001FA04F240EA020001F000414B
:1007500010EBD37041F100015EEA430E08BF20EABE
:10076000D37070BDC4F1200500FA05F24EEA020E06
:1007700020FA04F301FA05F243EA020321FA04F035
:1007800001F0004121FA04F220EA020000EBD370EC
:100790005EEA430E08BF20EAD37070BD94F0000FEC
:1007A0000FD101F00046400041EB010111F4801F20
:1007B00008BF013CF7D041EA060195F0000F18BFD1
:1007C000704703F00046520043EB030313F4801F0D
:1007D00008BF013DF7D043EA0603704794EA0C0FC7
:1007E0000CEA135518BF95EA0C0F0CD050EA4106DD
:1007F00018BF52EA4306D1D181EA030101F000415A
:100800004FF0000070BD50EA410606BF1046194681
:1008100052EA430619D094EA0C0F02D150EA01368D
:1008200013D195EA0C0F05D152EA03361CBF1046CE
:1008300019460AD181EA030101F0004141F0FE416D
:1008400041F470014FF0000070BD41F0FE4141F4F1
:10085000780170BD70B54FF0FF0C4CF4E06C1CEAF1
:1008600011541DBF1CEA135594EA0C0F95EA0C0FA6
:1008700000F0A7F8A4EB050481EA030E52EA033561
:100880004FEA013100F088804FEA03334FF0805582
:1008900045EA131343EA12634FEA022245EA1115AF
:1008A00045EA10654FEA00260EF000419D4208BF60
:1008B000964244F1FD0404F5407402D25B084FEA0D
:1008C0003202B61A65EB03055B084FEA32024FF4B9
:1008D00080104FF4002CB6EB020E75EB030E22BF16
:1008E000B61A754640EA0C005B084FEA3202B6EBD6
:1008F000020E75EB030E22BFB61A754640EA5C0085
:100900005B084FEA3202B6EB020E75EB030E22BF14
:10091000B61A754640EA9C005B084FEA3202B6EB15
:10092000020E75EB030E22BFB61A754640EADC00D4
:1009300055EA060E18D04FEA051545EA16754FEA36
:1009400006164FEAC30343EA52734FEAC2025FEA54
:100950001C1CC0D111F4801F0BD141EA00014FF0E3
:1009600000004FF0004CB6E711F4801F04BF0143B4
:100970000020B4F1FD0C88BFBCF5E06F3FF6AFAED0
:10098000B5EB030C04BFB6EB020C5FEA500C50F160
:10099000000041EB045170BD0EF0004E4EEA1131E3
:1009A00014EB5C04C2BFD4EB0C0541EA045170BDEA
:1009B00041F480114FF0000E013C90E645EA060E2E
:1009C0008DE60CEA135594EA0C0F08BF95EA0C0F5C
:1009D0003FF43BAF94EA0C0F0AD150EA01347FF4A4
:1009E00034AF95EA0C0F7FF425AF104619462CE77B
:1009F00095EA0C0F06D152EA03353FF4FDAE1046DE
:100A0000194622E750EA410618BF52EA43067FF42E
:100A1000C5AE50EA41047FF40DAF52EA43057FF4BE
:100A2000EBAE12E74FF0FF3C06E000BF4FF0010CC9
:100A300002E000BF4FF0010C4DF804CD4FEA410C2D
:100A40007FEA6C5C4FEA430C18BF7FEA6C5C1BD0FA
:100A500001B050EA410C0CBF52EA430C91EA030F7B
:100A600002BF90EA020F0020704710F1000F91EAD8
:100A7000030F58BF994208BF90422CBFD8176FEAA6
:100A8000E37040F0010070474FEA410C7FEA6C5C74
:100A900002D150EA013C07D14FEA430C7FEA6C5C7B
:100AA000D6D152EA033CD3D05DF8040B704700BFA7
:100AB0008446104662468C461946634600E000BFF5
:100AC00001B5FFF7B7FF002848BF10F1000F01BDC7
:100AD0004DF808EDFFF7F4FF0CBF012000205DF892
:100AE00008FB00BF4DF808EDFFF7EAFF34BF012017
:100AF00000205DF808FB00BF4DF808EDFFF7E0FFB0
:100B000094BF012000205DF808FB00BF4DF808ED00
:100B1000FFF7CEFF94BF012000205DF808FB00BF67
:100B20004DF808EDFFF7C4FF34BF012000205DF849
:100B300008FB00BF4FEA410C7FEA6C5C02D150EA2F
:100B4000013C0AD14FEA430C7FEA6C5C02D152EAC5
:100B5000033C02D14FF0000070474FF00100704796
:100B60004FEA410212F5001215D211D56FF47873D5
:100B7000B3EB625212D94FEAC12343F0004343EA78
:100B8000505311F0004F23FA02F018BF4042704753
:100B90004FF00000704750EA013005D111F00040DD
:100BA00008BF6FF0004070474FF00000704700BF73
:100BB0004A0011D212F5001211D20DD56FF47873DC
:100BC000B3EB62520ED44FEAC12343F0004343EA31
:100BD000505323FA02F070474FF00000704750EA7C
:100BE000013002D14FF0FF3070474FF000007047E6
:100BF0004FEA4102B2F1E04324BFB3F5001CDCF13F
:100C0000FE5C0DD901F0004C4FEAC0024CEA507076
:100C1000B2F1004F40EB830008BF20F001007047A5
:100C200011F0804F21D113F13872BCBF01F00040A8
:100C3000704741F480114FEA5252C2F11802C2F1DA
:100C4000200C10FA0CF320FA02F018BF40F001005B
:100C50004FEAC1234FEAD32303FA0CFC40EA0C000D
:100C600023FA02F34FEA4303CCE77FEA625307D14A
:100C700050EA01331EBF4FF0FE4040F44000704781
:100C800001F0004040F0FE4040F40000704700BF1B
:100C900053B94AB9002908BF00281CBF4FF0FF31E3
:100CA0004FF0FF3000F07AB9ADF1080C6DE904CED9
:100CB00000F006F8DDF804E0DDE9022304B0704737
:100CC0002DE9F0478C460D460446089E002B51D175
:100CD0008A4217466DD9B2FA82FEBEF1000F0BD0E0
:100CE000CEF1200C01FA0EF520FA0CFC02FA0EF7F8
:100CF0004CEA050C00FA0EF44FEA174A250CBCFB2F
:100D0000FAF81FFA87F90AFB18CC45EA0C4508FBEC
:100D100009F3AB420AD9ED1908F1FF3280F02381C3
:100D2000AB4240F22081A8F102083D44ED1AA4B282
:100D3000B5FBFAF00AFB105544EA054400FB09F93B
:100D4000A14509D9E41900F1FF3380F00A81A145DA
:100D500040F2078102383C44A4EB090440EA084011
:100D60000021002E61D024FA0EF400233460736059
:100D7000BDE8F0878B4207D9002E54D0002186E8C9
:100D800021000846BDE8F087B3FA83F1002940F05E
:100D90008E80AB4202D3824200F2FA80841A65EB65
:100DA00003050120AC46002E3FD086E81010BDE8B8
:100DB000F08712B90127B7FBF2F7B7FA87FEBEF149
:100DC000000F34D1EB1B3A0C1FFA87FC0121B3FB57
:100DD000F2F8250C02FB183345EA03450CFB08F337
:100DE000AB4207D9ED1908F1FF3002D2AB4200F255
:100DF000D1808046ED1AA3B2B5FBF2F002FB10558C
:100E000043EA05440CFB00FCA44507D9E41900F1B2
:100E1000FF3302D2A44500F2B8801846A4EB0C04BC
:100E200040EA08409DE731463046BDE8F087CEF104
:100E3000200405FA0EF307FA0EF720FA04F83A0C2C
:100E400025FA04F448EA0308B4FBF2F14FEA184526
:100E500002FB11441FFA87FC45EA044501FB0CF331
:100E6000AB4200FA0EF409D9ED1901F1FF3080F020
:100E70008A80AB4240F2878002393D44EB1A1FFA68
:100E800088F5B3FBF2F002FB103345EA034500FBA3
:100E90000CF3AB4207D9ED1900F1FF386FD2AB422A
:100EA0006DD902383D44EB1A40EA01418FE7C1F1A8
:100EB000200722FA07F88B4005FA01F448EA0303F9
:100EC00020FA07FE4FEA134CFD404EEA040EB5FB34
:100ED000FCF94FEA1E440CFB19551FFA83F844EA4B
:100EE000054509FB08F4AC4202FA01F200FA01FAE6
:100EF00008D9ED1809F1FF3043D2AC4241D9A9F12C
:100F000002091D442D1B1FFA8EFEB5FBFCF00CFBE5
:100F100010554EEA054400FB08F8A04507D9E4182F
:100F200000F1FF3529D2A04527D902381C4440EAF8
:100F30000940A4EB0804A0FB02894C45C6464D4677
:100F400015D312D056B1BAEB0E0364EB050404FAC4
:100F500007F7CB401F43CC40376074600021BDE8E9
:100F6000F0871846F8E69046E0E6C245EAD2B8EBCC
:100F7000020E69EB03050138E4E72846D7E740464F
:100F800091E78146BEE7014678E702383C4445E7F1
:100F9000084608E7A8F102083D442BE7704700BF68
:100FA00038B50E4A0E4B054618784FF47A73B3FBEA
:100FB000F0F31068B0FBF3F000F0A2F8044658B963
:100FC0000F2D09D8024629464FF0FF3000F056F8A1
:100FD000044B20461D6038BD012038BD180000209C
:100FE0000000002004000020074A08B5136843F001
:100FF00010031360032000F02FF80020FFF7D0FF4C
:1010000002F0C0FB002008BD00200240034A044B50
:1010100011681B780B441360704700BFF40A00206E
:1010200000000020014B1868704700BFF40A002040
:1010300038B50446FFF7F6FF631C1CBF054B1B7851
:10104000054618BFE418FFF7EDFF401B8442FAD8AD
:1010500038BD00BF00000020074AD36823F4E063D6
:101060001B041B0C43F0BF63000243F4003300F485
:10107000E0600343D360704700ED00E0174B30B5EC
:10108000DC68C4F30224C4F10703251D042B28BF28
:101090000423062D4FF0010505FA03F303F1FF3396
:1010A0008CBF033C00241940A14005FA04F4013C24
:1010B0002240002842EA01024FEA0212ADBF00F1CD
:1010C000604000F00F00064B00F56140B5BFD2B2A2
:1010D000D2B21A5480F8002330BD00BF00ED00E00A
:1010E00014ED00E0002808DB4209012300F01F0096
:1010F00003FA00F0014B43F82200704700E100E0E2
:101100000138B0F1807F0AD2064B074A5860F021BF
:1011100082F823100020072298601A60704701208F
:10112000704700BF10E000E000ED00E010B504469D
:1011300068B1037903F0FF0213B9427102F03EFB7C
:1011400002232371002001232061237110BD01209F
:1011500010BD704713B5002400680194019041B997
:10116000019908310A440192019A0020136002B0EB
:1011700010BD01991431F5E74379012B10B54FF0FB
:10118000020315D00371036801221C6842718A4072
:1011900022431A601A6869B902F03C023C2A03D162
:1011A0005A6842F001025A6001230371002343711F
:1011B000184610BD02F47012B2F5701FF4D15A68CF
:1011C00042F00202EFE74379012B30B54FF0020302
:1011D00017D004680371236840F6FE75954023EA32
:1011E00005050AC90B4393402B4323602368C021A4
:1011F00001FA02F223EA02020123226003710023B2
:101200004371184630BD704703681A68910410B5E1
:10121000044611D55A6B92040ED50422027102695C
:1012200042F0010202614FF400525A631A6822F43C
:1012300080521A60FFF78DFF23681A68910012D55B
:101240005A6B92000FD504222271226942F00202E9
:1012500022614FF000525A631A6822F080521A60DD
:101260002046FFF7D0FF10BD2DE9F74FD1F80080E1
:10127000DFF89091614A002338FA03F402D103B0F9
:10128000BDE8F08F4FF0010E0EFA03FE18EA0E06CD
:1012900000F0A6804C6824F01007022F16D14FEA08
:1012A000D30A00EB8A0A03F0070BDAF820504FEA62
:1012B0008B0B4FF00F0C0CFA0BFC25EA0C0C0D6994
:1012C00005FA0BF545EA0C05CAF820504FEA430A27
:1012D0000325D0F800B005FA0AF5ED4304F0030C3D
:1012E0000BEA050B0CFA0AFC013F4CEA0B0C012F30
:1012F000C0F800C011D8876807EA050BCF6807FA65
:101300000AFC4CEA0B078760476827EA0E0EC4F315
:1013100000179F4047EA0E074760C7683D408F6847
:1013200007FA0AF73D43C560E50059D5D9F81850CA
:1013300045F00105C9F81850D9F8185023F00307F3
:1013400007F1804705F0010507F58037019503F0A7
:10135000030C019DBD684FEA8C0C4FF00F0E0EFA86
:101360000CFEB0F1904F25EA0E0E3BD0244DA84262
:101370003AD005F58065A84238D005F58065A842C9
:1013800036D005F58065A84234D005F58065A842C1
:1013900032D005F58065A84214BF0725062505FA59
:1013A0000CF545EA0E05BD601568F74314F4803F5F
:1013B0000CBF3D4035431560556814F4003F0CBF29
:1013C0003D4035435560956814F4801F0CBF3D4087
:1013D00035439560D568A40254BF3D403543D56080
:1013E000013349E70025DAE70125D8E70225D6E7EA
:1013F0000325D4E70425D2E70525D0E70004014002
:1014000000040048001002400369194214BF012083
:10141000002070470AB1816170478162704743695B
:101420000B4218BF090481617047000008B5044BE6
:101430005969014202D0586101F05CFF08BD00BF4C
:101440000004014003689A69910744BF00229A6230
:101450009A69D2075EBF9A6942F001029A617047A9
:1014600030B5039C05682343640D04F4806444F0A4
:101470007F7444F458346868C1F3090144F47F74FC
:10148000194344F0030441EA024120EA04042143E1
:10149000696030BD2DE9F041069F04468846164636
:1014A0001D462268936938EA03030CBF0123002319
:1014B000B34202D00020BDE8F0816B1CF2D0FFF7F0
:1014C000B1FDC01B854201D3002DEAD1636C43F00E
:1014D00020036364202384F84130002384F84230E1
:1014E00084F840300120BDE8F081036870B50446FF
:1014F000986910F010000D46164616D170BD691C93
:1015000014D0FFF78FFD801B854200D36DB9636C4B
:1015100043F020036364202384F84130002384F8DF
:10152000423084F84030012070BD236899698A06F2
:10153000E5D510222025DA612046DD61FFF782FF24
:101540002268536823F0FF7323F48B3323F4FF7373
:1015500023F001035360636C43F00403636484F875
:101560004150DBE770B504460D46164623689B697B
:101570009B0701D5002070BD324629462046FFF763
:10158000B4FFA0B96A1CF1D0FFF74CFD801B854267
:1015900001D3002DEAD1636C43F020036364202360
:1015A00084F84130002384F8423084F84030012030
:1015B00070BD0000F7B5099E1F46164B0093054607
:1015C00014464FF08073FAB2FFF74AFF324608998B
:1015D0002846FFF7C7FF10B1012003B0F0BD012F6F
:1015E0002B680CD1E4B29C62089B009600228021FB
:1015F0002846FFF74FFF003018BF0120EDE7220A11
:101600009A62089932462846FFF7ACFF0028E3D1DA
:101610002B68E7E700200080F7B5099E1F46164BB0
:101620000093054614460023FAB2FFF719FF32462D
:1016300008992846FFF796FF10B1012003B0F0BDCE
:10164000012F2B680CD1E4B29C62089B009600220B
:1016500040212846FFF71EFF003018BF0120EDE7AC
:10166000220A9A62089932462846FFF77BFF002833
:10167000E3D12B68E7E700BF0020008070B5044687
:101680000D46164623689B699B0601D5002070BD58
:10169000324629462046FFF728FF90B9FFF7C2FCE3
:1016A000801B854201D3002DECD1636C43F02003F5
:1016B0006364202384F84130002384F8423084F8A6
:1016C0004030012070BD10B5044600284AD090F883
:1016D000413003F0FF021BB980F8402002F0A4F86B
:1016E000242384F841302368E1681A6822F001025B
:1016F0001A60626822F070621A619A68012922F405
:1017000000429A60A26824D142F400429A605A686A
:10171000616942F0007242F400425A60DA6822F4D1
:101720000042DA6022690A43A16942EA0122DA60D2
:10173000216AE2690A431A601A6842F001021A60DB
:1017400000202023606484F84130206384F8420044
:1017500010BD42F4044202299A6004BF4FF40062B3
:101760005A60D4E7012010BD2DE9F04F9B4690F858
:10177000413085B0202B04460F460392BDF83CA0B3
:10178000DDF8408040F0A5800E9B13B1BAF1000F48
:1017900006D14FF400736364012005B0BDE8F08FFB
:1017A00090F84030012B00F09480012580F84050E3
:1017B000FFF738FC1923009006462A464FF40041F3
:1017C0002046FFF767FE81460028E5D1212384F8F3
:1017D0004130402384F842300E9B60646362606352
:1017E000A4F82AA00196CDF800805B46039A3946FA
:1017F0002046FFF7DFFE10B184F84090CCE7638D00
:101800009BB2FF2B55D9FF22228500904FF08073A9
:1018100039462046FFF724FE324641462046FFF770
:10182000A1FE0028B8D1636A226813F8011B9162F7
:101830006362638D228D013B9BB26385638D013AA8
:1018400092B29BB22285ABB1A2B9009643468021E9
:101850002046FFF71FFE00289ED1638D9BB2FF2B11
:101860002FD9FF22228500904FF080733946204601
:10187000FFF7F6FD638D9BB2002BCDD1324641467A
:101880002046FFF7FBFE002886D123682021D9617E
:101890005A6822F0FF7222F48B3222F4FF7222F097
:1018A00001025A6084F8411084F8400084F8420034
:1018B00073E7628D009092B222854FF00073D2B22E
:1018C000A6E7628D009092B222854FF00073D2B2EB
:1018D000CCE7022061E700002DE9F04F9B4690F82D
:1018E000413085B0202B04460F460392BDF83CA042
:1018F000DDF8408040F0A9800E9B13B1BAF1000FD3
:1019000006D14FF400736364012005B0BDE8F08F89
:1019100090F84030012B00F09880012580F840506D
:10192000FFF780FB1923009006462A464FF400413A
:101930002046FFF7AFFD81460028E5D1222384F839
:101940004130402384F842300E9B606463626063E0
:10195000A4F82AA00196CDF800805B46039A394688
:101960002046FFF759FE10B184F84090CCE7638D14
:101970009BB2FF2B364B58D9FF22009322854FF0A4
:10198000807339462046FFF76BFD009643460022E0
:1019900004212046FFF77EFD0028B5D12268636A46
:1019A000526A1A70636A228D01336362638D013B50
:1019B0009BB26385638D013A92B29BB22285ABB133
:1019C000A2B90096434680212046FFF763FD002818
:1019D0009AD1638D9BB2FF2B2FD9FF2222850090D5
:1019E0004FF0807339462046FFF73AFD638D9BB276
:1019F000002BCAD1324641462046FFF73FFE002861
:101A000082D123682021D9615A6822F0FF7222F422
:101A10008B3222F4FF7222F001025A6084F84110E6
:101A200084F8400084F842006FE7628D009392B220
:101A300022854FF00073D2B2A3E7628D009092B27C
:101A400022854FF00073D2B2CCE702205DE700BFE1
:101A50000024008090F84120D2B2202A10B51DD178
:101A600090F84030012B19D0242380F841300368CE
:101A70001C6824F001041C601C6824F480541C6061
:101A80001C6821431960196841F0010119600023A5
:101A900080F8412080F84030184610BD022010BD6B
:101AA00010B590F84140E4B2202C1CD190F84030A1
:101AB000012B18D0242380F8413003681A6822F0E3
:101AC00001021A601A6822F4706242EA0121196068
:101AD0001A6842F001021A60002380F8414080F841
:101AE0004030184610BD022010BD00002DE9F3471C
:101AF000054608B901205BE00368DF0711D42B68B5
:101B00009E0700F18A802B681C0700F1FE802B687D
:101B1000580700F14781A869002840F0DE810020C5
:101B200046E0BE4C636803F00C03042B0AD06368E4
:101B300003F00C03082B19D1636803F4C033B3F529
:101B4000803F13D14FF4003393FAA3F2216893FA44
:101B5000A3F3B3FA83F303F01F03012202FA03F3A2
:101B60000B42CCD06B68002BC9D1C3E76B68B3F5CF
:101B7000803F20D1236843F480332360FFF752FA7B
:101B80004FF400368046012796FAA6F3226896FAAB
:101B9000A6F3B3FA83F303F01F0307FA03F3134228
:101BA000ADD1FFF73FFAA0EB08006428ECD9032081
:101BB00002B0BDE8F0870BBB236823F480332360B9
:101BC000236823F480232360FFF72CFA4FF40036B8
:101BD0008046012796FAA6F3226896FAA6F3B3FA8E
:101BE00083F303F01F0307FA03F3134287D0FFF7D1
:101BF00019FAA0EB08006428ECD9D8E7B3F5A02FB8
:101C0000236803D143F480232360B3E723F48033B4
:101C10002360236823F48023AFE7804C636813F0CC
:101C20000C0F0AD0636803F00C03082B25D16368FE
:101C300003F4C033B3F5004F1FD1022393FAA3F28C
:101C4000216893FAA3F3B3FA83F303F01F0301228D
:101C500002FA03F30B4203D0EB6893427FF44AAFDE
:101C60002168F82393FAA3F3B3FA83F22B69934024
:101C700021F0F8021343236045E7EA6801260AB31E
:101C800096FAA6F3B3FA83F303F1845303F58413AE
:101C90009B0002271E60FFF7C5F9804697FAA7F35D
:101CA000226897FAA7F3B3FA83F303F01F0306FA47
:101CB00003F31342D4D1FFF7B5F9A0EB08000228D3
:101CC000ECD974E796FAA6F3B3FA83F303F18453DD
:101CD00003F584139B0002271A60FFF7A3F98046DF
:101CE00097FAA7F3226897FAA7F3B3FA83F303F0FE
:101CF0001F0306FA03F313423FF405AFFFF792F90F
:101D0000A0EB08000228EBD951E76A69434E444929
:101D100001241AB394FAA4F3B3FA83F30B449B009F
:101D200002271C60FFF77EF9804697FAA7F397FA1F
:101D3000A7F397FAA7F3726A97FAA7F3B3FA83F3B4
:101D400003F01F0304FA03F313427FF4E0AEFFF73E
:101D500069F9A0EB08000228E7D928E794FAA4F370
:101D6000B3FA83F30B449B0002271A60FFF75AF97A
:101D7000804697FAA7F397FAA7F397FAA7F3726A40
:101D800097FAA7F3B3FA83F303F01F0304FA03F3FC
:101D900013423FF4BCAEFFF745F9A0EB0800022860
:101DA000E7D904E71D4CE369D90034D4E36943F073
:101DB0008053E361E36903F080530193019B0126A3
:101DC000184F3B68DA052FD5AB68012B3DD1236A4C
:101DD00043F001032362FFF725F902278246B94643
:101DE0004FF0010897FAA7F397FAA7F3002B6CD0EE
:101DF000226A99FAA9F3B3FA83F303F01F0308FAEE
:101E000003F3134258D0002E3FF485AEE36923F06C
:101E10008053E3617FE60026D2E700BF0010024056
:101E200020819010007000403B6843F480733B6059
:101E3000FFF7F8F880463B68DB05C5D4FFF7F2F8FA
:101E4000A0EB08006428F6D9B1E63BBB236A23F077
:101E500001032362236A23F004032362FFF7E2F8FD
:101E600002278246B9464FF0010897FAA7F397FA7E
:101E7000A7F373B3226A99FAA9F3B3FA83F303F0D1
:101E80001F0308FA03F31342BDD0FFF7CBF841F26A
:101E90008833A0EB0A009842E7D988E6052B236A2D
:101EA00003D143F00403236291E723F0010323628B
:101EB000236A23F004038DE7FFF7B4F841F2883377
:101EC000A0EB0A0098428DD971E697FAA7F3626AEF
:101ED0008FE797FAA7F3626ACDE7514A536803F098
:101EE0000C03082B144600F0828002284FF0807308
:101EF00058D193FAA3F3B3FA83F303F1845303F5B0
:101F000084139B0000221A60FFF78CF84FF00077D3
:101F10008046012697FAA7F3226897FAA7F3B3FA47
:101F200083F303F01F0306FA03F3134233D1E36A8A
:101F30006A6A23F00F031343E36262682B6AE9695C
:101F400022F476120B43134363604FF0807393FACD
:101F5000A3F3B3FA83F303F1845303F584139B00D3
:101F60004FF000751E60FFF75DF80126074695FAF1
:101F7000A5F3226895FAA5F3B3FA83F303F01F03E0
:101F800006FA03F313427FF4CAADFFF74BF8C01B08
:101F90000228ECD90BE6FFF745F8A0EB0800022871
:101FA000B8D904E693FAA3F3B3FA83F303F18453A5
:101FB00003F584139B0000221A60FFF733F84FF0FB
:101FC00000750746012695FAA5F3226895FAA5F350
:101FD000B3FA83F303F01F0306FA03F313423FF44B
:101FE0009EADFFF71FF8C01B0228ECD9DFE50128E2
:101FF0003FF4DEAD5368D06AEA6903F4C031914220
:102000007FF478AD2A6A03F4701393427FF472ADC3
:102010006B6A00F00F00C01A18BF0120C8E500BFAE
:102020000010024011494B6803F00C02082A1AD133
:102030004FF4701292FAA2F20F20B2FA82F2C96A39
:1020400090FAA0F0B0FA80F001F00F0103F47013E1
:10205000D340C140064A0748415C0748B0FBF1F154
:10206000D05C484370470448704700BF00100240EE
:10207000086900081869000800127A002DE9F0418B
:102080000D46044610B90120BDE8F0814D4A1368A1
:1020900003F007038B422FD32268910737D4D2076E
:1020A0003DD4484A136803F007039D4276D3226863
:1020B000454D12F0040F7DD1130706D56B682269D8
:1020C00023F4605343EAC2036B60FFF7ABFF6B6816
:1020D000F02292FAA2F2B2FA82F203F0F003D340B5
:1020E0003A4AD35CD8403A4B18603A4B1868FEF72E
:1020F00057FF0020BDE8F081136823F007030B436E
:102100001360136803F007039942BCD1C4E72E495A
:10211000A0684B6823F0F00303434B60BFE762689D
:10212000294E012A27D14FF4003393FAA3F13168E5
:1021300093FAA3F3B3FA83F303F01F0302FA03F352
:102140000B42A0D0736823F003031A437260FEF7BA
:1021500069FF41F2883807467368626803F00C0330
:10216000B3EB820F9DD0FEF75DFFC01B4045F3D956
:102170000320BDE8F081022A0CBF4FF00073022358
:1021800093FAA3F1306893FAA3F3B3FA83F303F05D
:102190001F03012101FA03F30342D2E7136823F07E
:1021A00007032B431360136803F007039D427FF47A
:1021B0006AAF7CE76B68E16823F4E0630B436B6014
:1021C0007AE700BF0020024000100240227E000893
:1021D0001800002004000020084B4FF4E0625B6808
:1021E00092FAA2F2B2FA82F203F4E063D340044A14
:1021F000D35C044A1068D840704700BF001002400A
:10220000327E000818000020084B4FF460525B68D3
:1022100092FAA2F2B2FA82F203F46053D340044A73
:10222000D35C044A1068D840704700BF00100240D9
:10223000327E00081800002003682DE9F347DF0311
:10224000044623D59B4DEB69DE0000F1D780EB6996
:1022500043F08053EB61EB6903F080530193019BE2
:102260000126954F3B68D80540F1CA802B6A13F4CC
:10227000407340F0DA802B6A626823F440731343A2
:102280002B621EB1EB6923F08053EB612068C3071A
:1022900006D5884AA168136B23F003030B4313632D
:1022A000870706D5834AE168136B23F440330B4359
:1022B0001363460706D57F4A2169136B23F4402335
:1022C0000B431363850606D57A4AE169136B23F045
:1022D00010030B431363810306D5764A616D53687F
:1022E00023F480030B435360420606D5714A216AEA
:1022F000136B23F020030B431363430306D56D4A8E
:10230000616A136B23F040030B431363070706D581
:10231000684A6169136B23F440130B431363C606C9
:1023200006D5644AA169136B23F440030B4313637E
:10233000850506D55F4A216B536823F400030B43E0
:102340005360010606D55B4AA16AD36A23F4F87389
:102350000B43D362C20506D5564AE16AD36A23F419
:1023600078530B43D362C30406D5524A616B136B97
:1023700023F480730B431363870406D54D4A216C05
:10238000136B23F400730B431363C60206D5494A4B
:10239000A16B136B23F080730B431363850206D587
:1023A000444AE16B136B23F000730B431363410248
:1023B00006D5404A616C136B23F480630B431363AF
:1023C000020206D53B4AA16C136B23F400630B4356
:1023D0001363C30106D5374AE16C136B23F4005332
:1023E0000B43136310F000701CD0324A216D136B45
:1023F00023F400430B431363002013E0002630E76F
:102400003B6843F480733B60FEF70CFE80463B68FC
:10241000D9053FF52BAFFEF705FEA0EB08006428B9
:10242000F5D9032002B0BDE8F087626802F440727B
:1024300093423FF420AF296A4FF4803321F4407077
:1024400093FAA3F2DFF874E0B2FA82F272449200D7
:102450000127176093FAA3F3B3FA83F373449B0045
:1024600000221A60CA0728627FF505AFFEF7DAFD81
:102470004FF002088246C14698FAA8F398FAA8F3EA
:10248000A3B12A6A99FAA9F3B3FA83F303F01F03FD
:1024900007FA03F313427FF4EEAEFEF7C3FD41F2F9
:1024A0008833A0EB0A009842E6D9BAE798FAA8F375
:1024B0006A6AE7E700100240007000400081901057
:1024C0000368DA6842F00102DA609968064A0A4055
:1024D000062A06D0B2F5803F1EBF1A6842F00102FC
:1024E0001A600020704700BF070001000368DA6827
:1024F00022F00102DA60196A41F21112114208D188
:10250000196A40F24442114202BF1A6822F00102E5
:102510001A60002070477047704770477047036823
:102520001A69910710B504460FD5DA6892070CD5E1
:102530006FF002021A619B6901229907027700F08D
:102540008580FFF7E9FF0023237723681A69520784
:1025500010D5DA6850070DD56FF004021A619B6937
:10256000022213F4407F2277204675D0FFF7D4FF74
:102570000023237723681A6911070FD5DA68120739
:102580000CD56FF008021A61DB6904229B072277E1
:10259000204667D0FFF7C0FF0023237723681A691E
:1025A000D00610D5DA68D1060DD56FF010021A6189
:1025B000DB69082213F4407F2277204658D0FFF7CA
:1025C000ABFF0023237723681A69D20708D5DA689E
:1025D000D00705D56FF001021A61204600F016FF02
:1025E00023681A69110608D5DA68120605D56FF056
:1025F00080021A61204600F014F923681A69D00598
:1026000008D5DA68110605D56FF480721A61204684
:1026100000F008F923681A69520608D5DA685006EE
:1026200005D56FF040021A612046FFF777FF236857
:102630001A69910622D5DA6892061FD56FF020023A
:1026400020461A61BDE8104000F0EAB8FFF763FFCA
:102650002046FFF762FF76E7FFF75DFF2046FFF7B2
:102660005CFF85E7FFF757FF2046FFF756FF93E72C
:10267000FFF751FF2046FFF750FFA2E710BD000013
:10268000324A0368904212D0B0F1804F0FD0A2F5C9
:10269000943290420BD002F58062904207D002F54E
:1026A0009632904203D002F5E052904215D14A682A
:1026B00023F070031343254A90421DD0B0F1804FA0
:1026C0001AD0A2F59432904216D002F58062904260
:1026D00012D002F5963290420ED01D4A90420BD095
:1026E00002F58062904207D002F58062904203D0EA
:1026F00002F50062904203D1CA6823F44073134389
:102700004A6923F08003134303608B68C3620B683C
:1027100083620E4B984213D003F5006398420FD0AA
:1027200003F5406398420BD003F58063984207D0CD
:1027300003F58063984203D003F50063984201D10A
:102740000B69036301234361704700BF002C014004
:102750000040014010B50446A0B190F83D3003F0B0
:10276000FF021BB980F83C2001F092F8022384F8A4
:102770003D302068211DFFF783FF012384F83D30A1
:10278000002010BD012010BD90F83C30012B30B569
:102790004FF0020340D080F83D30204D0368012205
:1027A000AB4280F83C205A689C6807D005F500656C
:1027B000AB4203D005F5E055AB4203D14D6822F49E
:1027C00070022A430D6822F070022A435A60134AAD
:1027D000934216D0B3F1804F13D0A2F594329342B6
:1027E0000FD002F5806293420BD002F596329342ED
:1027F00007D002F54062934203D002F58052934223
:1028000004D1896824F080020A439A60012380F889
:102810003D30002380F83C30184630BD002C01408C
:1028200070477047704700000268816838B50446F9
:10283000C369006915680143606901437A48194317
:102840002840014311605168E068256A21F4405135
:10285000014351609068A16920F43060294301432D
:10286000916072498A4211D1714A7249126B02F029
:102870000302B3F5004F8A5C5AD0082A26D8DFE855
:1028800002F0A1A7AA25BD252525C0006A498A42D4
:102890002AD1674A126B02F44032B2F5803F00F051
:1028A000B58015D8DAB9B3F5004F40F08B80FFF74B
:1028B00093FC6268530803EB4000B0FBF2F080B277
:1028C000A0F110024FF6EF739A426FD9012075E024
:1028D000B2F5003F00F0A080B2F5403F46D0B3F51E
:1028E000004FF3D01022C8E754498A420FD1504A12
:1028F000126B02F44022B2F5802F00F08780D1D90C
:10290000B2F5002F00F08880B2F5402FE6E74C4981
:102910008A4237D1464A126B02F44012B2F5801F48
:1029200074D01DD8002ABED0B3F5004FCED11022EE
:10293000082ACBD801A353F822F000BFAF28000823
:10294000A729000873290008CD280008132A0008C9
:10295000CD280008CD280008CD2800081F2A00082F
:10296000B2F5001F58D0B2F5401FDDD1B3F5004FCE
:1029700031D16368580800F5740000F51050B0FBC1
:10298000F3F09CE72F498A42A0D1294A126B02F446
:102990004002B2F5800F39D084D9B2F5000F3BD098
:1029A000B2F5400F9AE7FFF72FFC82E720F00F0304
:1029B0002268C0F342001843D06000200023236641
:1029C000636638BDFFF708FC636800EB530008E05E
:1029D000FFF71AFCF8E76368580800F5F40000F503
:1029E0009050B0FBF3F080B2A0F110024FF6EF73FD
:1029F0009A423FF66BAF2368D860DEE7FFF712FB21
:102A0000E2E76368580800F50040EAE7B3F5004FD5
:102A1000F4D1FFF707FB4CE7B3F5004FF1D1636842
:102A2000580800F58030AAE7F369FFEF003801404D
:102A3000001002402869000800440040004800409F
:102A4000004C004000500040436ADA0710B506D53C
:102A50000168846A4A6822F4003222434A609C0773
:102A600006D50168C46A4A6822F4803222434A606B
:102A7000590706D50168046B4A6822F48022224374
:102A80004A601A0706D50168446B4A6822F400427E
:102A900022434A60DC0606D50168846B8A6822F40A
:102AA000805222438A60990606D50168C46B8A6801
:102AB00022F4005222438A605A060FD50168046C42
:102AC0004A6822F480122243B4F5801F4A6005D17F
:102AD0004A68446C22F4C00222434A601B0606D5B1
:102AE0000268816C536823F400230B43536010BDCC
:102AF0002DE9F041069D04460F461646984621688A
:102B0000CA6937EA02030CBF01220022B24202D096
:102B10000020BDE8F081681CF2D0FEF783FAA0EB3C
:102B2000080085422068036800D37DB923F4D07380
:102B30000360836823F00103836020236367A36736
:102B4000002384F870300320BDE8F0815A07D6D501
:102B5000C3691B05D3D54FF400630362036823F4F4
:102B6000D0730360836823F00103836020236367CD
:102B7000A367E367E4E773B504460026C667FEF77C
:102B800051FA23681B681A07054615D423681B6889
:102B90005B070AD56FF07E43009300222B464FF46B
:102BA00080012046FFF7A4FF90B92023002063672F
:102BB00084F87000A3670CE06FF07E430093324608
:102BC00003464FF400112046FFF792FF0028DDD0A6
:102BD000032002B070BD10B5044640B3436F1BB96B
:102BE00080F8703000F0B4FE226824236367136815
:102BF00023F0010313602046FFF716FE012816D0CC
:102C0000636A13B12046FFF71FFF23685A6822F456
:102C100090425A609A6822F02A029A601A6842F03A
:102C2000010220461A60BDE81040FFF7A4BF012052
:102C300010BD7FB506AA1F2302F8043D4FF4FA73B6
:102C4000029301238DE80C0098211A46FEF78CFDB3
:102C500007B05DF804FB7FB506AA002302F8013D2A
:102C600040F2DC53029301238DE80C0098210222EC
:102C7000FEF77AFD07B05DF804FB2DE9F04786B05A
:102C800006AE002406F8014D80460D4627464FF457
:102C90007A794FF0010A05B11CB1384606B0BDE89B
:102CA000F087224601239821CDF808908DE8400452
:102CB0004046FEF711FE9DF8174007460A3D0A20E0
:102CC00004F00404FEF7B4F9ADB2E4E7000000003C
:102CD0002DE9F04186B0012505AB4FF47A760093DB
:102CE0000F46029601952B460E2298218046FEF74C
:102CF000F3FD044638BB0DF11503009302960195D0
:102D00002B460F2298214046FEF7E6FD0446D0B937
:102D10009DF814309DF8150040EA0320C0F30D0023
:102D2000FDF708FC0BA3D3E90023FDF769FC0BA317
:102D3000D3E90023FDF78EFD0022054BFDF7AEFA27
:102D4000FDF756FF3860204606B0BDE8F08100BFB1
:102D5000000004407B14AE47E11273400000000005
:102D600080842E41000000002DE9F04186B001254D
:102D700005AB4FF47A7600930F46029601952B46E9
:102D80000C2298218046FEF7A7FD044638BB0DF1C2
:102D900015030093029601952B460D22982140467B
:102DA000FEF79AFD0446D0B99DF814309DF8150041
:102DB00040EA0320C0F30D00FDF7BCFB0AA3D3E9F2
:102DC0000023FDF71DFC0AA3D3E90023FDF742FD14
:102DD00002460B46FDF762FAFDF70AFF386020460F
:102DE00006B0BDE8F08100BF7B14AE47E11273402E
:102DF0000000000080842E412DE9F04186B00125BD
:102E000005AB4FF47A7600930F46029601952B4658
:102E1000062298218046FEF75FFD044638BB0DF17F
:102E200015030093029601952B46072298214046F0
:102E3000FEF752FD0446D0B99DF814309DF81500F8
:102E400040EA0320C0F30D00FDF774FB0AA3D3E9A9
:102E50000023FDF7D5FB0AA3D3E90023FDF7FAFC15
:102E600002460B46FDF71AFAFDF7C2FE386020460F
:102E700006B0BDE8F08100BF7B14AE47E11273409D
:102E80000000000080842E4170EE607A10B517EECD
:102E9000900A0C46FDF760FB0022094BFDF7B0FBE2
:102EA00005A3D3E90023FDF7D5FCFDF7A1FE2060C3
:102EB00010BD00BFAFF30080000000400AD7C33F41
:102EC00000408F4011B91146FFF702BF012902D11E
:102ED0001146FFF791BF042902D11146FFF744BF05
:102EE000002313607047000030B5A7B028220021EE
:102EF00006A800F011FE1422002101A800F00CFE2B
:102F00005822002110A800F007FE01230993102386
:102F10000A934FF4004302250D9306A84FF4E013E3
:102F20000E9306950C95FEF7E1FD0F230024019307
:102F300029464FF4806301A80493029503940594F5
:102F4000FFF79CF8054B109310A813941794229444
:102F50002394FFF771F927B030BD00BF2200800134
:102F600080B594B0FEF740F8FFF7BEFF14220021B1
:102F70000FA800F0D1FDBD4BBD4D5A69BD4EBE4FEF
:102F800042F400225A615A6902F400220592059A1D
:102F90005A6942F480025A615A6902F48002069228
:102FA000069A5A6942F400325A615A6902F40032B0
:102FB0000792079A5A6942F480225A615B6903F4C6
:102FC0008023089300224FF484614FF09040089BC7
:102FD000FEF720FA00224FF48161A848FEF71AFAA2
:102FE0004FF4005300240F930FA9A54BA54810934D
:102FF0004FF001081194FEF737F94FF484630FA9DD
:103000004FF090400F93CDF8408011941294FEF74A
:103010002BF94FF481630FA998480F93CDF84080A6
:1030200011941294FEF720F94FF440730F930FA9F7
:10303000954B10934FF09040CDF84480FEF714F973
:10304000224621461720FEF719F81720FEF74AF806
:103050008E4B2B6028460F9410941194FEF766F85F
:103060000FA9224628468A4D0F941094FEF7ABF81C
:10307000884A894BAC60284685E80C00C5F80C806E
:103080002C616C61AC61EC612C62FEF71CFB21468B
:103090002846FEF7DFFC21462846FEF701FD7F4B60
:1030A000B46048F6A04940F6C41A304686E80802E3
:1030B000C6F80CA0B4610F9410941194FFF74AFB6A
:1030C0000FA930460F941194FFF75EFB74487549C1
:1030D00084604FF4164380E80A000C234361C46007
:1030E00004618461C46104624462FFF774FD6E4B45
:1030F0006E4E0F9487E8080238464FF4FA63FB607F
:1031000010941194BC60BC61FFF724FB0FA93846F2
:103110000F941194FFF738FB654BB460304686E896
:103120000802C6F80CA034617461B461FFF712FBA9
:103130006048614B846080E80802C0F80CA004611C
:1031400044618461FFF706FB00F01EFA204600F0A0
:10315000E7F95A4A5A48434606CA00F0EDFA2846AB
:10316000FFF767FD3846FFF7ABF93046FFF7A8F9E0
:10317000544E2846FFF76FFD64212846FFF77DFD7A
:1031800014AA002442F84C4D00212846FFF79AFE6D
:1031900003AA01212846029403940494FFF792FEA7
:1031A00004AA04212846FFF78DFEDDED040A9DEDFB
:1031B000030A454C02A92846FFF766FE0198FDF771
:1031C000CBF902460B4609A8314600F0ADFC1921A7
:1031D0000F2000F0C7FA94E8060001233B4800F0F6
:1031E000ABFA1921342000F0BDFA94E8060001235F
:1031F00009A800F0A1FA0298FDF7AEF902460B46C5
:103200000CA8334900F090FC25210F2000F0AAFA09
:1032100094E8060001232F4800F08EFA252134207F
:1032200000F0A0FA94E8060001230CA800F084FA4C
:103230000398FDF791F902460B460FA8314600F0BE
:1032400073FC31210F2000F08DFA94E80600012371
:10325000214800F071FA3121342000F083FA94E81B
:10326000060001230FA800F067FA37E000100240C3
:10327000F80A0020980B0020980C00200004004859
:1032800000001110000800480000211000740040E8
:103290000C0B0020005400400E09002000100040DC
:1032A000D80B00200044004000140040580C0020BF
:1032B00000440140580B0020004801400800002055
:1032C000F47D0008FD7D000810000020047E000849
:1032D0000B7E0008137E0008197E0008044B039A39
:1032E0001A6000F02BF94FF47A70FDF7A1FE40E769
:1032F000B0060020B0F5807F02D0B0F5007F02D18B
:103300000148FFF7DDB87047980B0020000000006F
:10331000642838B528BF64200546FDF70BF9002264
:103320000F4B104CFDF796FA0BA3D3E90023FDF7E2
:1033300067F9FDF73DFC0022034611462046FDF7E4
:1033400009FF094B1D7020460021BDE83840FDF7FC
:1033500013BF00BFAFF300800000000000FEAF40CD
:1033600000005940F80A0020AC06002008B50548C6
:1033700001224FF48061FEF74DF80020BDE80840BF
:10338000FFF7C6BF00040048012802464FF48061E1
:1033900018BF00220148FEF73DB800BF00040048F6
:1033A0000C4B10B50446187030B9FFF7EDFF2046FE
:1033B000BDE81040FFF7ACBF012803D1BDE81040C5
:1033C000FFF7D4BF022804D10020FFF7DDFF0A2059
:1033D000EEE710BDAD06002008B50B4B1868FDF7F1
:1033E000BBF807A3D3E90023FDF77CFB20B1002045
:1033F000BDE80840FFF7D4BF08BD00BFAFF30080B1
:103400006666666666660640B0060020324B9842E5
:1034100010B543D108213148314CFEF700F84FF484
:1034200000714FF09040FDF7EFFFB8B94FF4807195
:103430004FF09040FDF7E8FF80B9237843B90123AE
:103440002370FFF793FF2448BDE81040FFF74EB804
:10345000012B08BF0220FFF7A3FFF4E72378022B1C
:103460000DD14FF400714FF09040FDF7CDFF30B912
:103470001C4B18780A30C0B2FFF74AFFE3E7237805
:10348000022BE0D14FF480714FF09040FDF7BCFF6C
:103490000028D8D1134B18780A38ECE7124B984221
:1034A00003D1BDE81040FFF797BF104B984211D1F0
:1034B0000B4B1B78013B012B0CD8DFED0D0AB7EE4F
:1034C000000A00F055F90B4BD3ED007A37EE800A75
:1034D00083ED000A10BD00BF980B002000040048D7
:1034E000AD060020AC060020980C0020580C0020EF
:1034F00000000000A80600207FB506AA0A2302F8F3
:10350000010D029301238DE80C007821002203486D
:10351000FEF72AF907B05DF804FB00BF0C0B002092
:1035200005490023021C18BF012252425A5401339C
:10353000B3F5806FF6D17047BA0600207FB5104E04
:10354000104D0024A4F15000C0B2FFF7D5FF0020B9
:10355000FFF7D2FF1020FFF7CFFF642302938023F1
:10356000019306EBC41300934022012378212846DF
:103570000134FEF7F9F8082CE4D104B070BD00BFA7
:10358000BA0600200C0B002008B56420FDF750FDA2
:10359000AE20FFF7B1FF2020FFF7AEFF1020FFF7AE
:1035A000ABFFB020FFF7A8FFC820FFF7A5FF002062
:1035B000FFF7A2FF1020FFF79FFF4020FFF79CFFBF
:1035C0008120FFF799FFFF20FFF796FFA120FFF76B
:1035D00093FFA620FFF790FFA820FFF78DFF3F2065
:1035E000FFF78AFFA420FFF787FFD320FFF784FFB0
:1035F0000020FFF781FFD520FFF77EFFF020FFF7C7
:103600007BFFD920FFF778FF2220FFF775FFDA2034
:10361000FFF772FF1220FFF76FFFDB20FFF76CFF51
:103620002020FFF769FF8D20FFF766FF1420FFF7CA
:1036300063FFAF20FFF760FF0020FFF771FFFFF788
:103640007DFF034B0120002258711A805A8008BD6B
:10365000B4060020030630B51BD43F2919D80D4B02
:103660001B7913B1B2FA82F25209CB088025012AE4
:10367000094C01F0070105FB030004D18A40215CDD
:103680000A43225430BD01228A40215C21EA020112
:10369000215430BDB4060020BA0600202DE9F04FB9
:1036A00087B0074606A800E906009B46214B9DF817
:1036B00010901C88019304EB09027F2A37DC5B8899
:1036C0009DF811A0009303EB0A023F2A2FDCA7F11B
:1036D00020020AFB02F303930026564506D3019B02
:1036E0004C441C80384607B0BDE8F08F039B059919
:1036F000F218002531F812300293009B03EB060804
:103700005FFA88F84D4501D30136E6E7029B03FADC
:1037100005F2130405EB040056BFBBFA8BF25A46C0
:1037200052094146C0B2FFF795FF0135EAE700278D
:10373000D8E700BFB4060020F7B58DE806006D4657
:103740001F46461E74784CB120463B4695E806005D
:10375000FFF7A4FF16F8014FA042F3D0204603B0B4
:10376000F0BD0000014B188059807047B40600205E
:1037700020EEC00ADFED027A80EE270A704700BF14
:10378000000061450C4B07B59A6942F001029A614D
:103790009A6902F001020092009ADA6942F08052BE
:1037A000DA61DB6903F0805301930720019BFDF789
:1037B00053FC03B05DF804FB0010024010B5044652
:1037C00088B01422002103A800F0A6F92268154B46
:1037D0009A4224D103F5CE3303A9DA6942F00052AC
:1037E000DA61DA6902F000520192019A5A6942F4F0
:1037F00000325A615B6903F400330293029B102389
:1038000003934FF0904003230493FDF72DFD002216
:1038100036201146FDF732FC3620FDF763FC08B078
:1038200010BD00BF0074004010B5044688B01422DB
:10383000002103A800F070F92268124B9A421FD1B0
:10384000114C1248636943F480236361636903F494
:1038500080230193019B4FF440730393122304933D
:103860000323069303A904230793FDF7FDFCE369F3
:1038700043F40013E361E36903F400130293029B32
:1038800008B010BD00540040001002400004004881
:103890001FB50368294A934214D1294BDA6942F0D3
:1038A0001002DA61DB69002203F010030093362076
:1038B0001146009BFDF7E2FB3620FDF713FC05B037
:1038C0005DF804FB1F4A934210D11D4BDA6942F0A8
:1038D0002002DA61DB69002203F020030193372024
:1038E0001146019BFDF7CAFB3720E6E7164A9342D3
:1038F00010D1134B9A6942F400329A619B690022FD
:1039000003F40033029319201146029BFDF7B6FB26
:103910001920D2E70D4A9342D1D1094B9A6942F45A
:1039200080229A619B69002203F4802303931A206A
:103930001146039BFDF7A2FB1A20BEE700100040D2
:1039400000100240001400400044014000480140C3
:1039500010B5044688B01422002103A800F0DCF85A
:103960002268134B9A4220D103F5E63303A9DA69A2
:1039700042F40032DA61DA6902F400320192019A0B
:103980005A6942F400325A615B6903F400330293CE
:10399000029B0C23039302230493032306934FF00B
:1039A000904007230793FDF75FFC08B010BD00BFF0
:1039B000004400407047FEE7FEE7FEE7FEE7704781
:1039C00070477047FDF722BB08B54FF48070FDF7D4
:1039D0002DFD4FF40070BDE80840FDF727BD000045
:1039E0000148FEF79CBD00BF580C00200148FEF7BF
:1039F00096BD00BF580B002008B50448FEF78FFDA8
:103A00000348BDE80840FDF7FFBB00BF980B00204E
:103A1000F80A00200148FEF782BD00BF980C002084
:103A200008B50A4B1968024609B9094919601868AE
:103A3000694602448A4206D900F044F80C23036028
:103A40004FF0FF3008BD1A6008BD00BFBC0A00205F
:103A5000E80C0020054BD3F8882042F47002C3F82C
:103A600088204FF000629A60704700BF00ED00E0D0
:103A7000DFF834D0002103E00C4B5B584350043195
:103A80000B480C4B42189A42F6D30B4A02E0002333
:103A900042F8043B094B9A42F9D3FFF7DBFF00F0F1
:103AA00017F8FFF75DFAFEE700000120B880000874
:103AB000000000208C0600208C060020E80C00206E
:103AC000FEE70000014B1868704700BF1C00002093
:103AD00070B50D4E0D4CA41BA4100025A54209D1B4
:103AE0000B4E0C4C02F004FFA41BA4100025A542B1
:103AF00005D170BD56F8253098470135EEE756F8E8
:103B0000253098470135F2E7B0800008B080000802
:103B1000B0800008B480000802440346934200D1FC
:103B2000704703F8011BF9E70EB400B59CB04FF4E1
:103B300002711DABADF81410029006906FF00041B9
:103B40000A48049107914FF6FF7153F8042BADF822
:103B500016100068019302A900F00AF8029B0022E7
:103B60001A701CB05DF804EB03B070471C00002015
:103B70002DE9F04FBDB08A4615461F46834601F039
:103B800025FE03680D931846FCF77AFBBAF80C3053
:103B900008901B0618D5DAF81030ABB9402158460A
:103BA00001F02AFECAF80000CAF8100048B90C2338
:103BB000CBF800304FF0FF33099309983DB0BDE8D2
:103BC000F08F4023CAF814309FED997B8DED067B72
:103BD00000232CAC1F9421932093059503931193FC
:103BE00010930993059D2B4613F8012B12B1252A3A
:103BF00040F08380059BEE1A0DD084E84800219B9D
:103C000033442193209B0133072B209377DC083426
:103C1000099B334409932B78002B00F0298700235C
:103C2000691C8DF85F301A464FF0FF390A931D4624
:103C30000A204E1C097805960291029920395829CC
:103C400000F21884DFE811F0A60016041604AB0099
:103C5000160416041604160416041604AE006500B5
:103C60001604B700BA001604D700DA00DA00DA004A
:103C7000DA00DA00DA00DA00DA00DA0016041604F4
:103C80001604160416041604160416041604160464
:103C900015012B0116042B01160416041604160434
:103CA000ED00160416044003160416041604160448
:103CB0001604A80316041604860016041604160437
:103CC0001604160416041604160416041604070136
:103CD0006B002B012B012B01F0006B001604160466
:103CE000FA00160422034203760301011604870337
:103CF0001604AA0316041604C2031D4673E71FAA7E
:103D00005146584602F07EFA002840F092862CACCC
:103D10007EE701232B2205998BE70F46FBE70BB1CA
:103D20008DF85F20AE0640F1AA80073727F007071D
:103D300007F10803D7E900670493002E77F1000329
:103D400006DA76424FF02D0367EB47078DF85F30B8
:103D50000123CAE20BB18DF85F20374B1193AB06FC
:103D600040F13983073727F0070707F10803D7E940
:103D700000670493E8070BD556EA070308D0302301
:103D80008DF860309DF808308DF8613045F00205FF
:103D90000223A7E2002ABED101232022BBE745F07F
:103DA0000105B8E73E680A96002E07F10401B4DA6F
:103DB00076420A960F4645F00405ACE705994E1C7D
:103DC000097802912A2910D04FF00009059602992E
:103DD000303909293FF631AF00FB091905990E4624
:103DE00016F8011B02910596F1E73968059641EA3C
:103DF000E17904378FE745F080058CE700210A91CF
:103E000002990A9E303900FB06110A9105990E4667
:103E100016F8011B02910299059630390929EFD94C
:103E20000BE745F0080576E745F0400573E700BF6E
:103E300000000000000000004A7E00080599097893
:103E40006C2905D105990131059145F0200562E7FE
:103E500045F010055FE73B1D049300263B688DF895
:103E600088308DF85F604FF0010937460DF1880802
:103E70001BE10BB18DF85F2045F0100552E715F0FE
:103E8000100F07F1040303D03E680493F71754E7BB
:103E90003E68049315F0400F18BF36B2F6E70BB139
:103EA0008DF85F20073727F0070707F10803049311
:103EB00097ED007B8DED067B069B1293079B23F00D
:103EC000004313934FF0FF324A4BDDE91201FCF738
:103ED00031FE002840F0D5854FF0FF32454BDDE93B
:103EE0001201FCF709FE002840F0CB8500220023D8
:103EF000DDE90601FCF7F6FD10B12D238DF85F30EA
:103F00003D4B3E4A029925F080054729CCBF90469B
:103F100098464FF0030900263746C6E0B9F1FF3F47
:103F200022D0029B23F02003472B04D1B9F1000FCC
:103F300008BF4FF0010945F480730C93079B002BD9
:103F400015DA069B0E93079B03F100430F932D2375
:103F50000B93029B23F02007462F0ED0452F46D10E
:103F600009F1010602210AE04FF00609E3E79DEDA1
:103F7000067B00238DED0E7BEAE74E4603211DAB49
:103F800001931AAB0093324619AB9DED0E0B5846C8
:103F900000F04EFE472F804602D1E80740F17E85B3
:103FA00008EB0603462F039311D198F80030302B0D
:103FB00009D100220023DDE90E01FCF789FD10B9CB
:103FC000C6F101061996039A199B1A44039200221E
:103FD0000023DDE90E01FCF77BFD88B930221D9B33
:103FE000039999420ED9591C1D911A70F7E74E4654
:103FF000B8E700BFFFFFEF7F3A7E00083E7E000873
:10400000039B1D931D9B472FA3EB0803039340F0D5
:10401000FA80199BD91C02DB994580F22081029B12
:10402000023B0293199A9DF808108DF86C10531EEC
:10403000002B1993B6BFC2F101032B222D22092BAD
:104040008DF86D2040F3FB800DF17B020A2693FB77
:10405000F6F006FB10333033092802F8013C02F178
:10406000FF31034600F3E480303301F8013C023AAB
:104070000DF16E030DF17B0082421946C0F0DA802B
:10408000039A1BABCB1A012A109303EB020902DC43
:1040900015F0010702D0089B002799440B9B13B130
:1040A0002D238DF85F300C9D00264E453346B8BF5A
:1040B0004B460B939DF85F3013B10B9B01330B9371
:1040C00015F0020314931EBF0B9B02330B9315F0E4
:1040D0008403159318D10A9B0B9A9B1A002B0C93FF
:1040E00012DD0C9B102BA94B236000F3D5810C9B98
:1040F00063600C9A219B13442193209B0133072B6F
:10410000209300F3E28108349DF85F3073B10DF124
:104110005F03236001236360219B01332193209B74
:104120000133072B209300F3DA810834149B6BB121
:1041300018AB236002236360219B02332193209BF1
:104140000133072B209300F3D4810834159B802B77
:1041500014D10A9B0B9A9B1A002B0FDD8C4A22600C
:10416000102B00F3D081219A636013442193209B8C
:104170000133072B209300F3DF810834A6EB0906F7
:10418000002E0FDD824B2360102E00F3DF81209B79
:104190002198666001330644072B2196209300F393
:1041A000EC810834EB0500F1F281219B84E80003E7
:1041B0004B442193209B0133072B209340F3198418
:1041C0001FAA5146584602F01DF8002840F03184DD
:1041D0002CAC6B0700F11084099B0A9A0B998A4258
:1041E000ACBF9B185B180993219B3BB11FAA51469A
:1041F000584602F007F8002840F01B840023209363
:10420000049F2CACEEE4029B652B7FF70BAF029B67
:10421000662B24D1199B002B19DDB9F1000F01D1B8
:10422000EA0702D5089A13444B44199F994635E78B
:104230000A460CE712F8011B03F8011B1CE73022A9
:1042400013448DF86E208DF86F301CA918E7B9F172
:10425000000F01D1EB0715D5089B0133E4E7199A4C
:10426000039B9A4206DBEF070ED5089B1344672297
:104270000292DAE7039B0899002A0B44F7DCC2F1AB
:104280000102F3E70123D0E71346F0E70BB18DF805
:104290005F2015F0200F07F1040308D009993A6850
:1042A000CE1708463146C2E900011F469AE4EE06E1
:1042B00003D53A6809991160F7E76806F9D53A68B5
:1042C000BDF824101180F0E745F0100515F020032B
:1042D00022D0073727F0070707F10803D7E900675F
:1042E0000493002300228DF85F20B9F1FF3F00F016
:1042F000DB8325F080020B9256EA070240F0D98357
:10430000B9F1000F00F0AA80012B76D0022B00F04B
:10431000918000260027D2E33A1D15F01001049287
:1043200002D03E680027DDE715F04003F9D03E8853
:104330000027D6E73B1D0493302378228DF86030A8
:10434000144B3E681193002745F002058DF861205B
:1043500002230292C6E73B1D0026B9F1FF3F0493FA
:10436000D7F800808DF85F600AD04A463146404653
:10437000FBF736FF002800F08D80A0EB0809CBE5A5
:104380004046FBF77DFF8146C6E500BF6E7E000814
:104390007E7E00085B7E000845F01005A90609D561
:1043A000073727F0070707F10803D7E900670493E9
:1043B000012397E73B1D15F0100F049301D03E68D1
:1043C00002E06A06FBD53E880027F1E70BB18DF8C5
:1043D0005F20A34BC2E43B1D15F0100F049301D0E6
:1043E0003E6802E06E06FBD53E880027C2E44346E5
:1043F00066E3002F08BF0A2E05D20DF1F008303613
:1044000008F8416D77E30DF1B008304639460A22CD
:104410000023FCF73DFC303208F8012D0023304624
:1044200039460A22FCF734FC06460F4656EA0703D3
:10443000EBD160E3002600270DF1B00806F00F0372
:10444000119AD35C08F8013D330943EA07733A092E
:104450001E46174656EA0703F0D14CE33BB9EA077C
:1044600005D50DF1F008302308F8413D43E30DF187
:10447000B00840E30BB18DF85F20029B002B00F0E9
:10448000F7829DF808308DF8883000268DF85F603F
:104490000497E8E406463FE510236360219B103350
:1044A0002193209B0133072B209304DC08340C9BC1
:1044B000103B0C9315E61FAA5146584601F0A2FE88
:1044C000002840F0B6822CACF1E71FAA51465846AE
:1044D00001F098FE002840F0AC822CAC14E61FAA34
:1044E0005146584601F08EFE002840F0A2822CACC6
:1044F0001CE61FAA5146584601F084FE002840F0F1
:1045000098822CAC22E610226260219A103221920D
:10451000209A0132072A209202DC0834103B1DE663
:104520001FAA514658460C9301F06CFE002840F03B
:1045300080822CAC0C9BF1E71FAA5146584601F033
:1045400061FE002840F075822CAC17E610236360F2
:10455000219B10332193209B0133072B209302DCF6
:104560000834103E0EE61FAA5146584601F04AFE96
:10457000002840F05E822CACF3E71FAA5146584653
:1045800001F040FE002840F054822CAC0AE6029B69
:10459000652B40F3A98100220023DDE90601FCF729
:1045A00097FA002862D02F4B236001236360219B80
:1045B00001332193209B0133072B209325DC083402
:1045C000199B039A934202DBEE077FF502AE0D9B27
:1045D0002360089B6360089A219B13442193209BCE
:1045E0000133072B20931ADC0834039B5E1E002E38
:1045F0007FF7EFAD1C4F4FF01008102E276018DC2E
:104600006660219B1E442196D4E51FAA5146584658
:1046100001F0F8FD002840F00C822CACD0E71FAA76
:104620005146584601F0EEFD002840F002822CACC5
:10463000DBE7219BC4F8048010332193209B0133D6
:10464000072B209302DC0834103ED6E71FAA514600
:10465000584601F0D7FD002840F0EB812CACF3E781
:104660005B7E00086C7E00087E7E0008199B002B94
:104670007ADC9B4B236001236360219B01332193F0
:10468000209B0133072B209344DC0834199B23B96A
:10469000039B13B9E8077FF59CAD0D9B2360089B36
:1046A0006360089A219B13442193209B0133072BBD
:1046B000209339DC04F10803199E002E19DA894F82
:1046C00076421024102E1F6038DC219A5E6016445A
:1046D000209A21960132072A03F10803209208DD6F
:1046E0001FAA5146584601F08DFD002840F0A181D7
:1046F0002CAB039A5A600399219AC3F800800A44AC
:104700002192209A0132072A20923FF759AD03F1F6
:1047100008045EE51FAA5146584601F073FD0028C3
:1047200040F087812CACB1E71FAA5146584601F0F2
:1047300069FD002840F07D812CABBDE7219A5C60CB
:1047400010322192209A0132072A209202DC08338B
:10475000103EB7E71FAA5146584601F053FD002806
:1047600040F067812CABF3E7039BBB42A8BF3B46FD
:10477000002B1E460BDD6360219BC4F80080334490
:104780002193209B0133072B20935FDC0834002EFC
:10479000ACBFBE1B3E46002E0FDDDFF84891C4F8CB
:1047A0000090102E5CDC219B66601E44209B2196AD
:1047B0000133072B20936ADC0834199B039A934238
:1047C00001DBE9070DD50D9B2360089B6360089A08
:1047D000219B13442193209B0133072B209360DC02
:1047E0000834039B039ADE1B199BD31A9E42A8BF71
:1047F0001E46002E0BDD219B666033442193209BD7
:1048000001334744072B2760209354DC0834199B5D
:10481000039A002EA2EB0303ACBF9E1B1E46002E84
:104820007FF7D7AC2F4F4FF01008102E27607FF77F
:10483000E7AE219BC4F8048010332193209B013301
:10484000072B209341DC0834103EEEE71FAA5146A7
:10485000584601F0D7FC002840F0EB802CAC96E7DE
:1048600010236360219B10332193209B0133072B7E
:10487000209302DC0834103E91E71FAA51465846A7
:1048800001F0C0FC002840F0D4802CACF3E71FAA54
:104890005146584601F0B6FC002840F0CA802CACC6
:1048A0008BE71FAA5146584601F0ACFC002840F0A7
:1048B000C0802CAC95E71FAA5146584601F0A2FCD7
:1048C000002840F0B6802CACA1E71FAA51465846FC
:1048D00001F098FC002840F0AC802CACB4E700BF9D
:1048E0006C7E00087E7E0008039B012B01DCEA073A
:1048F00076D501236360219BC4F8008001332193A6
:10490000209B0133072B209336DC08340D9B23605A
:10491000089B6360089A219B13442193209B0133D9
:10492000072B209331DC083400230022DDE9060147
:10493000FCF7CEF8039B5E1E00282FD108F101037F
:1049400084E84800219B039A013B13442193209B58
:104950000133072B20934ADD1FAA5146584601F028
:1049600051FC002865D12CAC1BAB2360109B63600D
:10497000109A219B13441CE41FAA5146584601F08B
:1049800041FC002855D12CACC0E71FAA514658461F
:1049900001F038FC00284CD12CACC5E7002EE3DD3B
:1049A000594F4FF01008102E276004DC219B6660E1
:1049B0001E442196CBE7219BC4F804801033219339
:1049C000209B0133072B209302DC0834103EEAE7DA
:1049D0001FAA5146584601F015FC50BB2CACF5E718
:1049E00001236360219BC4F800800133AEE70834E3
:1049F000BAE70834FFF7EDBB0A9B0B9A9D1A002D0E
:104A00007FF7EAAB1026414B2360102D1BDC219B66
:104A100065601D44209B21950133072B20937FF770
:104A2000DBAB1FAA5146584601F0ECFB00283FF4CF
:104A3000D3ABBAF80C3013F0400F099B18BF4FF0FE
:104A4000FF33FFF7B9B8219B666010332193209B99
:104A50000133072B209302DC0834103DD3E71FAA53
:104A60005146584601F0CEFB0028E2D12CACF4E7C9
:104A7000219B002BDDD01FAA5146584601F0C2FBF6
:104A8000D7E7DDE9062310461946FCF753F800285E
:104A90003FF444AA1E4B1F4AFFF734BA1D9BA3EBF9
:104AA00008030393FFF7B5BA56EA07020B953FF4E4
:104AB0002BAC012B3FF49DAC022B3FF4BDAC2CABD7
:104AC000F10841EA4771F80806F0070207460E466A
:104AD000303256EA070103F1FF3803F8012C7FF466
:104AE00086AC0B99C90706D5302A04D0302208F8C5
:104AF000012CA3F102084E460DF1B009A9EB0809FB
:104B00000B9D0027FFF7D1BA7E7E00086E7E00085D
:104B1000427E0008467E00082DE9F74F03690C69C4
:104B20009C42804600F38280013C01F114074FEA69
:104B3000840E00F1140657F8245056F8240006EBB2
:104B40000E03013507EB0E090193B0FBF5F595B3A4
:104B50004FF0000A3846B446D34650F8042B93B2BF
:104B600005FB03A34FEA134A9BB2ABEB0303120C02
:104B7000BCF800B005FB02A213FA8BF34FEA124A0D
:104B80001FFA82FBDCF80020CBEB124202EB23423F
:104B90009BB243EA024381454FEA224B4CF8043B67
:104BA000DBD256F80E3033B9019B043B9E421A46C5
:104BB00030D3C8F81040404601F04DFA002825DBFC
:104BC000013530464FF0000E57F8042BD0F800C0E6
:104BD00093B2AEEB0303120C13FA8CF3C2EB1C423C
:104BE00002EB23429BB243EA0243B9454FEA224E0D
:104BF00040F8043BE8D256F8242006EB84032AB997
:104C0000043B9E421A460BD3C8F81040284603B016
:104C1000BDE8F08F1268043B002ACAD1013CC5E709
:104C20001268043B002AEFD1013CEAE70020EEE7DE
:104C30002DE9F04F57EC106B97B0CDE90067466A4D
:104C4000079104460A920F93209D3EB9102000F070
:104C5000CBFD6062466086600660C660636A196864
:104C600051B15A684A60012393408B60204601F09D
:104C70001DF8636A00221A60019B002BBFBF01234D
:104C80002B60019B23F00043B2BF019300232B60F4
:104C9000DDF80480A84B33EA08031BD10F9A42F2D7
:104CA0000F731360009B23B9C8F31300002800F0B2
:104CB0007885219B53B9A14B21E0A14B0293083386
:104CC000219A1360029817B0BDE8F08F9B4B0293B6
:104CD0000333F5E7DDE9006700220023304639465B
:104CE000FBF7F6FE814660B10F9A01231360219B0A
:104CF000002B00F05385934B219A1360013B0293E4
:104D0000E0E714AA15A947EC106B204601F01BFA46
:104D1000C8F30A558246002D7ED0C7F3130343F033
:104D20007F51304641F44011A5F2FF35CDF848904F
:104D30000022854BFBF7B0FA79A3D3E90023FBF7F8
:104D40005FFC79A3D3E90023FBF7A8FA06462846BF
:104D50000F46FBF7EFFB76A3D3E90023FBF750FCEC
:104D600002460B4630463946FBF798FA06460F4690
:104D7000FBF7F6FE00228346002330463946FBF758
:104D8000B1FE58B15846FBF7D5FB02460B463046FC
:104D90003946FBF79DFE08B90BF1FF3BBBF1160F3F
:104DA00059D86A4901EBCB01DDE90023D1E90001C3
:104DB000FBF7B6FE002850D00BF1FF3B00230E930B
:104DC000149B5D1B6B1E069345BFC5F10103059344
:104DD000002300234CBF06930593BBF1000F3EDB7D
:104DE000069BCDF82CB05B44069300230893079BE9
:104DF000092B00F2AF80052BC4BF043B0793079B30
:104E0000A3F10203CCBF00260126032B00F2AE80E3
:104E1000DFE803F082842F77159B149D1D4405F273
:104E20003243202B11DD009A05F21240C3F14003FA
:104E300022FA00F008FA03F31843FBF76BFB012397
:104E4000A1F1F871013D129372E7C3F12000009BBC
:104E500003FA00F0F1E70123B1E70E90B0E7059BFC
:104E6000A3EB0B030593CBF10003089300230B93F3
:104E7000BDE7012309930A9B002B7ADD049303937A
:104E8000656A00226A60042101F114029A4275D910
:104E90006968204600F0D6FE636A28601B680293AA
:104EA000039B0E2B00F2E580002E00F0E2809DEDCA
:104EB000007BBBF1000F8DED0C7B74DD234A0BF002
:104EC0000F034FEA2B1602EBC303F006D3E9008968
:104ED00059D51F4B51EC170BD3E90823FBF7BAFC4C
:104EE000CDE9000106F00F060325194F002E4CD125
:104EF00042464B46DDE90001FBF7ACFCCDE9000181
:104F00006AE0012309930A9B5B4404930133012B5C
:104F10000393B8BF0123B3E70023ABE70023F1E716
:104F200061436F63A787D23FB3C8608B288AC63FAF
:104F3000FB799F501344D33F0000F07F977E000819
:104F40008E7E00086D7E00080000F83FC87E0008D5
:104F5000A07E000801260023079309964FF0FF3337
:104F600004930393002212230A9289E701230993F1
:104F7000F4E70123049303931A46F5E76A680132C4
:104F80006A60490080E70225AFE7F10708D540468F
:104F90004946D7E90023FBF733FB013580468946B4
:104FA00076100837A2E700F09D80CBF100069F4BFA
:104FB0009F4F06F00F0203EBC203D3E90023DDE9A4
:104FC0000C01FBF71DFBCDE9000136110023022582
:104FD000002E7CD1002B91D10E9B002B00F0848001
:104FE000DDE900890022934B40464946FBF77AFDF4
:104FF000002879D0039B002B76D0049B002B34DD56
:1050000000228D4B40464946FBF7FAFACDE90001F4
:10501000049E0BF1FF3701352846FBF78BFADDE9DB
:105020000023FBF7EDFA0022844BFBF737F98046AB
:10503000A1F15079002E5AD10022814BDDE9000107
:10504000FBF72AF942464B46CDE90001FBF768FD24
:10505000002840F09B82424609F10043DDE900014F
:10506000FBF740FD002840F08F82DDE90C23CDE9FD
:105070000023159B002BC0F25081BBF10E0F00F3F3
:105080004C816A4B03EBCB03D3E900890A9B002BCD
:1050900080F2DA80039B002B00F3D68040F073820D
:1050A0000022674B40464946FBF7AAFADDE9002398
:1050B000FBF72CFD039E3746002840F04A82029BF6
:1050C000029A5D1C312313700BF1010B45E2F207CC
:1050D00005D5D7E90023FBF793FA013501237610B4
:1050E000083775E7022577E75F46039E94E7029A43
:1050F0004E4B32441392099A711E002A48D003EB9A
:10510000C103D3E9002300204E49FBF7A3FB42462D
:105110004B46FBF7C1F8029D80468946DDE9000158
:10512000FBF71EFD0646FBF705FA02460B46DDE9D6
:105130000001FBF7B1F8303605F8016B42464B46EB
:10514000CDE90001FBF7CEFC002865D1DDE90023A5
:1051500000203849FBF7A0F842464B46FBF7C2FC5B
:10516000002840F0BA80139B9D423FF47EAF00229E
:10517000314B40464946FBF743FA002280468946B8
:105180002D4BDDE90001FBF73BFACDE90001C5E756
:1051900003EBC10142464B46D1E90001FBF730FA6F
:1051A000CDE91001029DDDE90001FBF7D9FC0646BF
:1051B000FBF7C0F9303602460B46DDE90001FBF78C
:1051C0006BF805F8016B139BAB42804689464FF0A4
:1051D000000225D11B4BDDE91001FBF75FF8024609
:1051E0000B4640464946FBF79BFC002875D1DDE99C
:1051F000102300201349FBF74FF802460B464046A8
:105200004946FBF76FFC00283FF42FAF15F8013C2F
:10521000302B05F1FF3201D0BB464DE01546F5E7D6
:10522000054BFBF7EDF9CDE90001BCE7C87E0008AE
:10523000A07E00080000F03F0000244000001C4059
:10524000000014400000E03FDDE90067029D424697
:105250004B4630463946FBF7FDFAFBF781FC0090E0
:10526000FBF768F942464B46FBF7CAF902460B4684
:1052700030463946FBF710F8009E039F303605F89C
:10528000016B029EAE1BB74202460B4638D1FBF7BC
:1052900005F806460F4602460B4640464946FBF7D0
:1052A00021FCC8B932463B4640464946FBF710FC54
:1052B00010B1009BDB070FD45146204600F0F6FCEE
:1052C00000230F9A2B700BF101031360219B002B1D
:1052D0003FF4F8AC1D60F5E45F4615F8012C392A5F
:1052E00005F1FF3306D1029A9A4207D13023137099
:1052F000013713461A7801321A708DE71D46ECE724
:105300000022A44BFBF77CF90022002306460F463F
:10531000FBF7DEFB00289AD0CEE7099A002A00F0BE
:10532000CD80079A012A00F3AF80129A002A00F07C
:10533000A78003F23343089E059D059A1A440592FF
:10534000069A01211A442046069200F04FFD0746B6
:10535000002D0CDD069B002B09DDAB42059AA8BF92
:105360002B46D21A0592069AED1AD31A0693089B79
:10537000F3B1099B002B00F0A580002E10DD39460B
:105380003246204600F0C8FD5246014607462046F8
:1053900000F035FD51468046204600F087FCC246AD
:1053A000089B9A1B04D05146204600F0B5FD82466A
:1053B0000121204600F01AFD0B9B002B064640F30E
:1053C00083801A460146204600F0A6FD079B012B6C
:1053D00006467CDD4FF00008336906EB830318694D
:1053E00000F0B6FCC0F12000069B184410F01F002E
:1053F00000F09680C0F12003042B40F38780059BCA
:10540000C0F11C0003440593069B05440344069326
:10541000059B002B05DD51461A46204600F0CAFDCB
:105420008246069B002B05DD31461A46204600F0D9
:10543000C1FD06460E9B002B74D03146504600F04D
:105440000AFE00286EDA002351460A22204600F0A8
:1054500044FC099B0BF1FF3B8246002B00F0A88126
:10546000002339460A22204600F037FC049B002B1B
:10547000074600F3C880079B022B40F3C48059E025
:10548000149BC3F1360356E7039B5E1E089BB34291
:10549000BFBF089B0896F21A0B9BB6BF9B189E1BBA
:1054A0000B93039BB8BF0026002BB9BF059B039A43
:1054B000059D039BBCBF9D1A00233EE7089E059DEA
:1054C000099F45E7089A6EE7079B012B19DC009BB3
:1054D000BBB9019BC3F313039BB9019B23F00043AA
:1054E0001B0D1B0583B1059B01330593069B0133FF
:1054F00006934FF001080B9B002B7FF46DAF01204A
:1055000072E74FF00008F6E79846F4E780D0059A76
:105510001C331A440592069A1A441D44134676E732
:105520000346F4E7039B002B36DC079B022B33DD9D
:10553000039B0493049B63B931460522204600F087
:10554000CCFB01460646504600F085FD00283FF79B
:10555000B6AD0A9B029D6FEA030B0023039331460D
:10556000204600F0A3FB002F3FF4A6AE039B2BB117
:10557000BB4203D01946204600F098FB394620462E
:1055800000F094FB98E600263746E2E7BB46374634
:1055900095E500BF00002440099B93BB039B049347
:1055A000029D31465046FFF7B7FA00F1300905F881
:1055B000019B029B049AEB1A9A4200F3DC80029B47
:1055C000012AACBF9B180133984600230393514630
:1055D0000122204600F0EEFC3146824600F03BFD01
:1055E000002800F38D8003D119F0010F40F088806E
:1055F000454615F8013C302B05F1FF32AFD1154679
:10560000F7E7039B0493002D05DD39462A46204623
:1056100000F0D0FC0746B8F1000F4CD07968204666
:1056200000F010FB3A6902320546920007F10C01C6
:105630000C3000F0EFFA01222946204600F0BAFCB7
:10564000009BDDF80880039703F0010307460593EC
:1056500031465046FFF760FA0399054600F13009DC
:10566000504600F0F8FC3A4600903146204600F0E3
:105670000CFDC368024603BB01460690504600F08D
:10568000EAFC069A034611462046069300F00EFBFC
:10569000069BA3B9079A92B9059A82B9B9F1390F55
:1056A00029D0009B002B01DD05F1310908F101052E
:1056B00088F8009053E73846C2E70123E3E7009AF1
:1056C000002A04DB25D1079A1ABB059A0ABB002BD6
:1056D000ECDD51460122204600F06CFC314682464A
:1056E00000F0B9FC002803DCE0D119F0010FDDD097
:1056F000B9F1390FD8D1392388F8003008F1010801
:10570000454615F8013C392B05F1FF323BD00133FA
:1057100040E0002B08F1010505DDB9F1390FEAD0B1
:1057200009F10109C4E7029B049A05F8019CEB1AF0
:105730009342A8463FF44BAF514600230A2220462D
:1057400000F0CBFA039B0399BB4282464FF0000363
:105750004FF00A02204604D100F0BFFA039007463A
:1057600076E700F0BAFA002303900A223946204671
:1057700000F0B3FAF3E7514600230A22204600F076
:10578000ACFA82460DE7029B934205D1029A0BF1D7
:10579000010B31231370E2E61546B2E7094BFFF720
:1057A000AEBA219B002B7FF488AA074BFFF7A7BA5C
:1057B000049B002B3FF7F4AE079B022B7FF7F0AE64
:1057C000B8E600BF6C7E00088E7E0008044B1B68A4
:1057D000186A044B002808BF1846F030704700BF15
:1057E0001C00002020050020024B0146186800F034
:1057F00003B800BF1C0000202DE9F74F01F10B0496
:10580000162C814607D934F0070405D50C23C9F8B6
:105810000030002631E110248C42F7D3484600F0D6
:1058200005FAB4F5FC7F9C4D36D204F108022A44F7
:10583000A2F1080156688E424FEAD40302D1D6681D
:10584000B24210D07368F268B16823F00303CA60F3
:10585000334491605A6842F001025A60484600F0B1
:10586000EBF9083609E102338C4A2E69964211465B
:105870006DD0706820F00300071B0F2F47DD331930
:1058800044F0010474606B612B61DA609A6047F048
:1058900001025A603750E1E7630A2AD0042B12D87C
:1058A000A30938335A1C05EBC202A2F1080056685E
:1058B000864206D0726822F00302111B0F291CDDFC
:1058C000013B0133D0E7142B01D85B33EAE7542BBB
:1058D00002D8230B6E33E5E7B3F5AA7F02D8E30BBA
:1058E0007733DFE740F25452934204D8A30C7C3361
:1058F000D8E73F23D6E77E23D4E70029F16804DB0D
:10590000B368D9608B60B318A4E70E46D0E7002FC8
:105910006A612A6105DB3044436843F00103436058
:105920009CE7B0F5007F44D2C0088710012202FA3C
:1059300007F76A6801303A436A6005EBC00255F820
:105940003070B760083AF26045F83060FE600120C0
:105950009A1000FA02F26868824200F2A1800242C4
:1059600006D123F003035200024203F10403FAD0EC
:1059700005EBC30CE0469E46D8F80C60464553D173
:105980000EF1010E1EF0030F08F10808F4D198077C
:1059900079D16B6823EA02036B6068685200824227
:1059A0007ED8002A7CD073460242E1D104335200F3
:1059B000FAE7420A042A15D882093832571C05EB47
:1059C000C20E55F83770BE4526D10120921000FA5C
:1059D00002F2686810436860C6F80CE0B760CEF861
:1059E0000860B3E7142A01D85B32E7E7542A02D8EB
:1059F000020B6E32E2E7B2F5AA7F02D8C20B773211
:105A0000DCE740F25457BA429ABF820C7C327E22C5
:105A1000D4E7BF68BE4504D07A6822F00302904202
:105A2000F7D3D7F80CE0D7E77068F76820F00300E9
:105A3000A0EB040ABAF10F0F10DDB268331944F07D
:105A400001047460D760BA604AF001026B612B6197
:105A5000D96099605A6046F800A0FFE6BAF1000FDD
:105A60000FDB3044436843F00103436056F8083FBE
:105A70004846DF60BB6000F0DFF8304603B0BDE8A9
:105A8000F08F3E467AE75CF80809844503F1FF335E
:105A90003FF47DAF81E700BF100100201801002016
:105AA000D5F808B0DBF8046026F00306B44203D84A
:105AB000331B0F2B00F396804F4A17684F4A11682B
:105AC000103701310BEB0603274405D04C4901394F
:105AD0000F44013149420F40394648460192009334
