:020000040800F2
:1000000000000120055600080D5400080F54000898
:10001000295400082B5400082D540008000000004B
:10002000000000000000000000000000713900081E
:100030002F54000800000000013A00083154000865
:1000400055560008555600085556000855560008E4
:1000500055560008555600085556000855560008D4
:1000600055560008555600085556000855560008C4
:1000700055560008555600085556000855560008B4
:1000800055560008555600085556000855560008A4
:1000900055560008555600085556000849540008A2
:1000A00055560008615400086D5400085556000864
:1000B0005556000855560008555600085556000874
:1000C0005556000855560008555600085556000864
:1000D0005556000879540008555600085556000832
:1000E0005556000855560008555600085556000844
:1000F0005556000855560008555600085556000834
:100100005556000800000000000000005556000889
:100110005556000855560008C5540008E15400081B
:100120005556000855560008555600085556000803
:100130005556000855560008000000000000000059
:100140005556000855560008555600080000000096
:10015000000000000000000000000000000000009F
:1001600055560008555600085556000855560008C3
:1001700055560008555600085556000855560008B3
:100180005556000855560008000000000000000009
:0401900055560008B8
:1001A00010B5054C237833B9044B13B10448AFF3B1
:1001B00000800123237010BD840700200000000090
:1001C000249B000808B5034B1BB103490348AFF358
:1001D000008008BD0000000088070020249B000864
:1001E00001F0FF01102A2BDB10F0070F08D010F8E8
:1001F000013B013A8B422DD010F0070F42B3F6D1EC
:10020000F0B441EA012141EA014122F007047FF004
:1002100000070023F0E80256083C85EA010586EA5B
:10022000010685FA47F5A3FA87F586FA47F6A5FA97
:1002300087F68EB9EED1F0BC01F0FF0102F00702A3
:1002400032B110F8013B013A83EA010313B1F8D14E
:100250000020704701387047002D06BF354603382F
:10026000073815F0010F07D1013015F4807F02BF68
:10027000013015F4C03F0130F0BC0138704700BFB9
:10028000034613F8012B002AFBD1181A01387047D6
:1002900081F0004102E000BF83F0004330B54FEA37
:1002A00041044FEA430594EA050F08BF90EA020FA4
:1002B0001FBF54EA000C55EA020C7FEA645C7FEA37
:1002C000655C00F0E2804FEA5454D4EB5555B8BF5A
:1002D0006D420CDD2C4480EA020281EA030382EACB
:1002E000000083EA010180EA020281EA0303362D5D
:1002F00088BF30BD11F0004F4FEA01314FF4801C30
:100300004CEA113102D0404261EB410113F0004F41
:100310004FEA03334CEA133302D0524263EB4303F8
:1003200094EA050F00F0A780A4F10104D5F1200E96
:100330000DDB02FA0EFC22FA05F2801841F10001F1
:1003400003FA0EF2801843FA05F359410EE0A5F1C5
:1003500020050EF1200E012A03FA0EFC28BF4CF0F6
:10036000020C43FA05F3C01851EBE37101F00045AC
:1003700007D54FF0000EDCF1000C7EEB00006EEBB9
:100380000101B1F5801F1BD3B1F5001F0CD3490843
:100390005FEA30004FEA3C0C04F101044FEA44529A
:1003A00012F5800F80F09A80BCF1004F08BF5FEA21
:1003B000500C50F1000041EB045141EA050130BD01
:1003C0005FEA4C0C404141EB010111F4801FA4F1A4
:1003D0000104E9D191F0000F04BF01460020B1FAF9
:1003E00081F308BF2033A3F10B03B3F120020CDA31
:1003F0000C3208DD02F1140CC2F10C0201FA0CF00F
:1004000021FA02F10CE002F11402D8BFC2F1200C73
:1004100001FA02F120FA0CFCDCBF41EA0C01904029
:10042000E41AA2BF01EB0451294330BD6FEA040472
:100430001F3C1CDA0C340EDC04F11404C4F120025D
:1004400020FA04F001FA02F340EA030021FA04F36F
:1004500045EA030130BDC4F10C04C4F1200220FAC6
:1004600002F001FA04F340EA0300294630BD21FA04
:1004700004F0294630BD94F0000F83F4801306BFCA
:1004800081F480110134013D4EE77FEA645C18BFBE
:100490007FEA655C29D094EA050F08BF90EA020F55
:1004A00005D054EA000C04BF1946104630BD91EA4D
:1004B000030F1EBF0021002030BD5FEA545C05D150
:1004C0004000494128BF41F0004130BD14F580048F
:1004D0003CBF01F5801130BD01F0004545F0FE4103
:1004E00041F470014FF0000030BD7FEA645C1ABF38
:1004F000194610467FEA655C1CBF0B46024650EA6F
:10050000013406BF52EA033591EA030F41F400219A
:1005100030BD00BF90F0000F04BF0021704730B520
:100520004FF4806404F132044FF000054FF00001F5
:1005300050E700BF90F0000F04BF0021704730B5B6
:100540004FF4806404F1320410F0004548BF40428B
:100550004FF000013EE700BF42004FEAE2014FEAE0
:1005600031014FEA02701FBF12F07F4393F07F4FBB
:1005700081F06051704792F0000F14BF93F07F4FED
:10058000704730B54FF4607401F0004521F0004130
:1005900020E700BF50EA010208BF704730B54FF0B6
:1005A00000050AE050EA010208BF704730B511F0BB
:1005B000004502D5404261EB41014FF4806404F1F3
:1005C00032045FEA915C3FF4DCAE4FF003025FEA75
:1005D000DC0C18BF03325FEADC0C18BF033202EBFD
:1005E000DC02C2F1200300FA03FC20FA02F001FA57
:1005F00003FE40EA0E0021FA02F11444C1E600BFF6
:1006000070B54FF0FF0C4CF4E06C1CEA11541DBFA8
:100610001CEA135594EA0C0F95EA0C0F00F0DEF873
:100620002C4481EA030621EA4C5123EA4C5350EA58
:10063000013518BF52EA033541F4801143F48013A9
:1006400038D0A0FB02CE4FF00005E1FB02E506F03A
:100650000042E0FB03E54FF00006E1FB03569CF08F
:10066000000F18BF4EF0010EA4F1FF04B6F5007F95
:1006700064F5407404D25FEA4E0E6D4146EB060607
:1006800042EAC62141EA55514FEAC52040EA5E5090
:100690004FEACE2EB4F1FD0C88BFBCF5E06F1ED83A
:1006A000BEF1004F08BF5FEA500E50F1000041EB71
:1006B000045170BD06F0004646EA010140EA02001E
:1006C00081EA0301B4EB5C04C2BFD4EB0C0541EA40
:1006D000045170BD41F480114FF0000E013C00F355
:1006E000AB8014F1360FDEBF002001F0004170BD79
:1006F000C4F10004203C35DA0C341BDC04F1140492
:10070000C4F1200500FA05F320FA04F001FA05F21D
:1007100040EA020001F0004221F0004110EBD370EA
:1007200021FA04F642EB06015EEA430E08BF20EA16
:10073000D37070BDC4F10C04C4F1200500FA04F3B9
:1007400020FA05F001FA04F240EA020001F000414B
:1007500010EBD37041F100015EEA430E08BF20EABE
:10076000D37070BDC4F1200500FA05F24EEA020E06
:1007700020FA04F301FA05F243EA020321FA04F035
:1007800001F0004121FA04F220EA020000EBD370EC
:100790005EEA430E08BF20EAD37070BD94F0000FEC
:1007A0000FD101F00046400041EB010111F4801F20
:1007B00008BF013CF7D041EA060195F0000F18BFD1
:1007C000704703F00046520043EB030313F4801F0D
:1007D00008BF013DF7D043EA0603704794EA0C0FC7
:1007E0000CEA135518BF95EA0C0F0CD050EA4106DD
:1007F00018BF52EA4306D1D181EA030101F000415A
:100800004FF0000070BD50EA410606BF1046194681
:1008100052EA430619D094EA0C0F02D150EA01368D
:1008200013D195EA0C0F05D152EA03361CBF1046CE
:1008300019460AD181EA030101F0004141F0FE416D
:1008400041F470014FF0000070BD41F0FE4141F4F1
:10085000780170BD70B54FF0FF0C4CF4E06C1CEAF1
:1008600011541DBF1CEA135594EA0C0F95EA0C0FA6
:1008700000F0A7F8A4EB050481EA030E52EA033561
:100880004FEA013100F088804FEA03334FF0805582
:1008900045EA131343EA12634FEA022245EA1115AF
:1008A00045EA10654FEA00260EF000419D4208BF60
:1008B000964244F1FD0404F5407402D25B084FEA0D
:1008C0003202B61A65EB03055B084FEA32024FF4B9
:1008D00080104FF4002CB6EB020E75EB030E22BF16
:1008E000B61A754640EA0C005B084FEA3202B6EBD6
:1008F000020E75EB030E22BFB61A754640EA5C0085
:100900005B084FEA3202B6EB020E75EB030E22BF14
:10091000B61A754640EA9C005B084FEA3202B6EB15
:10092000020E75EB030E22BFB61A754640EADC00D4
:1009300055EA060E18D04FEA051545EA16754FEA36
:1009400006164FEAC30343EA52734FEAC2025FEA54
:100950001C1CC0D111F4801F0BD141EA00014FF0E3
:1009600000004FF0004CB6E711F4801F04BF0143B4
:100970000020B4F1FD0C88BFBCF5E06F3FF6AFAED0
:10098000B5EB030C04BFB6EB020C5FEA500C50F160
:10099000000041EB045170BD0EF0004E4EEA1131E3
:1009A00014EB5C04C2BFD4EB0C0541EA045170BDEA
:1009B00041F480114FF0000E013C90E645EA060E2E
:1009C0008DE60CEA135594EA0C0F08BF95EA0C0F5C
:1009D0003FF43BAF94EA0C0F0AD150EA01347FF4A4
:1009E00034AF95EA0C0F7FF425AF104619462CE77B
:1009F00095EA0C0F06D152EA03353FF4FDAE1046DE
:100A0000194622E750EA410618BF52EA43067FF42E
:100A1000C5AE50EA41047FF40DAF52EA43057FF4BE
:100A2000EBAE12E74FF0FF3C06E000BF4FF0010CC9
:100A300002E000BF4FF0010C4DF804CD4FEA410C2D
:100A40007FEA6C5C4FEA430C18BF7FEA6C5C1BD0FA
:100A500001B050EA410C0CBF52EA430C91EA030F7B
:100A600002BF90EA020F0020704710F1000F91EAD8
:100A7000030F58BF994208BF90422CBFD8176FEAA6
:100A8000E37040F0010070474FEA410C7FEA6C5C74
:100A900002D150EA013C07D14FEA430C7FEA6C5C7B
:100AA000D6D152EA033CD3D05DF8040B704700BFA7
:100AB0008446104662468C461946634600E000BFF5
:100AC00001B5FFF7B7FF002848BF10F1000F01BDC7
:100AD0004DF808EDFFF7F4FF0CBF012000205DF892
:100AE00008FB00BF4DF808EDFFF7EAFF34BF012017
:100AF00000205DF808FB00BF4DF808EDFFF7E0FFB0
:100B000094BF012000205DF808FB00BF4DF808ED00
:100B1000FFF7CEFF94BF012000205DF808FB00BF67
:100B20004DF808EDFFF7C4FF34BF012000205DF849
:100B300008FB00BF4FEA410C7FEA6C5C02D150EA2F
:100B4000013C0AD14FEA430C7FEA6C5C02D152EAC5
:100B5000033C02D14FF0000070474FF00100704796
:100B60004FEA410212F5001215D211D56FF47873D5
:100B7000B3EB625212D94FEAC12343F0004343EA78
:100B8000505311F0004F23FA02F018BF4042704753
:100B90004FF00000704750EA013005D111F00040DD
:100BA00008BF6FF0004070474FF00000704700BF73
:100BB0004A0011D212F5001211D20DD56FF47873DC
:100BC000B3EB62520ED44FEAC12343F0004343EA31
:100BD000505323FA02F070474FF00000704750EA7C
:100BE000013002D14FF0FF3070474FF000007047E6
:100BF0004FEA4102B2F1E04324BFB3F5001CDCF13F
:100C0000FE5C0DD901F0004C4FEAC0024CEA507076
:100C1000B2F1004F40EB830008BF20F001007047A5
:100C200011F0804F21D113F13872BCBF01F00040A8
:100C3000704741F480114FEA5252C2F11802C2F1DA
:100C4000200C10FA0CF320FA02F018BF40F001005B
:100C50004FEAC1234FEAD32303FA0CFC40EA0C000D
:100C600023FA02F34FEA4303CCE77FEA625307D14A
:100C700050EA01331EBF4FF0FE4040F44000704781
:100C800001F0004040F0FE4040F40000704700BF1B
:100C900053B94AB9002908BF00281CBF4FF0FF31E3
:100CA0004FF0FF3000F07AB9ADF1080C6DE904CED9
:100CB00000F006F8DDF804E0DDE9022304B0704737
:100CC0002DE9F0478C460D460446089E002B51D175
:100CD0008A4217466DD9B2FA82FEBEF1000F0BD0E0
:100CE000CEF1200C01FA0EF520FA0CFC02FA0EF7F8
:100CF0004CEA050C00FA0EF44FEA174A250CBCFB2F
:100D0000FAF81FFA87F90AFB18CC45EA0C4508FBEC
:100D100009F3AB420AD9ED1908F1FF3280F02381C3
:100D2000AB4240F22081A8F102083D44ED1AA4B282
:100D3000B5FBFAF00AFB105544EA054400FB09F93B
:100D4000A14509D9E41900F1FF3380F00A81A145DA
:100D500040F2078102383C44A4EB090440EA084011
:100D60000021002E61D024FA0EF400233460736059
:100D7000BDE8F0878B4207D9002E54D0002186E8C9
:100D800021000846BDE8F087B3FA83F1002940F05E
:100D90008E80AB4202D3824200F2FA80841A65EB65
:100DA00003050120AC46002E3FD086E81010BDE8B8
:100DB000F08712B90127B7FBF2F7B7FA87FEBEF149
:100DC000000F34D1EB1B3A0C1FFA87FC0121B3FB57
:100DD000F2F8250C02FB183345EA03450CFB08F337
:100DE000AB4207D9ED1908F1FF3002D2AB4200F255
:100DF000D1808046ED1AA3B2B5FBF2F002FB10558C
:100E000043EA05440CFB00FCA44507D9E41900F1B2
:100E1000FF3302D2A44500F2B8801846A4EB0C04BC
:100E200040EA08409DE731463046BDE8F087CEF104
:100E3000200405FA0EF307FA0EF720FA04F83A0C2C
:100E400025FA04F448EA0308B4FBF2F14FEA184526
:100E500002FB11441FFA87FC45EA044501FB0CF331
:100E6000AB4200FA0EF409D9ED1901F1FF3080F020
:100E70008A80AB4240F2878002393D44EB1A1FFA68
:100E800088F5B3FBF2F002FB103345EA034500FBA3
:100E90000CF3AB4207D9ED1900F1FF386FD2AB422A
:100EA0006DD902383D44EB1A40EA01418FE7C1F1A8
:100EB000200722FA07F88B4005FA01F448EA0303F9
:100EC00020FA07FE4FEA134CFD404EEA040EB5FB34
:100ED000FCF94FEA1E440CFB19551FFA83F844EA4B
:100EE000054509FB08F4AC4202FA01F200FA01FAE6
:100EF00008D9ED1809F1FF3043D2AC4241D9A9F12C
:100F000002091D442D1B1FFA8EFEB5FBFCF00CFBE5
:100F100010554EEA054400FB08F8A04507D9E4182F
:100F200000F1FF3529D2A04527D902381C4440EAF8
:100F30000940A4EB0804A0FB02894C45C6464D4677
:100F400015D312D056B1BAEB0E0364EB050404FAC4
:100F500007F7CB401F43CC40376074600021BDE8E9
:100F6000F0871846F8E69046E0E6C245EAD2B8EBCC
:100F7000020E69EB03050138E4E72846D7E740464F
:100F800091E78146BEE7014678E702383C4445E7F1
:100F9000084608E7A8F102083D442BE7704700BF68
:100FA00038B50E4A0E4B054618784FF47A73B3FBEA
:100FB000F0F31068B0FBF3F000F0A2F8044658B963
:100FC0000F2D09D8024629464FF0FF3000F056F8A1
:100FD000044B20461D6038BD012038BD10010020A3
:100FE0000000002004000020074A08B5136843F001
:100FF00010031360032000F02FF80F20FFF7D0FF3D
:1010000004F0B8F8002008BD00200240034A044B59
:1010100011681B780B441360704700BFF01D00205F
:1010200000000020014B1868704700BFF01D002031
:1010300038B50446FFF7F6FF631C1CBF054B1B7851
:10104000054618BFE418FFF7EDFF401B8442FAD8AD
:1010500038BD00BF00000020074AD36823F4E063D6
:101060001B041B0C43F0BF63000243F4003300F485
:10107000E0600343D360704700ED00E0174B30B5EC
:10108000DC68C4F30224C4F10703251D042B28BF28
:101090000423062D4FF0010505FA03F303F1FF3396
:1010A0008CBF033C00241940A14005FA04F4013C24
:1010B0002240002842EA01024FEA0212ADBF00F1CD
:1010C000604000F00F00064B00F56140B5BFD2B2A2
:1010D000D2B21A5480F8002330BD00BF00ED00E00A
:1010E00014ED00E0002808DB4209012300F01F0096
:1010F00003FA00F0014B43F82200704700E100E0E2
:101100000138B0F1807F0AD2064B074A5860F021BF
:1011100082F823100020072298601A60704701208F
:10112000704700BF10E000E000ED00E010B504469D
:1011300068B1037903F0FF0213B9427104F03AF881
:1011400002232371002001232061237110BD01209F
:1011500010BD704713B5002400680194019041B997
:10116000019908310A440192019A0020136002B0EB
:1011700010BD01991431F5E74379012B10B54FF0FB
:10118000020315D00371036801221C6842718A4072
:1011900022431A601A6869B902F03C023C2A03D162
:1011A0005A6842F001025A6001230371002343711F
:1011B000184610BD02F47012B2F5701FF4D15A68CF
:1011C00042F00202EFE74379012B30B54FF0020302
:1011D00017D004680371236840F6FE75954023EA32
:1011E00005050AC90B4393402B4323602368C021A4
:1011F00001FA02F223EA02020123226003710023B2
:101200004371184630BD704703681A68910410B5E1
:10121000044611D55A6B92040ED50422027102695C
:1012200042F0010202614FF400525A631A6822F43C
:1012300080521A60FFF78DFF23681A68910012D55B
:101240005A6B92000FD504222271226942F00202E9
:1012500022614FF000525A631A6822F080521A60DD
:101260002046FFF7D0FF10BD90F82120022A10B5CC
:1012700003D004228263012010BD0268C46B116890
:10128000436B21F00E011160116821F00101116022
:10129000026C012101FA02F26260002480F8211040
:1012A00080F8204013B19847204610BD184610BD65
:1012B0002DE9F74FD1F80080DFF89091614A0023C3
:1012C00038FA03F402D103B0BDE8F08F4FF0010EFD
:1012D0000EFA03FE18EA0E0600F0A6804C6824F011
:1012E0001007022F16D14FEAD30A00EB8A0A03F047
:1012F000070BDAF820504FEA8B0B4FF00F0C0CFA6B
:101300000BFC25EA0C0C0D6905FA0BF545EA0C05FA
:10131000CAF820504FEA430A0325D0F800B005FA76
:101320000AF5ED4304F0030C0BEA050B0CFA0AFC7A
:10133000013F4CEA0B0C012FC0F800C011D88768A0
:1013400007EA050BCF6807FA0AFC4CEA0B0787602F
:10135000476827EA0E0EC4F300179F4047EA0E07BE
:101360004760C7683D408F6807FA0AF73D43C5608C
:10137000E50059D5D9F8185045F00105C9F81850BD
:10138000D9F8185023F0030707F1804705F001054D
:1013900007F58037019503F0030C019DBD684FEA06
:1013A0008C0C4FF00F0E0EFA0CFEB0F1904F25EAA8
:1013B0000E0E3BD0244DA8423AD005F58065A842D8
:1013C00038D005F58065A84236D005F58065A8427D
:1013D00034D005F58065A84232D005F58065A84275
:1013E00014BF0725062505FA0CF545EA0E05BD6074
:1013F0001568F74314F4803F0CBF3D40354315603A
:10140000556814F4003F0CBF3D4035435560956866
:1014100014F4801F0CBF3D4035439560D568A4028D
:1014200054BF3D403543D560013349E70025DAE735
:101430000125D8E70225D6E70325D4E70425D2E71E
:101440000525D0E7000401400004004800100240D8
:101450000369194214BF0120002070470AB181615D
:1014600070478162704743690B4218BF090481616C
:101470007047000008B5044B5969014202D0586119
:1014800003F06CFB08BD00BF0004014003689A69CB
:10149000910744BF00229A629A69D2075EBF9A6997
:1014A00042F001029A61704730B5039C05682343FE
:1014B000640D04F4806444F07F7444F45834686824
:1014C000C1F3090144F47F74194344F0030441EA71
:1014D000024120EA04042143696030BD2DE9F04156
:1014E000069F0446884616461D462268936938EAD8
:1014F00003030CBF01230023B34202D00020BDE848
:10150000F0816B1CF2D0FFF78DFDC01B854201D32B
:10151000002DEAD1636C43F020036364202384F838
:101520004130002384F8423084F840300120BDE887
:10153000F081036870B50446986910F010000D46FC
:10154000164616D170BD691C14D0FFF76BFD801BC9
:10155000854200D36DB9636C43F02003636420239C
:1015600084F84130002384F8423084F84030012070
:1015700070BD236899698A06E5D510222025DA61B5
:101580002046DD61FFF782FF2268536823F0FF7376
:1015900023F48B3323F4FF7323F001035360636C54
:1015A00043F00403636484F84150DBE770B50446FC
:1015B0000D46164623689B699B0701D5002070BD28
:1015C000324629462046FFF7B4FFA0B96A1CF1D085
:1015D000FFF728FD801B854201D3002DEAD1636C03
:1015E00043F020036364202384F84130002384F80F
:1015F000423084F84030012070BD0000F7B5099EEC
:101600001F46164B0093054614464FF08073FAB2FE
:10161000FFF74AFF324608992846FFF7C7FF10B187
:10162000012003B0F0BD012F2B680CD1E4B29C6205
:10163000089B0096002280212846FFF74FFF0030CC
:1016400018BF0120EDE7220A9A620899324628461F
:10165000FFF7ACFF0028E3D12B68E7E7002000800C
:10166000F7B5099E1F46164B009305461446002306
:10167000FAB2FFF719FF324608992846FFF796FF9E
:1016800010B1012003B0F0BD012F2B680CD1E4B2E2
:101690009C62089B0096002240212846FFF71EFF0F
:1016A000003018BF0120EDE7220A9A6208993246FD
:1016B0002846FFF77BFF0028E3D12B68E7E700BF50
:1016C0000020008070B504460D46164623689B69CD
:1016D0009B0601D5002070BD324629462046FFF703
:1016E00028FF90B9FFF79EFC801B854201D3002D97
:1016F000ECD1636C43F020036364202384F8413011
:10170000002384F8423084F84030012070BD10B5C9
:10171000044600284AD090F8413003F0FF021BB97C
:1017200080F8402003F07CFD242384F841302368B6
:10173000E1681A6822F001021A60626822F07062A1
:101740001A619A68012922F400429A60A26824D1A1
:1017500042F400429A605A68616942F0007242F4B1
:1017600000425A60DA6822F40042DA6022690A43D1
:10177000A16942EA0122DA60216AE2690A431A6039
:101780001A6842F001021A6000202023606484F885
:101790004130206384F8420010BD42F40442022923
:1017A0009A6004BF4FF400625A60D4E7012010BD74
:1017B0002DE9F04F9B4690F8413085B0202B044630
:1017C0000F460392BDF83CA0DDF8408040F0A580B4
:1017D0000E9B13B1BAF1000F06D14FF4007363648E
:1017E000012005B0BDE8F08F90F84030012B00F0EB
:1017F0009480012580F84050FFF714FC19230090D5
:1018000006462A464FF400412046FFF767FE814610
:101810000028E5D1212384F84130402384F8423068
:101820000E9B606463626063A4F82AA00196CDF801
:1018300000805B46039A39462046FFF7DFFE10B171
:1018400084F84090CCE7638D9BB2FF2B55D9FF22E3
:10185000228500904FF0807339462046FFF724FE22
:10186000324641462046FFF7A1FE0028B8D1636A00
:10187000226813F8011B91626362638D228D013B24
:101880009BB26385638D013A92B29BB22285ABB164
:10189000A2B90096434680212046FFF71FFE00288C
:1018A0009ED1638D9BB2FF2B2FD9FF222285009002
:1018B0004FF0807339462046FFF7F6FD638D9BB2EB
:1018C000002BCDD1324641462046FFF7FBFE0028D3
:1018D00086D123682021D9615A6822F0FF7222F450
:1018E0008B3222F4FF7222F001025A6084F8411018
:1018F00084F8400084F8420073E7628D009092B251
:1019000022854FF00073D2B2A6E7628D009092B2AA
:1019100022854FF00073D2B2CCE7022061E70000CD
:101920002DE9F04F9B4690F8413085B0202B0446BE
:101930000F460392BDF83CA0DDF8408040F0A9803E
:101940000E9B13B1BAF1000F06D14FF4007363641C
:10195000012005B0BDE8F08F90F84030012B00F079
:101960009880012580F84050FFF75CFB1923009018
:1019700006462A464FF400412046FFF7AFFD814658
:101980000028E5D1222384F84130402384F84230F6
:101990000E9B606463626063A4F82AA00196CDF890
:1019A00000805B46039A39462046FFF759FE10B186
:1019B00084F84090CCE7638D9BB2FF2B364B58D90F
:1019C000FF22009322854FF0807339462046FFF7AF
:1019D0006BFD00964346002204212046FFF77EFD62
:1019E0000028B5D12268636A526A1A70636A228D30
:1019F00001336362638D013B9BB26385638D013A62
:101A000092B29BB22285ABB1A2B900964346802127
:101A10002046FFF763FD00289AD1638D9BB2FF2B10
:101A20002FD9FF22228500904FF08073394620463F
:101A3000FFF73AFD638D9BB2002BCAD13246414677
:101A40002046FFF73FFE002882D123682021D9617C
:101A50005A6822F0FF7222F48B3222F4FF7222F0D5
:101A600001025A6084F8411084F8400084F8420072
:101A70006FE7628D009392B222854FF00073D2B26D
:101A8000A3E7628D009092B222854FF00073D2B22C
:101A9000CCE702205DE700BF0024008090F84120E1
:101AA000D2B2202A10B51DD190F84030012B19D0A8
:101AB000242380F8413003681C6824F001041C6072
:101AC0001C6824F480541C601C6821431960196848
:101AD00041F001011960002380F8412080F8403076
:101AE000184610BD022010BD10B590F84140E4B278
:101AF000202C1CD190F84030012B18D0242380F8E2
:101B0000413003681A6822F001021A601A6822F450
:101B1000706242EA012119601A6842F001021A60FB
:101B2000002380F8414080F84030184610BD022064
:101B300010BD00002DE9F347054608B901205BE020
:101B40000368DF0711D42B689E0700F18A802B6899
:101B50001C0700F1FE802B68580700F14781A86937
:101B6000002840F0DE81002046E0BE4C636803F0B0
:101B70000C03042B0AD0636803F00C03082B19D163
:101B8000636803F4C033B3F5803F13D14FF40033DF
:101B900093FAA3F2216893FAA3F3B3FA83F303F061
:101BA0001F03012202FA03F30B42CCD06B68002B17
:101BB000C9D1C3E76B68B3F5803F20D1236843F4F4
:101BC00080332360FFF72EFA4FF40036804601275A
:101BD00096FAA6F3226896FAA6F3B3FA83F303F013
:101BE0001F0307FA03F31342ADD1FFF71BFAA0EB73
:101BF00008006428ECD9032002B0BDE8F0870BBBD5
:101C0000236823F480332360236823F48023236034
:101C1000FFF708FA4FF400368046012796FAA6F33C
:101C2000226896FAA6F3B3FA83F303F01F0307FAC8
:101C300003F3134287D0FFF7F5F9A0EB08006428FF
:101C4000ECD9D8E7B3F5A02F236803D143F4802360
:101C50002360B3E723F480332360236823F48023D5
:101C6000AFE7804C636813F00C0F0AD0636803F091
:101C70000C03082B25D1636803F4C033B3F5004F80
:101C80001FD1022393FAA3F2216893FAA3F3B3FAC4
:101C900083F303F01F03012202FA03F30B4203D084
:101CA000EB6893427FF44AAF2168F82393FAA3F3D9
:101CB000B3FA83F22B69934021F0F80213432360B7
:101CC00045E7EA6801260AB396FAA6F3B3FA83F366
:101CD00003F1845303F584139B0002271E60FFF772
:101CE000A1F9804697FAA7F3226897FAA7F3B3FA07
:101CF00083F303F01F0306FA03F31342D4D1FFF773
:101D000091F9A0EB08000228ECD974E796FAA6F343
:101D1000B3FA83F303F1845303F584139B00022782
:101D20001A60FFF77FF9804697FAA7F3226897FABF
:101D3000A7F3B3FA83F303F01F0306FA03F3134286
:101D40003FF405AFFFF76EF9A0EB08000228EBD9CE
:101D500051E76A69434E444901241AB394FAA4F343
:101D6000B3FA83F30B449B0002271C60FFF75AF978
:101D7000804697FAA7F397FAA7F397FAA7F3726A40
:101D800097FAA7F3B3FA83F303F01F0304FA03F3FC
:101D900013427FF4E0AEFFF745F9A0EB08000228FC
:101DA000E7D928E794FAA4F3B3FA83F30B449B0032
:101DB00002271A60FFF736F9804697FAA7F397FAD9
:101DC000A7F397FAA7F3726A97FAA7F3B3FA83F324
:101DD00003F01F0304FA03F313423FF4BCAEFFF712
:101DE00021F9A0EB08000228E7D904E71D4CE369BC
:101DF000D90034D4E36943F08053E361E36903F02D
:101E000080530193019B0126184F3B68DA052FD5BB
:101E1000AB68012B3DD1236A43F001032362FFF736
:101E200001F902278246B9464FF0010897FAA7F355
:101E300097FAA7F3002B6CD0226A99FAA9F3B3FAA8
:101E400083F303F01F0308FA03F3134258D0002E64
:101E50003FF485AEE36923F08053E3617FE600261B
:101E6000D2E700BF001002402081901000700040B7
:101E70003B6843F480733B60FFF7D4F880463B68CF
:101E8000DB05C5D4FFF7CEF8A0EB08006428F6D92F
:101E9000B1E63BBB236A23F001032362236A23F0EC
:101EA00004032362FFF7BEF802278246B9464FF0CB
:101EB000010897FAA7F397FAA7F373B3226A99FA7E
:101EC000A9F3B3FA83F303F01F0308FA03F31342F1
:101ED000BDD0FFF7A7F841F28833A0EB0A00984283
:101EE000E7D988E6052B236A03D143F00403236274
:101EF00091E723F001032362236A23F004038DE7B3
:101F0000FFF790F841F28833A0EB0A0098428DD990
:101F100071E697FAA7F3626A8FE797FAA7F3626A06
:101F2000CDE7514A536803F00C03082B144600F028
:101F3000828002284FF0807358D193FAA3F3B3FA4A
:101F400083F303F1845303F584139B0000221A608A
:101F5000FFF768F84FF000778046012697FAA7F35D
:101F6000226897FAA7F3B3FA83F303F01F0306FA84
:101F700003F3134233D1E36A6A6A23F00F03134376
:101F8000E36262682B6AE96922F476120B43134319
:101F900063604FF0807393FAA3F3B3FA83F303F112
:101FA000845303F584139B004FF000751E60FFF708
:101FB00039F80126074695FAA5F3226895FAA5F3A4
:101FC000B3FA83F303F01F0306FA03F313427FF41B
:101FD000CAADFFF727F8C01B0228ECD90BE6FFF7C4
:101FE00021F8A0EB08000228B8D904E693FAA3F37D
:101FF000B3FA83F303F1845303F584139B000022A7
:102000001A60FFF70FF84FF000750746012695FAA2
:10201000A5F3226895FAA5F3B3FA83F303F01F033F
:1020200006FA03F313423FF49EADFEF7FBFFC01B1D
:102030000228ECD9DFE501283FF4DEAD5368D06A11
:10204000EA6903F4C03191427FF478AD2A6A03F45F
:10205000701393427FF472AD6B6A00F00F00C01AE8
:1020600018BF0120C8E500BF0010024011494B68AD
:1020700003F00C02082A1AD14FF4701292FAA2F25D
:102080000F20B2FA82F2C96A90FAA0F0B0FA80F09A
:1020900001F00F0103F47013D340C140064A074812
:1020A000415C0748B0FBF1F1D05C484370470448FD
:1020B000704700BF001002405C9B00086C9B00084A
:1020C00000127A002DE9F0410D46044610B90120B6
:1020D000BDE8F0814D4A136803F007038B422FD30C
:1020E0002268910737D4D2073DD4484A136803F0D9
:1020F00007039D4276D32268454D12F0040F7DD12F
:10210000130706D56B68226923F4605343EAC203C0
:102110006B60FFF7ABFF6B68F02292FAA2F2B2FAA3
:1021200082F203F0F003D3403A4AD35CD8403A4BF2
:1021300018603A4B1868FEF733FF0020BDE8F081C5
:10214000136823F007030B431360136803F00703BE
:102150009942BCD1C4E72E49A0684B6823F0F00334
:1021600003434B60BFE76268294E012A27D14FF431
:10217000003393FAA3F1316893FAA3F3B3FA83F32C
:1021800003F01F0302FA03F30B42A0D0736823F09D
:1021900003031A437260FEF745FF41F28838074691
:1021A0007368626803F00C03B3EB820F9DD0FEF7F7
:1021B00039FFC01B4045F3D90320BDE8F081022A56
:1021C0000CBF4FF00073022393FAA3F1306893FA27
:1021D000A3F3B3FA83F303F01F03012101FA03F31E
:1021E0000342D2E7136823F007032B4313601368FD
:1021F00003F007039D427FF46AAF7CE76B68E168F8
:1022000023F4E0630B436B607AE700BF00200240D9
:102210000010024074A600081001002004000020F5
:10222000084B4FF4E0625B6892FAA2F2B2FA82F2D3
:1022300003F4E063D340044AD35C044A1068D840F6
:10224000704700BF0010024084A600081001002063
:10225000084B4FF460525B6892FAA2F2B2FA82F233
:1022600003F46053D340044AD35C044A1068D84056
:10227000704700BF0010024084A600081001002033
:1022800003682DE9F347DF03044623D59B4DEB6933
:10229000DE0000F1D780EB6943F08053EB61EB691E
:1022A00003F080530193019B0126954F3B68D805AD
:1022B00040F1CA802B6A13F4407340F0DA802B6A35
:1022C000626823F4407313432B621EB1EB6923F061
:1022D0008053EB612068C30706D5884AA168136B59
:1022E00023F003030B431363870706D5834AE16892
:1022F000136B23F440330B431363460706D57F4A21
:102300002169136B23F440230B431363850606D521
:102310007A4AE169136B23F010030B4313638103C3
:1023200006D5764A616D536823F480030B435360EE
:10233000420606D5714A216A136B23F020030B4332
:102340001363430306D56D4A616A136B23F04003A0
:102350000B431363070706D5684A6169136B23F4BF
:1023600040130B431363C60606D5644AA169136B79
:1023700023F440030B431363850506D55F4A216BA5
:10238000536823F400030B435360010606D55B4AF0
:10239000A16AD36A23F4F8730B43D362C20506D54E
:1023A000564AE16AD36A23F478530B43D362C304D9
:1023B00006D5524A616B136B23F480730B4313638E
:1023C000870406D54D4A216C136B23F400730B432D
:1023D0001363C60206D5494AA16B136B23F08073C1
:1023E0000B431363850206D5444AE16B136B23F05C
:1023F00000730B431363410206D5404A616C136BB3
:1024000023F480630B431363020206D53B4AA16C9D
:10241000136B23F400630B431363C30106D5374AE0
:10242000E16C136B23F400530B43136310F0007043
:102430001CD0324A216D136B23F400430B4313630A
:10244000002013E0002630E73B6843F480733B60D4
:10245000FEF7E8FD80463B68D9053FF52BAFFEF758
:10246000E1FDA0EB08006428F5D9032002B0BDE827
:10247000F087626802F4407293423FF420AF296A09
:102480004FF4803321F4407093FAA3F2DFF874E044
:10249000B2FA82F2724492000127176093FAA3F312
:1024A000B3FA83F373449B0000221A60CA072862C0
:1024B0007FF505AFFEF7B6FD4FF002088246C14634
:1024C00098FAA8F398FAA8F3A3B12A6A99FAA9F39B
:1024D000B3FA83F303F01F0307FA03F313427FF405
:1024E000EEAEFEF79FFD41F28833A0EB0A00984262
:1024F000E6D9BAE798FAA8F36A6AE7E7001002405B
:1025000000700040008190100368DA6842F0010218
:10251000DA609968064A0A40062A06D0B2F5803F7A
:102520001EBF1A6842F001021A600020704700BF07
:10253000070001000368DA6822F00102DA60196A14
:1025400041F21112114208D1196A40F2444211427B
:1025500002BF1A6822F001021A600020704770471B
:1025600070477047704703681A69910710B50446B1
:102570000FD5DA6892070CD56FF002021A619B69D9
:1025800001229907027700F08580FFF7E9FF002319
:10259000237723681A69520710D5DA6850070DD5DA
:1025A0006FF004021A619B69022213F4407F2277C4
:1025B000204675D0FFF7D4FF0023237723681A69DC
:1025C00011070FD5DA6812070CD56FF008021A61EF
:1025D000DB6904229B072277204667D0FFF7C0FF04
:1025E0000023237723681A69D00610D5DA68D1064C
:1025F0000DD56FF010021A61DB69082213F4407FD9
:102600002277204658D0FFF7ABFF002323772368BB
:102610001A69D20708D5DA68D00705D56FF001022C
:102620001A61204602F00CFB23681A69110608D5CE
:10263000DA68120605D56FF080021A61204600F0B4
:1026400014F923681A69D00508D5DA68110605D58A
:102650006FF480721A61204600F008F923681A6945
:10266000520608D5DA68500605D56FF040021A61A7
:102670002046FFF777FF23681A69910622D5DA68AA
:1026800092061FD56FF0200220461A61BDE8104067
:1026900000F0EAB8FFF763FF2046FFF762FF76E736
:1026A000FFF75DFF2046FFF75CFF85E7FFF757FF69
:1026B0002046FFF756FF93E7FFF751FF2046FFF74D
:1026C00050FFA2E710BD0000324A0368904212D0CA
:1026D000B0F1804F0FD0A2F5943290420BD002F5AA
:1026E0008062904207D002F59632904203D002F504
:1026F000E052904215D14A6823F070031343254AF3
:1027000090421DD0B0F1804F1AD0A2F59432904281
:1027100016D002F58062904212D002F596329042B5
:102720000ED01D4A90420BD002F58062904207D035
:1027300002F58062904203D002F50062904203D11C
:10274000CA6823F4407313434A6923F08003134398
:1027500003608B68C3620B6883620E4B984213D090
:1027600003F5006398420FD003F5406398420BD005
:1027700003F58063984207D003F58063984203D045
:1027800003F50063984201D10B69036301234361A0
:10279000704700BF002C01400040014010B50446C6
:1027A000A0B190F83D3003F0FF021BB980F83C2047
:1027B00002F06AFD022384F83D302068211DFFF7F6
:1027C00083FF012384F83D30002010BD012010BD9F
:1027D00090F83C30012B30B54FF0020340D080F828
:1027E0003D30204D03680122AB4280F83C205A68FE
:1027F0009C6807D005F50065AB4203D005F5E055B0
:10280000AB4203D14D6822F470022A430D6822F0D6
:1028100070022A435A60134A934216D0B3F1804F94
:1028200013D0A2F5943293420FD002F58062934206
:102830000BD002F59632934207D002F540629342E4
:1028400003D002F58052934204D1896824F08002BB
:102850000A439A60012380F83D30002380F83C3021
:10286000184630BD002C0140704770477047036820
:102870001A6822F490721A609A6822F001029A6033
:10288000202383670023036670477047704700006A
:102890000368DA69196870B540F60F0632420446DB
:1028A0009D680AD1960670D58E066ED5036E002BF4
:1028B00000F08E80BDE87040184715F0010002D18D
:1028C00011F4907F61D0D60707D5CD0505D5012538
:1028D0001D62E56F45F00105E567960706D528B14D
:1028E00002251D62E56F45F00405E567550706D52D
:1028F00028B104251D62E56F45F00205E56716075E
:1029000008D58D0600D428B108201862E06F40F089
:102910000800E067100508D54E0106D54FF40060A9
:102920001862E36F43F02003E367E36F002B4FD09F
:10293000950605D5880603D5236E0BB1204698472A
:102940002268E56F92685106204602D415F02805EA
:1029500017D0FFF78CFF23689A6852060DD59A6846
:10296000E06E22F040029A6038B11A4B4363FEF7E2
:102970007BFC68B3E06E436B9CE72046FFF786FF65
:1029800070BDFFF783FFE56770BDD60209D5680209
:1029900007D54FF4801220461A62BDE8704000F05F
:1029A00081BA160605D50D0603D5636E83B12046A0
:1029B00080E750060CD54A060AD51A6822F0400274
:1029C0001A6020236367002363662046FFF75DFFDC
:1029D00070BD00BFD929000808B5406A0023A0F8DF
:1029E0005A30A0F85230FFF751FF08BD02688168E5
:1029F00038B50446C369006915680143606901433D
:102A00007A4819432840014311605168E068256AFB
:102A100021F44051014351609068A16920F4306075
:102A200029430143916072498A4211D1714A724926
:102A3000126B02F00302B3F5004F8A5C5AD0082AE9
:102A400026D8DFE802F0A1A7AA25BD252525C000CC
:102A50006A498A422AD1674A126B02F44032B2F5BF
:102A6000803F00F0B58015D8DAB9B3F5004F40F0DB
:102A70008B80FFF7D5FB6268530803EB4000B0FB87
:102A8000F2F080B2A0F110024FF6EF739A426FD9C4
:102A9000012075E0B2F5003F00F0A080B2F5403FA4
:102AA00046D0B3F5004FF3D01022C8E754498A420C
:102AB0000FD1504A126B02F44022B2F5802F00F081
:102AC0008780D1D9B2F5002F00F08880B2F5402F71
:102AD000E6E74C498A4237D1464A126B02F440126B
:102AE000B2F5801F74D01DD8002ABED0B3F5004FB8
:102AF000CED11022082ACBD801A353F822F000BF70
:102B0000732A00086B2B0008372B0008912A000855
:102B1000D72B0008912A0008912A0008912A000862
:102B2000E32B0008B2F5001F58D0B2F5401FDDD1ED
:102B3000B3F5004F31D16368580800F5740000F513
:102B40001050B0FBF3F09CE72F498A42A0D1294AEC
:102B5000126B02F44002B2F5800F39D084D9B2F57D
:102B6000000F3BD0B2F5400F9AE7FFF771FB82E709
:102B700020F00F032268C0F342001843D060002009
:102B800000232366636638BDFFF74AFB636800EBEA
:102B9000530008E0FFF75CFBF8E76368580800F5AE
:102BA000F40000F59050B0FBF3F080B2A0F11002F9
:102BB0004FF6EF739A423FF66BAF2368D860DEE7BB
:102BC000FFF754FAE2E76368580800F50040EAE7C7
:102BD000B3F5004FF4D1FFF749FA4CE7B3F5004FD6
:102BE000F1D16368580800F58030AAE7F369FFEF78
:102BF00000380140001002407C9B00080044004067
:102C000000480040004C004000500040436ADA0792
:102C100010B506D50168846A4A6822F4003222435E
:102C20004A609C0706D50168C46A4A6822F480326B
:102C300022434A60590706D50168046B4A6822F4AA
:102C4000802222434A601A0706D50168446B4A680D
:102C500022F4004222434A60DC0606D50168846BF8
:102C60008A6822F4805222438A60990606D5016858
:102C7000C46B8A6822F4005222438A605A060FD538
:102C80000168046C4A6822F480122243B4F5801F64
:102C90004A6005D14A68446C22F4C00222434A606B
:102CA0001B0606D50268816C536823F400230B438E
:102CB000536010BD2DE9F041069D04460F461646AF
:102CC00098462168CA6937EA02030CBF0122002234
:102CD000B24202D00020BDE8F081681CF2D0FEF7BD
:102CE000A1F9A0EB080085422068036800D37DB9F4
:102CF00023F4D0730360836823F0010383602023EF
:102D00006367A367002384F870300320BDE8F08177
:102D10005A07D6D5C3691B05D3D54FF400630362A8
:102D2000036823F4D0730360836823F00103836096
:102D300020236367A367E367E4E72DE9F743984639
:102D4000436F202B04460E4691464BD1002947D0B5
:102D5000002A45D090F87030012B43D0012380F831
:102D6000703000252123C5674367FEF75BF9A36830
:102D7000A4F85090B3F5805F0746A4F8529003D1B1
:102D800023690BB935461E46B4F85220CDF80080B1
:102D900092B23B464AB940212046FFF78BFF50B91B
:102DA0002023636784F8700006E00022802120461B
:102DB000FFF780FF18B1032003B0BDE8F08322685D
:102DC0005EB935F8023BC3F308031385B4F85230FB
:102DD000013B9BB2A4F85230D6E716F8013BF4E76A
:102DE0000120E9E70220E7E773B504460026C6673D
:102DF000FEF718F923681B681A07054615D42368DF
:102E00001B685B070AD56FF07E43009300222B46B8
:102E10004FF480012046FFF74DFF90B9202300209A
:102E2000636784F87000A3670CE06FF07E43009343
:102E3000324603464FF400112046FFF73BFF0028BF
:102E4000DDD0032002B070BD10B5044640B3436F1F
:102E50001BB980F8703002F077FA22682423636788
:102E6000136823F0010313602046FFF7BFFD01281C
:102E700016D0636A13B12046FFF7C8FE23685A686C
:102E800022F490425A609A6822F02A029A601A68E4
:102E900042F0010220461A60BDE81040FFF7A4BFCF
:102EA000012010BD70470B88052B70B50D462ED143
:102EB000C378027942EA0322531E9BB240F2CE71DC
:102EC0008B4224D80023467881782B80012303701D
:102ED0002B8812F0070F4FEAD20418BF01340133D8
:102EE000E4B22B8044702B8841EA06210133013182
:102EF0002B8089B20023023001F082FF18B1BDE8B7
:102F0000704000F081B92A8814442C8070BD0320E1
:102F100070BD0B88052B13B51DD10379DBB9C478BF
:102F2000621ED2B2FD2A16D9427881788DF805301A
:102F3000FF2C08BF012341EA02218DF80430013142
:102F400001231A4689B201A801F05AFF28B100F006
:102F50005BF902B010BD0320FBE7FAE70B88052BF5
:102F600010B50C4624D9C378027942EA032212F044
:102F7000070F4FEAD20302F1FF3118BF0133B1F559
:102F8000F66FDBB214D24179994211D1437881783E
:102F900041EA03210131012389B2063001F030FFFB
:102FA00018B1BDE8104000F02FB90522228010BDF5
:102FB000032010BD0B88052B70B50D462DD1C378AD
:102FC000027942EA0322531E9BB240F2CE718B4239
:102FD00023D80023467881782B80022303702B8826
:102FE00012F0070F4FEAD20418BF01340133E4B2E4
:102FF0002B8044702B8841EA0621013301312B805C
:1030000089B2023001F0FEFE18B1BDE8704000F058
:10301000FBB82A8814442C8070BD032070BD08B50D
:103020000B88052B0FD14378817841EA03210131C8
:1030300001231A4689B2033001F0AEFE28B1BDE883
:10304000084000F0E1B8032008BD08BD0B88052B3F
:1030500010B50C461DD9C378027942EA0322531EEB
:10306000772B16D853004179DBB2994211D14378BE
:10307000817841EA03210131012389B2063001F050
:103080008BFE18B1BDE8104000F0BEB805222280CA
:1030900010BD032010BDF8B50B88052B0C4624D1BC
:1030A000027995B26B1E7C2B1FD80326002347782C
:1030B000817823800670268852000136268042706F
:1030C000228841EA072101320131228089B22A4651
:1030D000023001F061FE18B1BDE8F84000F094B88C
:1030E000228802EB45052580F8BD0320F8BD2DE9B7
:1030F000F8430B88092B04460D463CD9C378077961
:1031000047EA03277B1E7C2B38D8C379027A42EA30
:103110000322531E782B31D8437AB3EB420F2DD1C3
:103120004379817990F80190867841EA0321013151
:10313000012389B20A3001F02FFE034608BB172293
:10314000288022702A884FEA470801322A8084F8B2
:1031500001802A8846EA0921013201312A8089B298
:103160003A46A01C01F018FE58B92B889844A5F8DF
:103170000080BDE8F8830020BDE8F8830320BDE8A7
:10318000F883BDE8F84300F03FB80B88052B70B515
:103190000C4624D1C378027942EA0322531E7B2BCA
:1031A0001DD8002346788178238004230370238868
:1031B0005500013323804570238841EA06210133FD
:1031C0000131238089B2023001F0C6FD18B1BDE89B
:1031D000704000F019B822881544258070BD032086
:1031E00070BD000038B5064B1C880D4622460549C7
:1031F0000134013002F08AFA2C80002038BD00BF73
:10320000C0070020A007002007289ABF014B185CC8
:1032100004207047809B000838B5044608461146D4
:103220001A46431EDBB2F62B27D8164B187024BB68
:10323000154B164D1D60164B164D1D60164B174D48
:103240001D60174B174D1D60174B1C60174B184C1A
:103250001C60184B184C1C60184B194C1C609DF8D6
:10326000103000F067F9044628B900F0B5F830B125
:10327000144B01221A70204638BD0224FBE70324B8
:10328000F9E700BFD9070020D00700206D350008FE
:10329000D407002089350008C8070020053600083B
:1032A000C40700209D350008CC070020FC1D00202D
:1032B0007D360008F41D002011370008F81D00209D
:1032C000993700080800002010B5064C2378012B20
:1032D00005D1054B1B6898470020207010BD0620C3
:1032E00010BD00BF08000020D0070020304BF7B50C
:1032F0001C78002C59D10DF1070000F081F801284D
:10330000034601D0002405E09DF80720012A04D0DF
:10331000022A17D0204603B0F0BD264D264B274A7F
:103320001B6827492846984704460028EAD1254AC1
:103330002B7812789A4201D0002BE3D1022000F0C2
:1033400053F8E7E71E4D204E2868204F027833706F
:103350001F4B3A7013F834104FEAC40E31B18A4251
:103360001FD1734415495B6898473070114B1B7827
:10337000002BC7D03178114B59B101221A803A780D
:10338000286862F07F0202701A882868541C1C802A
:103390008154104A296814681A880A4B1878A04783
:1033A000B0E70134102CD5D1E0E70624B2E700BF26
:1033B00008000020E0070020C4070020E2070020EA
:1033C000DC070020D9070020C2070020D807002012
:1033D0000C000020C8070020024B00221A700120B8
:1033E000704700BFE5070020034A01231370034A1A
:1033F00010701846704700BFE5070020E407002062
:10340000054A13782BB1054B1B780370002313700A
:1034100001231846704700BFE5070020E40700209D
:103420000A4B58B11868026842F0200202601A681C
:10343000136841B143F08003136070471868026855
:1034400022F02002F2E723F08003F5E7C41F0020FA
:103450000120704707B502A90A2301F8010D0122D6
:103460000448FFF76AFCB0FA80F0400903B05DF849
:1034700004FB00BFC41F0020024B1B689B8C037021
:1034800001207047C41F00207FB5114D114B2B60E8
:103490000646FEF7C5FE104BB0FBF3F031230138B2
:1034A000EB600E4B686000242846AC601E80FFF77E
:1034B00075F958B92023039001A928460193FFF715
:1034C00087F9B0FA80F0400904B070BD2046FBE7F0
:1034D000B03100200014004040420F00E8070020F7
:1034E000034B04481A88044B1A80FFF70DB800BF3D
:1034F000E8070020B0310020E60700200148FFF770
:1035000019B800BFB031002070B5FF23074D084E39
:1035100001441C46884202D143EA042070BD10F8E1
:10352000012B5A40AB5C6340B45CF3E7889B000816
:10353000889C000810B51446084608222146FFF76B
:1035400087FF01280CD1B4F5964F97BF064823207A
:103550006400B0FBF4F080B2FFF796FF012801D0C1
:10356000032010BD002010BDA07F170008B5054B3B
:10357000002101201970FFF753FFBDE80840FFF755
:10358000AFBF00BFEA07002008B500210846FFF7DB
:1035900047FFBDE80840FFF7B1BF00002DE9F0414B
:1035A000134D2B889BB2FF2B80460E46174605D93C
:1035B000104B114A11489C2102F04EF82B889BB207
:1035C000032B02D80520BDE8F08129880C4C89B274
:1035D0002046FFF799FF0028F4D114F8012B298821
:1035E00088F80020033939803460BDE8F08100BFDD
:1035F000F0070020CF9D0008889D0008F49D00087A
:10360000081E002038B5034617480578EDB2012D95
:1036100027D1164C481E2060154C258001F8013C2E
:10362000238812FA83F292B22280218889B2FFF7AE
:103630006BFF23880F499BB25A1C92B22280C2B200
:10364000CA5423889BB25A1C92B2C0F3072022802E
:10365000C854094B294600201D70FFF7E1FE0020E9
:1036600038BD052038BD00BFEA070020EC07002068
:10367000F2070020081E0020EB0700201D4B1B78DE
:1036800007B52BB11C4B1D4A1D48E62101F0E4FF94
:103690000DF10700FFF7F0FE1A4B1A78032A22D823
:1036A000DFE802F01F02111F174900220A800A8872
:1036B00092B2501C80B2088014499DF807008854CB
:1036C00002221A700DE0104A118889B2FF290ED823
:1036D00013889BB2591C89B211800C4A9DF80710BF
:1036E000D154FFF7FDFE002003B05DF804FB032278
:1036F000E7E700BFEB070020159E0008969D000835
:10370000F49D0008EA070020F0070020081E0020B2
:10371000F8B51A4B1878C0B2012806D0184B194AD0
:10372000194840F2211101F097FF184F3B7803F040
:10373000FF061BB1012E05D000251DE03146FFF725
:103740006FFEF9E7124D2C88A4B264B1114C2368C6
:103750001878FFF77FFE2368013323602B88013B35
:103760009BB22B80E8E70320FFF73EFE214605468B
:103770003046FFF755FE3C702846F8BDEA070020AA
:10378000939E0008A79D0008F49D0008EB07002009
:10379000F2070020EC07002038B5144B1878C0B2AF
:1037A00002281D460BD003281DD050B9FFF71CFE80
:1037B0000446FFF7A3FE01232B70204638BD0120ED
:1037C000F4E71A7802F0FF04002AF2D01A78022AED
:1037D00009D01B78032B06D0054B064A064840F259
:1037E0005B1101F039FF0024E3E700BFEA07002086
:1037F000309E0008B99D0008F49D000808B500F04F
:1038000049FB002008BD7FB5B0F908408669026910
:103810000B4690E82200842C02964069019014BF68
:10382000033400240094284600F058FA04B070BD18
:1038300008B5002808BF012000F074FC002008BD76
:1038400000F1080343604FF0FF32C36003610023BF
:1038500082600360704700230361704743684B60D8
:103860009A688A609A6851609960036808610133B8
:10387000036070470A68531C30B50AD103695A685F
:103880004A6091608B60596003680861013303608E
:1038900030BD00F108035C682568AA42EFD32346D7
:1038A000F9E74168826803698A60826851605968F3
:1038B000884208BF5A60002202611A68013A1A6001
:1038C0001868704782B0002301930D4B1B680133C9
:1038D00008D04FF0500383F31188BFF36F8FBFF30D
:1038E0004F8FFEE74FF0500383F31188BFF36F8FC4
:1038F000BFF34F8F019B002BFCD002B0704700BF7D
:103900008C00002008480068006880F308884FF0A9
:10391000000080F3148862B661B6BFF34F8FBFF327
:103920006F8F00DF00BF000008ED00E0DFF80C0043
:10393000016841F4700101607047000088ED00E00B
:103940004FF0807340F8043C074B40F80C3C21F0EA
:1039500001016FF0020340F8081C40F8202C40F8E9
:10396000243C4438704700BFC53800080000000000
:10397000074B19680868B0E8F04F80F30988BFF377
:103980006F8F4FF0000080F311887047AFF3008015
:10399000FC0700204FF0500383F31188BFF36F8FB3
:1039A000BFF34F8F0A4A13680133012B13600DD107
:1039B000084B1B6813F0FF0F08D04FF0500383F340
:1039C0001188BFF36F8FBFF34F8FFEE7704700BFC3
:1039D0008C00002004ED00E0084A136843B94FF062
:1039E000500383F31188BFF36F8FBFF34F8FFEE750
:1039F000013B13600BB983F3118870478C000020E2
:103A0000EFF30980BFF36F8F154B1A681EF0100F8C
:103A100008BF20ED108A20E9F04F10602DE9090061
:103A20004FF0500080F31188BFF34F8FBFF36F8FBB
:103A300000F09CFB4FF0000080F3118809BC19686E
:103A40000868B0E8F04F1EF0100F08BFB0EC108A05
:103A500080F30988BFF36F8F704700BFAFF300801A
:103A6000FC07002008B54FF0500383F31188BFF323
:103A70006F8FBFF34F8F00F04BFA18B1034B4FF02D
:103A800080521A60002383F3118808BD04ED00E022
:103A9000084A0949002313600B60084B4FF47A7100
:103AA0001B68B3FBF1F30649013B0B60072313606E
:103AB000704700BF10E000E018E000E010010020B7
:103AC00014E000E0394B3A4A13B51968914208D125
:103AD0004FF0500383F31188BFF36F8FBFF34F8F05
:103AE000FEE71A68334B9A4208D14FF0500383F334
:103AF0001188BFF36F8FBFF34F8FFEE72E4B1A78FD
:103B0000D2B20192FF221A701B782C4ADBB28DF8D8
:103B100003309DF8033003F050031370284B072245
:103B20001A6000219DF80300000602F1FF340DD455
:103B300001B11A601A68032A11D04FF0500383F3C1
:103B40001188BFF36F8FBFF34F8FFEE79DF80320FF
:103B50005200D2B28DF8032001212246E2E7120280
:103B600002F4E0621A60019B134ADBB21370154B3A
:103B70001A6842F470021A601A6842F070421A60C1
:103B8000FFF786FF104B00241C60FFF7CFFE0F4AA3
:103B9000136843F040431360FFF7B4FE00F0E6FA09
:103BA000FFF790FE204602B010BD00BF00ED00E020
:103BB00071C20F4170C20F4100E400E0F407002021
:103BC000F807002020ED00E08C00002034EF00E03A
:103BD00080B5114E114F124C124D23685BB9124B38
:103BE0001B68012BF8D94FF080533360BFF34F8F20
:103BF000BFF36F8FEFE7FFF7CDFEFB68D8680430A7
:103C0000FFF74FFE2B68013B2B602368013B2360CD
:103C1000FFF7E2FEE1E700BF04ED00E00809002045
:103C2000980800209408002008080020064A13681D
:103C30001968064B19B94FF0FF321A6070471268C5
:103C4000D268D2685268F8E700080020D408002043
:103C5000F8B51B4B1B4E1D680446306804300F46F8
:103C6000FFF71FFE334640B93168174EC96A326804
:103C70000120884022EA00023260621C07D137B17D
:103C8000196812480431BDE8F840FFF7E7BD2C443D
:103C90001A68A542546007D90D4A10681968BDE832
:103CA000F8400431FFF7E6BD0A4A1068196804318C
:103CB000FFF7E0FD084B1A68944238BF1C60F8BD5E
:103CC0001C090020FC070020A8080020F4080020A0
:103CD0000408002000080020D40800202DE9F34744
:103CE00080460B980C9C994640B94FF0500383F3E3
:103CF0001188BFF36F8FBFF34F8FFEE744B94FF0CA
:103D0000500383F31188BFF36F8FBFF34F8FFEE72C
:103D100054230193019B542B08D04FF0500383F39D
:103D20001188BFF36F8FBFF34F8FFEE702F180461C
:103D3000013E206300EB86004B1E20F0070604F1D5
:103D400034020F31587802F8010B13F8010F08B153
:103D50008B42F7D10A9D062D28BF06254FF0000A99
:103D6000271DE5626564384684F843A0C4F848A07E
:103D7000FFF771FDC5F1070504F11800FFF76BFDB2
:103D80004A464146A561C4F84CA0304624616462AD
:103D900084F850A0FFF7D4FD2060FFF7FBFD2F4B08
:103DA0002F4D1A68DFF8E48001321A602E68002E69
:103DB00048D12C601B68012B1DD108EB060014367E
:103DC000FFF73EFD8C2EF8D1DFF8C490254E484613
:103DD000FFF736FD3046FFF733FD2348FFF730FD90
:103DE0002248FFF72DFD2248FFF72AFD214BC3F89B
:103DF0000090214B1E60214A214913680868013355
:103E00001360E26A01239340034314200B6000FB1C
:103E100002803946FFF722FDFFF7DEFD194B1B68D4
:103E200063B12B68DA6AE36A9A4207D2164B4FF005
:103E300080521A60BFF34F8FBFF36F8F204602B0DE
:103E4000BDE8F0870F4B1B68002BD4D12B68DA6AD2
:103E5000E36A9A4298BF2C60CDE700BF9408002027
:103E6000FC070020C0080020DC0800200809002012
:103E7000F40800200008002004080020A408002006
:103E8000A8080020F008002004ED00E00808002049
:103E9000AC08002010B588B0002407AA06A905A820
:103EA0000594069400F008FB059B0293069B019382
:103EB00000942346079A0D490D48FFF70FFF90B174
:103EC0004FF0500383F31188BFF36F8FBFF34F8F11
:103ED000084B4FF0FF321A60074B01221A60074B64
:103EE0001C60FFF7EFFD08B010BD00BFA99E0008E1
:103EF000D13B0008D4080020F00800201C09002055
:103F0000024A136801331360704700BFA008002005
:103F10002DE9F84F3C4B1B68002B53D13B4B1C68E1
:103F200001341C60BCB93A4B1A68126842B14FF0B8
:103F3000500383F31188BFF36F8FBFF34F8FFEE7FA
:103F4000344A1968106818601160334A13680133E5
:103F50001360FFF76BFE314D314F2B689C424FF0E1
:103F6000000B3ED3DFF8A880DFF8C490D8F800201B
:103F7000126872BB4FF0FF322A6032E006F1040A89
:103F80005046FFF78EFCB16A19B106F11800FFF731
:103F900088FCF06AD9F80030012202FA00F11943D6
:103FA000204BC9F800104FF0140E51460EFB0030A4
:103FB000FFF754FC3868F16AC26A914228BF4FF09B
:103FC000010BD3E7184A1368013313604FF0000B5D
:103FD00011E0D8F80020D268D66871688C42CDD242
:103FE00029603A680F4BD16A14224A439A58022A30
:103FF00028BF4FF0010B0D4A1268002A18BF4FF07E
:10400000010B5846BDE8F88FA00800201C090020CD
:104010000008002004080020D8080020D408002050
:10402000FC070020080800209C0800202009002030
:10403000A80800202DE9F843314C236843B94FF01C
:10404000500383F31188BFF36F8FBFF34F8FFEE7E9
:10405000FFF7A0FC2368013B236024682CB10024F7
:10406000FFF7BAFC2046BDE8F883264B1B68002BFF
:10407000F5D0DFF8A890244FDFF8A480D9F80030FD
:10408000E3B90CB1FFF7D2FD204D2C6844B1204EAE
:104090000127FFF73DFF00B13760013CF9D12C60EB
:1040A0001B4B1B68002BDAD01A4B4FF080521A6062
:1040B000BFF34F8FBFF36F8F0124D1E7D9F80C30D6
:1040C000DC68261D04F11800FFF7EBFB3046FFF714
:1040D000E8FBE26A3968012505FA02F314200B4374
:1040E00000FB028031463B60FFF7B8FB0A4BE26AF7
:1040F0001B68DB6A9A4224BF054B1D60BEE700BF08
:10410000A008002094080020A80800209C08002097
:104110002009002004ED00E0FC070020DC0800205E
:104120000808002008B540B90E4B4FF080521A60C5
:10413000BFF34F8FBFF36F8F08BD0B4B196841B1B1
:104140004FF0500383F31188BFF36F8FBFF34F8F8E
:10415000FEE7FFF7D5FEFFF77BFDFFF76BFF0028BB
:10416000E2D008BD04ED00E0A0080020174B1A685B
:10417000174B10B512B101221A6010BD1A60154B11
:104180001B68B3FA83F3DBB2C3F11F031422124995
:104190005A4388188C5844B94FF0500383F3118860
:1041A000BFF36F8FBFF34F8FFEE744680832646838
:1041B00044600A44944204BF62684260142202FBD5
:1041C00003135B68DA68054BD6E700BFA008002040
:1041D00020090020A808002008080020FC07002073
:1041E000054B1B6833B1054B1B68002B0CBF02202D
:1041F0000020704701207047F0080020A008002030
:104200007FB506AA1F2302F8043D4FF4FA73029308
:1042100001238DE80C0098211A46FDF7C9FA07B072
:104220005DF804FB7FB506AA002302F8013D40F2C9
:10423000DC53029301238DE80C0098210222FDF744
:10424000B7FA07B05DF804FB2DE9F04786B006AE7B
:10425000002406F8014D80460D4627464FF47A7932
:104260004FF0010A05B11CB1384606B0BDE8F08731
:10427000224601239821CDF808908DE8400440465D
:10428000FDF74EFB9DF8174007460A3D0A2004F053
:104290000404FCF7CDFEADB2E4E70000000000002E
:1042A0002DE9F04186B0012505AB4FF47A760093F5
:1042B0000F46029601952B460E2298218046FDF767
:1042C0002FFB044638BB0DF11503009302960195B0
:1042D0002B460F2298214046FDF722FB0446D0B919
:1042E0009DF814309DF8150040EA0320C0F30D003E
:1042F000FCF720F90BA3D3E90023FCF781F90BA30A
:10430000D3E90023FCF7A6FA0022054BFBF7C6FF12
:10431000FCF76EFC3860204606B0BDE8F08100BFB7
:10432000000004407B14AE47E1127340000000001F
:1043300080842E41000000002DE9F04186B0012567
:1043400005AB4FF47A7600930F46029601952B4603
:10435000082298218046FDF7E3FA044638BB0DF1A8
:1043600015030093029601952B4609229821404699
:10437000FDF7D6FA0446D0B99DF814309DF8150023
:1043800040EA0320C0F30D00FCF7D4F80AA3D3E9F8
:104390000023FCF735F90AA3D3E90023FCF75AFA06
:1043A00002460B46FBF77AFFFCF722FC38602046FA
:1043B00006B0BDE8F08100BF7B14AE47E112734048
:1043C0000000000080842E412DE9F04186B00125D7
:1043D00005AB4FF47A7600930F46029601952B4673
:1043E000062298218046FDF79BFA044638BB0DF162
:1043F00015030093029601952B460722982140460B
:10440000FDF78EFA0446D0B99DF814309DF81500DA
:1044100040EA0320C0F30D00FCF78CF80AA3D3E9AF
:104420000023FCF7EDF80AA3D3E90023FCF712FA06
:1044300002460B46FBF732FFFCF7DAFB38602046FA
:1044400006B0BDE8F08100BF7B14AE47E1127340B7
:104450000000000080842E4170EE607A10B517EEE7
:10446000900A0C46FCF778F80022094BFCF7C8F8D4
:1044700005A3D3E90023FCF7EDF9FCF7B9FB2060B5
:1044800010BD00BFAFF30080000000400AD7C33F5B
:1044900000408F4011B91146FFF702BF012902D138
:1044A0001146FFF791BF042902D11146FFF744BF1F
:1044B0000023136000207047034B0360034B0B6025
:1044C0004FF48063136070472419002024090020F2
:1044D00030B5A7B02822002106A801F022F9142245
:1044E000002101A801F01DF95822002110A801F0B7
:1044F00018F90123099310230A934FF4004302256E
:104500000D9306A84FF4E0130E9306950C95FDF756
:1045100011FB0F230024019329464FF4806301A867
:104520000493029503940594FDF7CCFD054B10937D
:1045300010A812941394179422942394FDF7A0FECC
:1045400027B030BD230080012DE9F0478EB0FCF785
:104550004BFDFFF7BDFF1422002107A801F0E1F891
:10456000944B954D5A6942F400225A615A6902F4FB
:1045700000220392039A5A6942F480025A615A69EE
:1045800002F480020492049A5A6942F400325A6199
:104590005A6902F400320592059A5A6942F480225F
:1045A0005A615B6903F48023069300224FF484610F
:1045B0004FF09040069BFCF751FF00224FF48161C1
:1045C0007E48FCF74BFF4FF400530024079307A9E4
:1045D0007B4B7C48089301260994FCF769FE4FF455
:1045E000846307A94FF090400793089609940A94B2
:1045F000FCF75EFE4FF4816307A9704807930896A5
:1046000009940A94FCF754FE4FF44073079307A9EA
:104610006D4B08934FF090400996FCF749FE2246F7
:1046200005211720FCF72AFD1720FCF75BFD674BDF
:104630002B602846079408940994FCF777FD07A996
:1046400022462846624D07940894FCF7BCFD614A57
:10465000614BEE60284685E80C00AC602C616C6113
:10466000AC61EC612C62FDF752F8214628465B4EA6
:10467000FDF714FA21462846FDF736FA584BB46088
:1046800048F6A04A40F6C418304686E80804C6F842
:104690000C80B461079408940994FEF77FF807A989
:1046A000304607940994FEF793F84E484E4B4F4E10
:1046B00084604FF416474FF00C0980E88800C4600E
:1046C0000461C0F814908461C46104624462FEF71E
:1046D000BBFB474BB460304686E81800F460B46119
:1046E000079408940994FEF759F807A93046414EFB
:1046F00007940994FEF76CF83F4BB460304686E8A7
:104700000804C6F80C8034617461B461FEF746F8A1
:104710003A483B4B846080E80804C0F80C80046190
:1047200044618461FEF73AF83648374B846080E88C
:104730008800C4600461C0F814908461C46104629C
:104740004462FEF781FB00F0A7FB204600F070FBFF
:104750002846FFF755FD3046FDF7D6FE2B4A2C4E76
:104760000B23138016235380212393802C23D38083
:1047700037231381422353814D2393815823D381BF
:104780000A213B46224600942046FEF745FDFEF7EF
:104790009BFD0FCE07AD0FC596E8070085E8070023
:1047A000214607A8FFF72FF81A4B1860FFF726F8E5
:1047B000FEE700BF001002400C1F0020000400486C
:1047C0000000111000080048000021100074004093
:1047D000201F0020005400400E090020502000201F
:1047E00000100040F030002000440040B0310020B4
:1047F000001400407031002000440140781F002068
:1048000000480140C41F002000380140A0190020CA
:10481000409B0008081F002037B5134C02AD002351
:1048200045F8043D20460093FFF7FCFC6421204638
:10483000FFF70AFD2A460D4D00212046FFF72AFE0C
:104840002A4601212046FFF725FE6A46042120461C
:10485000FFF720FE0649DDED000A95ED000A20462F
:10486000FFF7FAFD03B030BD201F0020881900209B
:104870008C19002010B5544C04210F2000F0FAFBD5
:10488000012394E80600514800F0DEFB04213420A7
:1048900000F0F0FB4E4B1B78002B40F0868094E834
:1048A00006004C48012300F0CFFB4B4B4B49D3EDA6
:1048B000007A4B48FDEEE77A17EE902A00F03AFFB7
:1048C0000E210F2000F0D6FB94E806000123454896
:1048D00000F0BAFB0E21342000F0CCFB94E8060077
:1048E00001233F4800F0B0FB3F4B4049D3ED007A35
:1048F0003F48FDEEE77A17EE902A00F01BFF1921E2
:104900000F2000F0B7FB94E806000123394800F0BF
:104910009BFB1921342000F0ADFB94E80600012335
:10492000334800F091FB344B3449D3ED007A3448DE
:10493000FDEEE77A17EE902A00F0FCFE25210F200D
:1049400000F098FB94E8060001232E4800F07CFB61
:104950002521342000F08EFB94E80600012328482E
:1049600000F072FB284B2949D3ED007A2848FDEE70
:10497000E77A17EE902A00F0DDFE31210F2000F0DB
:1049800079FB94E806000123224800F05DFB312109
:10499000342000F06FFB94E8060001231C4800F06F
:1049A00053FBBDE8104000F051BA012B03D194E84D
:1049B0000600194877E7022B94E806004FF0010340
:1049C0000CBF164816486EE7900000202EA600087F
:1049D00081190020A99E0008841900203BA6000828
:1049E0004420002042A600087C19002049A60008A7
:1049F0009030002050A600088C19002056A6000810
:104A0000B81F00205EA600088819002064A60008D0
:104A10006C1F00206BA6000837A6000836A6000809
:104A200072A60008224B23491B7830B5224C238004
:104A3000224BD3ED007AFDEEE77A85B0002517EE24
:104A4000902A01A801950295ADF80C5000F072FE75
:104A50009DF805209DF80430A58143EA0223638078
:104A60009DF807209DF80630258243EA0223A380A3
:104A70009DF809209DF8083043EA0223E3809DF861
:104A80000B209DF80A3043EA022323819DF80D2074
:104A90009DF80C3043EA02236381094BD3ED007A81
:104AA000FCEEE77A17EE903AE38105B030BD00BF27
:104AB0008119002026A60008A019002084190020D2
:104AC0008819002038B5104B104C1B78104D2DED77
:104AD000028B9FED108AF0EE088A63B900F0FEFAAF
:104AE000C0EE087A84ED000A67EEA87AC5ED007A78
:104AF000BDEC028B38BD95ED007AC7EE287A67EEE3
:104B0000887AC4ED007AF3E7811900207C1900202F
:104B1000781900200000C84208B50D4E0D4C0E4D0E
:104B2000FFF77AFED6ED000A94ED000AFFF7CAFF00
:104B300094ED000A00F0A4FA85ED000AFFF79AFE52
:104B4000FFF770FFFEF7D2FB0120FEF771FEE7E7EB
:104B5000781900208819002084190020B0F5807F82
:104B600002D0B0F5007F02D10148FDF7CDBC7047FF
:104B70005020002000000000642838B528BF6420C1
:104B80000546FBF7D7FC00220F4B104CFBF762FEEB
:104B90000BA3D3E90023FBF733FDFCF709F8002250
:104BA000034611462046FCF7D5FA094B1D702046F6
:104BB0000021BDE83840FCF7DFBA00BFAFF300804A
:104BC0000000000000FEAF40000059400C1F002014
:104BD0008019002008B5054801224FF48061FCF7D8
:104BE0003DFC0020BDE80840FFF7C6BF00040048B8
:104BF000012802464FF4806118BF00220148FCF7EB
:104C00002DBC00BF000400480C4B10B504461870C2
:104C100030B9FFF7EDFF2046BDE81040FFF7ACBF0D
:104C2000012803D1BDE81040FFF7D4BF022804D10A
:104C30000020FFF7DDFF0A20EEE710BD81190020FC
:104C400038B53D4B98425CD108213C483C4CFCF7C0
:104C50000AFC4FF400714FF09040FCF7F9FB80BB69
:104C60004FF480714FF09040FCF7F2FB054640BBDB
:104C700022787AB901224FF484614FF09040FCF71A
:104C8000EDFB01232370FFF7A5FF2B48BDE838405B
:104C9000FDF750BC012A09D14FF090404FF48461D8
:104CA000FCF7DCFB0220FFF7AFFFEEE7022AFAD1A8
:104CB00002464FF484614FF09040FCF7CFFB28464A
:104CC000F1E72378022B0DD14FF400714FF09040A3
:104CD000FCF7BEFB30B91B4B18780A30C0B2FFF7A7
:104CE0004BFFD2E72378022BCFD14FF480714FF0E6
:104CF0009040FCF7ADFB0028C7D1124B18780A385A
:104D0000ECE7114B984216D10D4B1B78013B012B60
:104D100011D80E4BDFED0E7AD3ED000AB7EE000A84
:104D2000C0EEA70A00F0D0F90A4BD3ED007A37EEB7
:104D3000800A83ED000A38BD50200020000400489E
:104D40008119002080190020703100208C1900206A
:104D500000007A4478190020B1F57A7F10B517D396
:104D60008C1840F2F1339C4212DC0A4B03EB4101F8
:104D7000A1F2D27102300AB9104610BD31F8023FDB
:104D800000F8013C1C0A013A00F8024C92B2F1E72B
:104D9000012010BDA0190020B1F5FA6F10B52BD37A
:104DA0008C18B4F5FB6F27DC9BB1012B18D1134B8A
:104DB00003EB4101A1F6A27102308AB110F8024C56
:104DC00010F8013C013A43EA042321F8023F92B271
:104DD000F2E70A4B03EB4101A1F6A27102300AB9D6
:104DE000002010BD31F8023F00F8013C1C0A013AD6
:104DF00000F8024C92B2F1E7012010BD901900209A
:104E000001207047012070477FB506AA0A2302F8E7
:104E1000010D029301238DE80C0078210022034844
:104E2000FCF7C6FC07B05DF804FB00BF201F0020A4
:104E300005490023021C18BF012252425A54013373
:104E4000B3F5806FF6D17047B81900207FB5104ECA
:104E5000104D0024A4F15000C0B2FFF7D5FF002090
:104E6000FFF7D2FF1020FFF7CFFF642302938023C8
:104E7000019306EBC41300934022012378212846B6
:104E80000134FCF795FC082CE4D104B070BD00BFE0
:104E9000B8190020201F002008B56420FCF7C8F8CE
:104EA000AE20FFF7B1FF2020FFF7AEFF1020FFF785
:104EB000ABFFB020FFF7A8FFC820FFF7A5FF002039
:104EC000FFF7A2FF1020FFF79FFF4020FFF79CFF96
:104ED0008120FFF799FFFF20FFF796FFA120FFF742
:104EE00093FFA620FFF790FFA820FFF78DFF3F203C
:104EF000FFF78AFFA420FFF787FFD320FFF784FF87
:104F00000020FFF781FFD520FFF77EFFF020FFF79D
:104F10007BFFD920FFF778FF2220FFF775FFDA200B
:104F2000FFF772FF1220FFF76FFFDB20FFF76CFF28
:104F30002020FFF769FF8D20FFF766FF1420FFF7A1
:104F400063FFAF20FFF760FF0020FFF771FFFFF75F
:104F50007DFF034B0120002258711A805A8008BD42
:104F6000B2190020030630B51BD43F2919D80D4BC8
:104F70001B7913B1B2FA82F25209CB088025012ABB
:104F8000094C01F0070105FB030004D18A40215CB4
:104F90000A43225430BD01228A40215C21EA0201E9
:104FA000215430BDB2190020B81900202DE9F04F6E
:104FB00087B0074606A800E906009B46214B9DF8EE
:104FC00010901C88019304EB09027F2A37DC5B8870
:104FD0009DF811A0009303EB0A023F2A2FDCA7F1F2
:104FE00020020AFB02F303930026564506D3019BD9
:104FF0004C441C80384607B0BDE8F08F039B0599F0
:10500000F218002531F812300293009B03EB0608DA
:105010005FFA88F84D4501D30136E6E7029B03FAB3
:1050200005F2130405EB040056BFBBFA8BF25A4697
:1050300052094146C0B2FFF795FF0135EAE7002764
:10504000D8E700BFB2190020F7B58DE806006D461D
:105050001F46461E74784CB120463B4695E8060034
:10506000FFF7A4FF16F8014FA042F3D0204603B08B
:10507000F0BD0000014B188059807047B219002024
:10508000DFED0E7A9FED0E7ADFED0E6A70EE677A35
:10509000F4EE477AF1EE10FA48BFF0EE477A87EE69
:1050A000A67AF3EE047AB4EE677AF1EE10FAC8BF8E
:1050B000B0EE677A27EE000A704700BF3333334003
:1050C000000000000AD7A33C20EEC00ADFED027A00
:1050D00080EE270A704700BF00006145024A03487E
:1050E0000F2100F005B800BFD40000209800002078
:1050F000D0ED007AF4EEC07AF1EE10FA10B502DDD0
:1051000092ED000A10BD01F18044013CA400031996
:10511000D3ED007AB4EEE70AF1EE10FA28DC041DB4
:10512000002301398B4203F1010306DAF4EC017A22
:10513000B4EEE70AF1EE10FAF4D59B00191F4418FB
:1051400011441A4494ED006AD1ED006AD2ED007A60
:10515000034430EE460A77EEE67A93ED007A67EE86
:10516000807A37EE467A87EE870A30EE260A10BD3F
:105170002244C5E70E4B07B59A6942F001029A61D5
:105180009A6902F001020092009ADA6942F08052B4
:10519000DA61DB6903F08053019300220F216FF085
:1051A0000100019BFBF76AFF03B05DF804FB00BF41
:1051B0000010024010B5044688B01422002103A854
:1051C00000F0AFFA2268154B9A4224D103F5CE3392
:1051D00003A9DA6942F00052DA61DA6902F000529A
:1051E0000192019A5A6942F400325A615B6903F4F0
:1051F00000330293029B102303934FF0904003234C
:105200000493FCF755F8362000220521FBF736FF02
:105210003620FBF767FF08B010BD00BF00740040E8
:1052200010B5044688B01422002103A800F079FAD2
:105230002268124B9A421FD1114C1248636943F401
:1052400080236361636903F480230193019B4FF41E
:1052500040730393122304930323069303A90423A7
:105260000793FCF725F8E36943F40013E361E3696E
:1052700003F400130293029B08B010BD00540040D9
:1052800000100240000400481FB50368294A9342F9
:1052900014D1294BDA6942F01002DA61DB6903F0BC
:1052A00010030093362000220521009BFBF7E6FE49
:1052B0003620FBF717FF05B05DF804FB1F4A934249
:1052C00010D11D4BDA6942F02002DA61DB6903F08C
:1052D00020030193372000220521019BFBF7CEFE1E
:1052E0003720E6E7164A934210D1134B9A6942F4ED
:1052F00000329A619B6903F4003302931920002263
:105300000521029BFBF7BAFE1920D2E70D4A934212
:10531000D1D1094B9A6942F480229A619B6903F4C6
:10532000802303931A2000220521039BFBF7A6FE8E
:105330001A20BEE700100040001002400014004098
:10534000004401400048014010B514228AB00446D0
:1053500000210DEB020000F0E4F92368274A934294
:1053600028D1274B27489A6942F480429A619A696A
:1053700002F480420192019A5A6942F400225A6171
:105380005B6903F400230293029B302305930223FD
:1053900006930323089305A907230993FBF788FFC6
:1053A000252000220521FBF769FE2520FBF79AFE48
:1053B0000AB010BD144A9342FAD1114BDA6942F493
:1053C0000032DA61DA6902F400320392039A5A6910
:1053D00042F400325A615B6903F400330493049B86
:1053E0000C230593022306930323089305A907239F
:1053F0004FF090400993FBF75BFFD9E7003801407D
:1054000000100240000800480044004070471EF0B1
:10541000040F0CBFEFF30880EFF309808169004AA5
:10542000104721550008FEE7FEE7FEE7FEE770475C
:1054300008B5FBF7EBFDFEF7D3FE012803D0BDE86E
:105440000840FEF70FBB08BD08B54FF48070FCF7AD
:1054500011F84FF40070BDE80840FCF70BB80000ED
:105460000148FDF780B800BF703100200148FDF70A
:105470007AB800BF781F002010B50F4C2368D96997
:105480001A68880608D5910606D50C4B1B68984704
:10549000236801221A6210BDDA69120607D51B685B
:1054A0001B0604D5064BBDE810401B681847024890
:1054B000BDE81040FDF7ECB9C41F0020FC1D002022
:1054C000F41D002008B50448FDF74DF80348BDE879
:1054D0000840FBF799BE00BF502000200C1F0020A1
:1054E00008B50C4B1B681A69D1070ED5DA68D207CC
:1054F0000BD56FF001021A61074A1388013B9BB27A
:10550000138013B9054B1B6898470248BDE8084053
:10551000FDF729B8B0310020E6070020F81D002073
:1055200088B0036800934368019383680293C3685B
:105530000393036904934369059383690693C369DD
:105540000793FEE70120704708B500F0A3F8162383
:1055500003604FF0FF3008BD08B500F09BF816233C
:105560000360FEE770B50E4615460C46A31B9D4230
:1055700001DC284670BDAFF3008004F8010BF5E7AD
:1055800070B50E4615460C46A31B9D4201DC28460D
:1055900070BD14F8010BAFF30080F5E708B50A4BB6
:1055A0001968024609B90949196018686946024430
:1055B0008A4206D900F06EF80C2303604FF0FF30EA
:1055C00008BD1A6008BD00BFB81D002000320020D1
:1055D0004FF0FF3070474FF400534B60002070478E
:1055E0000120704700207047054BD3F8882042F413
:1055F0007002C3F888204FF000629A60704700BFC5
:1056000000ED00E0DFF834D0002103E00C4B5B58E4
:10561000435004310B480C4B42189A42F6D30B4AC4
:1056200002E0002342F8043B094B9A42F9D3FFF70A
:10563000DBFF00F047F8FEF787FFFEE700000120E0
:10564000D0A9000800000020840700208407002063
:1056500000320020FEE700001FB51C46094B1B6806
:105660000546D86852B1084B02928DE80A002246DE
:105670002B46064900F014F801F090FD044B1A4641
:10568000F2E700BF140100208CA6000899A60008CC
:10569000C7A60008014B1868704700BF140100201E
:1056A0000EB403B5014603AB054853F8042B00685C
:1056B000019301F06FF802B05DF804EB03B070479E
:1056C0001401002070B50D4E0D4CA41BA410002534
:1056D000A54209D10B4E0C4C04F024FAA41BA410D3
:1056E0000025A54205D170BD56F8253098470135F3
:1056F000EEE756F8253098470135F2E7C8A90008CB
:10570000C8A90008C8A90008CCA9000810B5431E04
:105710000A44914200D110BD11F8014B03F8014F2A
:10572000F7E702440346934200D1704703F8011B98
:10573000F9E700000EB400B59CB04FF402711DAB48
:10574000ADF81410029006906FF000410A480491E1
:1057500007914FF6FF7153F8042BADF8161000684F
:10576000019302A900F00CF8029B00221A701CB0F1
:105770005DF804EB03B07047140100200000000046
:105780002DE9F04FBDB08A4615461F46834603F00B
:1057900005F803680D931846FAF772FDBAF80C3055
:1057A00008901B0618D5DAF81030ABB940215846DE
:1057B00003F07AF8CAF80000CAF8100048B90C23C0
:1057C000CBF800304FF0FF33099309983DB0BDE8A6
:1057D000F08F4023CAF814309FED997B8DED067B46
:1057E00000232CAC1F9421932093059503931193D0
:1057F00010930993059D2B4613F8012B12B1252A0E
:1058000040F08380059BEE1A0DD084E84800219B70
:1058100033442193209B0133072B209377DC0834FA
:10582000099B334409932B78002B00F02987002330
:10583000691C8DF85F301A464FF0FF390A931D46F8
:105840000A204E1C097805960291029920395829A0
:1058500000F21884DFE811F0A60016041604AB006D
:10586000160416041604160416041604AE00650089
:105870001604B700BA001604D700DA00DA00DA001E
:10588000DA00DA00DA00DA00DA00DA0016041604C8
:105890001604160416041604160416041604160438
:1058A00015012B0116042B01160416041604160408
:1058B000ED0016041604400316041604160416041C
:1058C0001604A8031604160486001604160416040B
:1058D000160416041604160416041604160407010A
:1058E0006B002B012B012B01F0006B00160416043A
:1058F000FA0016042203420376030101160487030B
:105900001604AA0316041604C2031D4673E71FAA51
:105910005146584603F0F5FE002840F092862CAC24
:105920007EE701232B2205998BE70F46FBE70BB19E
:105930008DF85F20AE0640F1AA80073727F00707F1
:1059400007F10803D7E900670493002E77F10003FD
:1059500006DA76424FF02D0367EB47078DF85F308C
:105960000123CAE20BB18DF85F20374B1193AB06D0
:1059700040F13983073727F0070707F10803D7E914
:1059800000670493E8070BD556EA070308D03023D5
:105990008DF860309DF808308DF8613045F00205D3
:1059A0000223A7E2002ABED101232022BBE745F053
:1059B0000105B8E73E680A96002E07F10401B4DA43
:1059C00076420A960F4645F00405ACE705994E1C51
:1059D000097802912A2910D04FF000090596029902
:1059E000303909293FF631AF00FB091905990E46F8
:1059F00016F8011B02910596F1E73968059641EA10
:105A0000E17904378FE745F080058CE700210A91A2
:105A100002990A9E303900FB06110A9105990E463B
:105A200016F8011B02910299059630390929EFD920
:105A30000BE745F0080576E745F0400573E700BF42
:105A40000000000000000000DCA6000805990978AD
:105A50006C2905D105990131059145F0200562E7D2
:105A600045F010055FE73B1D049300263B688DF869
:105A700088308DF85F604FF0010937460DF18808D6
:105A80001BE10BB18DF85F2045F0100552E715F0D2
:105A9000100F07F1040303D03E680493F71754E78F
:105AA0003E68049315F0400F18BF36B2F6E70BB10D
:105AB0008DF85F20073727F0070707F108030493E5
:105AC00097ED007B8DED067B069B1293079B23F0E1
:105AD000004313934FF0FF324A4BDDE91201FBF70D
