:020000040800F2
:1000000000000120E5530008ED510008EF51000801
:10001000095200080B5200080D52000800000000B1
:10002000000000000000000000000000E1370008B0
:100030000F5200080000000071380008115200083B
:10004000355400083554000835540008355400086C
:10005000355400083554000835540008355400085C
:10006000355400083554000835540008355400084C
:10007000355400083554000835540008355400083C
:10008000355400083554000835540008355400082C
:10009000355400083554000835540008295200082A
:1000A00035540008415200084D52000835540008EC
:1000B00035540008355400083554000835540008FC
:1000C00035540008355400083554000835540008EC
:1000D00035540008595200083554000835540008BA
:1000E00035540008355400083554000835540008CC
:1000F00035540008355400083554000835540008BC
:1001000035540008000000000000000035540008CD
:100110003554000835540008A5520008C1520008A3
:10012000355400083554000835540008355400088B
:10013000355400083554000800000000000000009D
:1001400035540008355400083554000800000000FC
:10015000000000000000000000000000000000009F
:10016000355400083554000835540008355400084B
:10017000355400083554000835540008355400083B
:10018000355400083554000800000000000000004D
:0401900035540008DA
:1001A00010B5054C237833B9044B13B10448AFF3B1
:1001B00000800123237010BDFC0700200000000018
:1001C0002076000808B5034B1BB103490348AFF381
:1001D000008008BD00000000000800202076000814
:1001E00001F0FF01102A2BDB10F0070F08D010F8E8
:1001F000013B013A8B422DD010F0070F42B3F6D1EC
:10020000F0B441EA012141EA014122F007047FF004
:1002100000070023F0E80256083C85EA010586EA5B
:10022000010685FA47F5A3FA87F586FA47F6A5FA97
:1002300087F68EB9EED1F0BC01F0FF0102F00702A3
:1002400032B110F8013B013A83EA010313B1F8D14E
:100250000020704701387047002D06BF354603382F
:10026000073815F0010F07D1013015F4807F02BF68
:10027000013015F4C03F0130F0BC0138704700BFB9
:10028000034613F8012B002AFBD1181A01387047D6
:1002900081F0004102E000BF83F0004330B54FEA37
:1002A00041044FEA430594EA050F08BF90EA020FA4
:1002B0001FBF54EA000C55EA020C7FEA645C7FEA37
:1002C000655C00F0E2804FEA5454D4EB5555B8BF5A
:1002D0006D420CDD2C4480EA020281EA030382EACB
:1002E000000083EA010180EA020281EA0303362D5D
:1002F00088BF30BD11F0004F4FEA01314FF4801C30
:100300004CEA113102D0404261EB410113F0004F41
:100310004FEA03334CEA133302D0524263EB4303F8
:1003200094EA050F00F0A780A4F10104D5F1200E96
:100330000DDB02FA0EFC22FA05F2801841F10001F1
:1003400003FA0EF2801843FA05F359410EE0A5F1C5
:1003500020050EF1200E012A03FA0EFC28BF4CF0F6
:10036000020C43FA05F3C01851EBE37101F00045AC
:1003700007D54FF0000EDCF1000C7EEB00006EEBB9
:100380000101B1F5801F1BD3B1F5001F0CD3490843
:100390005FEA30004FEA3C0C04F101044FEA44529A
:1003A00012F5800F80F09A80BCF1004F08BF5FEA21
:1003B000500C50F1000041EB045141EA050130BD01
:1003C0005FEA4C0C404141EB010111F4801FA4F1A4
:1003D0000104E9D191F0000F04BF01460020B1FAF9
:1003E00081F308BF2033A3F10B03B3F120020CDA31
:1003F0000C3208DD02F1140CC2F10C0201FA0CF00F
:1004000021FA02F10CE002F11402D8BFC2F1200C73
:1004100001FA02F120FA0CFCDCBF41EA0C01904029
:10042000E41AA2BF01EB0451294330BD6FEA040472
:100430001F3C1CDA0C340EDC04F11404C4F120025D
:1004400020FA04F001FA02F340EA030021FA04F36F
:1004500045EA030130BDC4F10C04C4F1200220FAC6
:1004600002F001FA04F340EA0300294630BD21FA04
:1004700004F0294630BD94F0000F83F4801306BFCA
:1004800081F480110134013D4EE77FEA645C18BFBE
:100490007FEA655C29D094EA050F08BF90EA020F55
:1004A00005D054EA000C04BF1946104630BD91EA4D
:1004B000030F1EBF0021002030BD5FEA545C05D150
:1004C0004000494128BF41F0004130BD14F580048F
:1004D0003CBF01F5801130BD01F0004545F0FE4103
:1004E00041F470014FF0000030BD7FEA645C1ABF38
:1004F000194610467FEA655C1CBF0B46024650EA6F
:10050000013406BF52EA033591EA030F41F400219A
:1005100030BD00BF90F0000F04BF0021704730B520
:100520004FF4806404F132044FF000054FF00001F5
:1005300050E700BF90F0000F04BF0021704730B5B6
:100540004FF4806404F1320410F0004548BF40428B
:100550004FF000013EE700BF42004FEAE2014FEAE0
:1005600031014FEA02701FBF12F07F4393F07F4FBB
:1005700081F06051704792F0000F14BF93F07F4FED
:10058000704730B54FF4607401F0004521F0004130
:1005900020E700BF50EA010208BF704730B54FF0B6
:1005A00000050AE050EA010208BF704730B511F0BB
:1005B000004502D5404261EB41014FF4806404F1F3
:1005C00032045FEA915C3FF4DCAE4FF003025FEA75
:1005D000DC0C18BF03325FEADC0C18BF033202EBFD
:1005E000DC02C2F1200300FA03FC20FA02F001FA57
:1005F00003FE40EA0E0021FA02F11444C1E600BFF6
:1006000070B54FF0FF0C4CF4E06C1CEA11541DBFA8
:100610001CEA135594EA0C0F95EA0C0F00F0DEF873
:100620002C4481EA030621EA4C5123EA4C5350EA58
:10063000013518BF52EA033541F4801143F48013A9
:1006400038D0A0FB02CE4FF00005E1FB02E506F03A
:100650000042E0FB03E54FF00006E1FB03569CF08F
:10066000000F18BF4EF0010EA4F1FF04B6F5007F95
:1006700064F5407404D25FEA4E0E6D4146EB060607
:1006800042EAC62141EA55514FEAC52040EA5E5090
:100690004FEACE2EB4F1FD0C88BFBCF5E06F1ED83A
:1006A000BEF1004F08BF5FEA500E50F1000041EB71
:1006B000045170BD06F0004646EA010140EA02001E
:1006C00081EA0301B4EB5C04C2BFD4EB0C0541EA40
:1006D000045170BD41F480114FF0000E013C00F355
:1006E000AB8014F1360FDEBF002001F0004170BD79
:1006F000C4F10004203C35DA0C341BDC04F1140492
:10070000C4F1200500FA05F320FA04F001FA05F21D
:1007100040EA020001F0004221F0004110EBD370EA
:1007200021FA04F642EB06015EEA430E08BF20EA16
:10073000D37070BDC4F10C04C4F1200500FA04F3B9
:1007400020FA05F001FA04F240EA020001F000414B
:1007500010EBD37041F100015EEA430E08BF20EABE
:10076000D37070BDC4F1200500FA05F24EEA020E06
:1007700020FA04F301FA05F243EA020321FA04F035
:1007800001F0004121FA04F220EA020000EBD370EC
:100790005EEA430E08BF20EAD37070BD94F0000FEC
:1007A0000FD101F00046400041EB010111F4801F20
:1007B00008BF013CF7D041EA060195F0000F18BFD1
:1007C000704703F00046520043EB030313F4801F0D
:1007D00008BF013DF7D043EA0603704794EA0C0FC7
:1007E0000CEA135518BF95EA0C0F0CD050EA4106DD
:1007F00018BF52EA4306D1D181EA030101F000415A
:100800004FF0000070BD50EA410606BF1046194681
:1008100052EA430619D094EA0C0F02D150EA01368D
:1008200013D195EA0C0F05D152EA03361CBF1046CE
:1008300019460AD181EA030101F0004141F0FE416D
:1008400041F470014FF0000070BD41F0FE4141F4F1
:10085000780170BD70B54FF0FF0C4CF4E06C1CEAF1
:1008600011541DBF1CEA135594EA0C0F95EA0C0FA6
:1008700000F0A7F8A4EB050481EA030E52EA033561
:100880004FEA013100F088804FEA03334FF0805582
:1008900045EA131343EA12634FEA022245EA1115AF
:1008A00045EA10654FEA00260EF000419D4208BF60
:1008B000964244F1FD0404F5407402D25B084FEA0D
:1008C0003202B61A65EB03055B084FEA32024FF4B9
:1008D00080104FF4002CB6EB020E75EB030E22BF16
:1008E000B61A754640EA0C005B084FEA3202B6EBD6
:1008F000020E75EB030E22BFB61A754640EA5C0085
:100900005B084FEA3202B6EB020E75EB030E22BF14
:10091000B61A754640EA9C005B084FEA3202B6EB15
:10092000020E75EB030E22BFB61A754640EADC00D4
:1009300055EA060E18D04FEA051545EA16754FEA36
:1009400006164FEAC30343EA52734FEAC2025FEA54
:100950001C1CC0D111F4801F0BD141EA00014FF0E3
:1009600000004FF0004CB6E711F4801F04BF0143B4
:100970000020B4F1FD0C88BFBCF5E06F3FF6AFAED0
:10098000B5EB030C04BFB6EB020C5FEA500C50F160
:10099000000041EB045170BD0EF0004E4EEA1131E3
:1009A00014EB5C04C2BFD4EB0C0541EA045170BDEA
:1009B00041F480114FF0000E013C90E645EA060E2E
:1009C0008DE60CEA135594EA0C0F08BF95EA0C0F5C
:1009D0003FF43BAF94EA0C0F0AD150EA01347FF4A4
:1009E00034AF95EA0C0F7FF425AF104619462CE77B
:1009F00095EA0C0F06D152EA03353FF4FDAE1046DE
:100A0000194622E750EA410618BF52EA43067FF42E
:100A1000C5AE50EA41047FF40DAF52EA43057FF4BE
:100A2000EBAE12E74A0011D212F5001211D20DD529
:100A30006FF47873B3EB62520ED44FEAC12343F0E4
:100A4000004343EA505323FA02F070474FF000008E
:100A5000704750EA013002D14FF0FF3070474FF03D
:100A6000000070474FEA4102B2F1E04324BFB3F502
:100A7000001CDCF1FE5C0DD901F0004C4FEAC00215
:100A80004CEA5070B2F1004F40EB830008BF20F0F9
:100A90000100704711F0804F21D113F13872BCBFB3
:100AA00001F00040704741F480114FEA5252C2F108
:100AB0001802C2F1200C10FA0CF320FA02F018BF51
:100AC00040F001004FEAC1234FEAD32303FA0CFCA4
:100AD00040EA0C0023FA02F34FEA4303CCE77FEA33
:100AE000625307D150EA01331EBF4FF0FE4040F47D
:100AF0004000704701F0004040F0FE4040F400002C
:100B0000704700BF53B94AB9002908BF00281CBF6D
:100B10004FF0FF314FF0FF3000F07AB9ADF1080C23
:100B20006DE904CE00F006F8DDF804E0DDE902230B
:100B300004B070472DE9F0478C460D460446089EE8
:100B4000002B51D18A4217466DD9B2FA82FEBEF10E
:100B5000000F0BD0CEF1200C01FA0EF520FA0CFCA0
:100B600002FA0EF74CEA050C00FA0EF44FEA174AA7
:100B7000250CBCFBFAF81FFA87F90AFB18CC45EAEA
:100B80000C4508FB09F3AB420AD9ED1908F1FF3215
:100B900080F02381AB4240F22081A8F102083D445D
:100BA000ED1AA4B2B5FBFAF00AFB105544EA05446D
:100BB00000FB09F9A14509D9E41900F1FF3380F0E0
:100BC0000A81A14540F2078102383C44A4EB0904A4
:100BD00040EA08400021002E61D024FA0EF40023E0
:100BE00034607360BDE8F0878B4207D9002E54D083
:100BF000002186E821000846BDE8F087B3FA83F1BA
:100C0000002940F08E80AB4202D3824200F2FA808B
:100C1000841A65EB03050120AC46002E3FD086E820
:100C20001010BDE8F08712B90127B7FBF2F7B7FA49
:100C300087FEBEF1000F34D1EB1B3A0C1FFA87FC84
:100C40000121B3FBF2F8250C02FB183345EA0345FA
:100C50000CFB08F3AB4207D9ED1908F1FF3002D2C3
:100C6000AB4200F2D1808046ED1AA3B2B5FBF2F0A0
:100C700002FB105543EA05440CFB00FCA44507D9D0
:100C8000E41900F1FF3302D2A44500F2B8801846FF
:100C9000A4EB0C0440EA08409DE731463046BDE82D
:100CA000F087CEF1200405FA0EF307FA0EF720FACA
:100CB00004F83A0C25FA04F448EA0308B4FBF2F10C
:100CC0004FEA184502FB11441FFA87FC45EA044528
:100CD00001FB0CF3AB4200FA0EF409D9ED1901F156
:100CE000FF3080F08A80AB4240F2878002393D4479
:100CF000EB1A1FFA88F5B3FBF2F002FB103345EA5A
:100D0000034500FB0CF3AB4207D9ED1900F1FF38A6
:100D10006FD2AB426DD902383D44EB1A40EA014133
:100D20008FE7C1F1200722FA07F88B4005FA01F49A
:100D300048EA030320FA07FE4FEA134CFD404EEA4F
:100D4000040EB5FBFCF94FEA1E440CFB19551FFAC3
:100D500083F844EA054509FB08F4AC4202FA01F2C3
:100D600000FA01FA08D9ED1809F1FF3043D2AC427C
:100D700041D9A9F102091D442D1B1FFA8EFEB5FBB6
:100D8000FCF00CFB10554EEA054400FB08F8A045AA
:100D900007D9E41800F1FF3529D2A04527D9023838
:100DA0001C4440EA0940A4EB0804A0FB02894C451E
:100DB000C6464D4615D312D056B1BAEB0E0364EBBE
:100DC000050404FA07F7CB401F43CC40376074603A
:100DD0000021BDE8F0871846F8E69046E0E6C245F7
:100DE000EAD2B8EB020E69EB03050138E4E72846C6
:100DF000D7E7404691E78146BEE7014678E70238EB
:100E00003C4445E7084608E7A8F102083D442BE7C3
:100E1000704700BF38B50E4A0E4B054618784FF4A0
:100E20007A73B3FBF0F31068B0FBF3F000F0A2F8B4
:100E3000044658B90F2D09D8024629464FF0FF3015
:100E400000F056F8044B20461D6038BD012038BD27
:100E5000880100200000002004000020074A08B597
:100E6000136843F010031360032000F02FF80F20E5
:100E7000FFF7D0FF04F06EF8002008BD002002400C
:100E8000034A044B11681B780B441360704700BF82
:100E9000D41F002000000020014B1868704700BFDD
:100EA000D41F002038B50446FFF7F6FF631C1CBFB3
:100EB000054B1B78054618BFE418FFF7EDFF401BF4
:100EC0008442FAD838BD00BF00000020074AD3682A
:100ED00023F4E0631B041B0C43F0BF63000243F4E4
:100EE000003300F4E0600343D360704700ED00E09E
:100EF000174B30B5DC68C4F30224C4F10703251D89
:100F0000042B28BF0423062D4FF0010505FA03F337
:100F100003F1FF338CBF033C00241940A14005FAC4
:100F200004F4013C2240002842EA01024FEA021286
:100F3000ADBF00F1604000F00F00064B00F56140CE
:100F4000B5BFD2B2D2B21A5480F8002330BD00BF70
:100F500000ED00E014ED00E0002808DB4209012369
:100F600000F01F0003FA00F0014B43F82200704725
:100F700000E100E00138B0F1807F0AD2064B074A59
:100F80005860F02182F823100020072298601A6030
:100F900070470120704700BF10E000E000ED00E066
:100FA00010B5044668B1037903F0FF0213B942712A
:100FB00003F0F0FF0223237100200123206123713D
:100FC00010BD012010BD704713B5002400680194C6
:100FD000019041B9019908310A440192019A002017
:100FE000136002B010BD01991431F5E74379012B6C
:100FF00010B54FF0020315D00371036801221C687D
:1010000042718A4022431A601A6869B902F03C02B0
:101010003C2A03D15A6842F001025A60012303714D
:1010200000234371184610BD02F47012B2F5701F10
:10103000F4D15A6842F00202EFE74379012B30B550
:101040004FF0020317D004680371236840F6FE7561
:10105000954023EA05050AC90B4393402B432360BF
:101060002368C02101FA02F223EA0202012322606E
:10107000037100234371184630BD704703681A6836
:10108000910410B5044611D55A6B92040ED5042272
:101090000271026942F0010202614FF400525A6388
:1010A0001A6822F480521A60FFF78DFF23681A68CD
:1010B000910012D55A6B92000FD504222271226939
:1010C00042F0020222614FF000525A631A6822F085
:1010D00080521A602046FFF7D0FF10BD90F8212003
:1010E000022A10B503D004228263012010BD0268D9
:1010F000C46B1168436B21F00E011160116821F07F
:1011000001011160026C012101FA02F26260002407
:1011100080F8211080F8204013B19847204610BD78
:10112000184610BD2DE9F74FD1F80080DFF89091F7
:10113000614A002338FA03F402D103B0BDE8F08F0E
:101140004FF0010E0EFA03FE18EA0E0600F0A6801C
:101150004C6824F01007022F16D14FEAD30A00EB97
:101160008A0A03F0070BDAF820504FEA8B0B4FF096
:101170000F0C0CFA0BFC25EA0C0C0D6905FA0BF5AB
:1011800045EA0C05CAF820504FEA430A0325D0F877
:1011900000B005FA0AF5ED4304F0030C0BEA050B69
:1011A0000CFA0AFC013F4CEA0B0C012FC0F800C0FE
:1011B00011D8876807EA050BCF6807FA0AFC4CEAE2
:1011C0000B078760476827EA0E0EC4F300179F409D
:1011D00047EA0E074760C7683D408F6807FA0AF77D
:1011E0003D43C560E50059D5D9F8185045F00105D3
:1011F000C9F81850D9F8185023F0030707F18047B1
:1012000005F0010507F58037019503F0030C019DFA
:10121000BD684FEA8C0C4FF00F0E0EFA0CFEB0F1C9
:10122000904F25EA0E0E3BD0244DA8423AD005F54A
:101230008065A84238D005F58065A84236D005F50E
:101240008065A84234D005F58065A84232D005F506
:101250008065A84214BF0725062505FA0CF545EA66
:101260000E05BD601568F74314F4803F0CBF3D4088
:1012700035431560556814F4003F0CBF3D403543BD
:101280005560956814F4801F0CBF3D403543956050
:10129000D568A40254BF3D403543D560013349E7CA
:1012A0000025DAE70125D8E70225D6E70325D4E7AC
:1012B0000425D2E70525D0E70004014000040048DA
:1012C000001002400369194214BF0120002070473A
:1012D0000AB1816170478162704743690B4218BF50
:1012E000090481617047000008B5044B5969014247
:1012F00002D0586103F022FB08BD00BF000401408A
:1013000003689A69910744BF00229A629A69D207DA
:101310005EBF9A6942F001029A61704730B5039C42
:1013200005682343640D04F4806444F07F7444F43E
:1013300058346868C1F3090144F47F74194344F0D8
:10134000030441EA024120EA04042143696030BDFC
:101350002DE9F041069F0446884616461D46226840
:10136000936938EA03030CBF01230023B34202D080
:101370000020BDE8F0816B1CF2D0FFF78DFDC01B93
:10138000854201D3002DEAD1636C43F020036364EE
:10139000202384F84130002384F8423084F8403020
:1013A0000120BDE8F081036870B50446986910F02B
:1013B00010000D46164616D170BD691C14D0FFF7FB
:1013C0006BFD801B854200D36DB9636C43F0200335
:1013D0006364202384F84130002384F8423084F889
:1013E0004030012070BD236899698A06E5D5102236
:1013F0002025DA612046DD61FFF782FF226853680D
:1014000023F0FF7323F48B3323F4FF7323F00103E2
:101410005360636C43F00403636484F84150DBE77A
:1014200070B504460D46164623689B699B0701D597
:10143000002070BD324629462046FFF7B4FFA0B910
:101440006A1CF1D0FFF728FD801B854201D3002DD7
:10145000EAD1636C43F020036364202384F84130B5
:10146000002384F8423084F84030012070BD000031
:10147000F7B5099E1F46164B0093054614464FF0DC
:101480008073FAB2FFF74AFF324608992846FFF701
:10149000C7FF10B1012003B0F0BD012F2B680CD1A4
:1014A000E4B29C62089B0096002280212846FFF748
:1014B0004FFF003018BF0120EDE7220A9A62089919
:1014C00032462846FFF7ACFF0028E3D12B68E7E758
:1014D00000200080F7B5099E1F46164B0093054675
:1014E00014460023FAB2FFF719FF3246089928463E
:1014F000FFF796FF10B1012003B0F0BD012F2B685C
:101500000CD1E4B29C62089B009600224021284640
:10151000FFF71EFF003018BF0120EDE7220A9A6294
:10152000089932462846FFF77BFF0028E3D12B6855
:10153000E7E700BF0020008070B504460D46164660
:1015400023689B699B0601D5002070BD3246294661
:101550002046FFF728FF90B9FFF79EFC801B8542CD
:1015600001D3002DECD1636C43F02003636420238E
:1015700084F84130002384F8423084F84030012060
:1015800070BD10B5044600284AD090F8413003F0F1
:10159000FF021BB980F8402003F032FD242384F8B9
:1015A00041302368E1681A6822F001021A6062681B
:1015B00022F070621A619A68012922F400429A604E
:1015C000A26824D142F400429A605A68616942F0EC
:1015D000007242F400425A60DA6822F40042DA6093
:1015E00022690A43A16942EA0122DA60216AE269BA
:1015F0000A431A601A6842F001021A600020202390
:10160000606484F84130206384F8420010BD42F4E5
:10161000044202299A6004BF4FF400625A60D4E782
:10162000012010BD2DE9F04F9B4690F8413085B068
:10163000202B04460F460392BDF83CA0DDF8408005
:1016400040F0A5800E9B13B1BAF1000F06D14FF404
:1016500000736364012005B0BDE8F08F90F840305E
:10166000012B00F09480012580F84050FFF714FC16
:101670001923009006462A464FF400412046FFF702
:1016800067FE81460028E5D1212384F841304023BC
:1016900084F842300E9B606463626063A4F82AA001
:1016A0000196CDF800805B46039A39462046FFF745
:1016B000DFFE10B184F84090CCE7638D9BB2FF2B26
:1016C00055D9FF22228500904FF08073394620467D
:1016D000FFF724FE324641462046FFF7A1FE0028D0
:1016E000B8D1636A226813F8011B91626362638D4B
:1016F000228D013B9BB26385638D013A92B29BB20E
:101700002285ABB1A2B90096434680212046FFF75F
:101710001FFE00289ED1638D9BB2FF2B2FD9FF2285
:10172000228500904FF0807339462046FFF7F6FD82
:10173000638D9BB2002BCDD1324641462046FFF748
:10174000FBFE002886D123682021D9615A6822F047
:10175000FF7222F48B3222F4FF7222F001025A60EF
:1017600084F8411084F8400084F8420073E7628DE9
:10177000009092B222854FF00073D2B2A6E7628D3C
:10178000009092B222854FF00073D2B2CCE70220D3
:1017900061E700002DE9F04F9B4690F8413085B09D
:1017A000202B04460F460392BDF83CA0DDF8408094
:1017B00040F0A9800E9B13B1BAF1000F06D14FF48F
:1017C00000736364012005B0BDE8F08F90F84030ED
:1017D000012B00F09880012580F84050FFF75CFB5A
:1017E0001923009006462A464FF400412046FFF791
:1017F000AFFD81460028E5D1222384F84130402303
:1018000084F842300E9B606463626063A4F82AA08F
:101810000196CDF800805B46039A39462046FFF7D3
:1018200059FE10B184F84090CCE7638D9BB2FF2B3A
:10183000364B58D9FF22009322854FF080733946EA
:101840002046FFF76BFD0096434600220421204608
:10185000FFF77EFD0028B5D12268636A526A1A70CC
:10186000636A228D01336362638D013B9BB26385A2
:10187000638D013A92B29BB22285ABB1A2B90096B8
:10188000434680212046FFF763FD00289AD1638DEF
:101890009BB2FF2B2FD9FF22228500904FF080733F
:1018A00039462046FFF73AFD638D9BB2002BCAD123
:1018B000324641462046FFF73FFE002882D123688A
:1018C0002021D9615A6822F0FF7222F48B3222F46F
:1018D000FF7222F001025A6084F8411084F840003F
:1018E00084F842006FE7628D009392B222854FF038
:1018F0000073D2B2A3E7628D009092B222854FF0BE
:101900000073D2B2CCE702205DE700BF0024008064
:1019100090F84120D2B2202A10B51DD190F8403065
:10192000012B19D0242380F8413003681C6824F06F
:1019300001041C601C6824F480541C601C68214352
:101940001960196841F001011960002380F84120F5
:1019500080F84030184610BD022010BD10B590F838
:101960004140E4B2202C1CD190F84030012B18D01B
:10197000242380F8413003681A6822F001021A60BB
:101980001A6822F4706242EA012119601A6842F072
:1019900001021A60002380F8414080F84030184668
:1019A00010BD022010BD00002DE9F347054608B91F
:1019B00001205BE00368DF0711D42B689E0700F16C
:1019C0008A802B681C0700F1FE802B68580700F105
:1019D0004781A869002840F0DE81002046E0BE4C27
:1019E000636803F00C03042B0AD0636803F00C0354
:1019F000082B19D1636803F4C033B3F5803F13D1CA
:101A00004FF4003393FAA3F2216893FAA3F3B3FAE5
:101A100083F303F01F03012202FA03F30B42CCD03D
:101A20006B68002BC9D1C3E76B68B3F5803F20D149
:101A3000236843F480332360FFF72EFA4FF4003617
:101A40008046012796FAA6F3226896FAA6F3B3FA1F
:101A500083F303F01F0307FA03F31342ADD1FFF73B
:101A60001BFAA0EB08006428ECD9032002B0BDE803
:101A7000F0870BBB236823F480332360236823F4AF
:101A800080232360FFF708FA4FF4003680460127D1
:101A900096FAA6F3226896FAA6F3B3FA83F303F054
:101AA0001F0307FA03F3134287D0FFF7F5F9A0EB02
:101AB00008006428ECD9D8E7B3F5A02F236803D138
:101AC00043F480232360B3E723F480332360236847
:101AD00023F48023AFE7804C636813F00C0F0AD027
:101AE000636803F00C03082B25D1636803F4C0334B
:101AF000B3F5004F1FD1022393FAA3F2216893FAA2
:101B0000A3F3B3FA83F303F01F03012202FA03F3F2
:101B10000B4203D0EB6893427FF44AAF2168F8236D
:101B200093FAA3F3B3FA83F22B69934021F0F802FE
:101B30001343236045E7EA6801260AB396FAA6F341
:101B4000B3FA83F303F1845303F584139B00022754
:101B50001E60FFF7A1F9804697FAA7F3226897FA6B
:101B6000A7F3B3FA83F303F01F0306FA03F3134258
:101B7000D4D1FFF791F9A0EB08000228ECD974E763
:101B800096FAA6F3B3FA83F303F1845303F58413AF
:101B90009B0002271A60FFF77FF9804697FAA7F3A8
:101BA000226897FAA7F3B3FA83F303F01F0306FA48
:101BB00003F313423FF405AFFFF76EF9A0EB080003
:101BC0000228EBD951E76A69434E444901241AB30C
:101BD00094FAA4F3B3FA83F30B449B0002271C602E
:101BE000FFF75AF9804697FAA7F397FAA7F397FAFF
:101BF000A7F3726A97FAA7F3B3FA83F303F01F030C
:101C000004FA03F313427FF4E0AEFFF745F9A0EBCB
:101C100008000228E7D928E794FAA4F3B3FA83F37B
:101C20000B449B0002271A60FFF736F9804697FAAB
:101C3000A7F397FAA7F397FAA7F3726A97FAA7F3AD
:101C4000B3FA83F303F01F0304FA03F313423FF4E0
:101C5000BCAEFFF721F9A0EB08000228E7D904E7A2
:101C60001D4CE369D90034D4E36943F08053E36148
:101C7000E36903F080530193019B0126184F3B68F1
:101C8000DA052FD5AB68012B3DD1236A43F0010360
:101C90002362FFF701F902278246B9464FF0010897
:101CA00097FAA7F397FAA7F3002B6CD0226A99FA58
:101CB000A9F3B3FA83F303F01F0308FA03F3134203
:101CC00058D0002E3FF485AEE36923F08053E361E2
:101CD0007FE60026D2E700BF00100240208190106E
:101CE000007000403B6843F480733B60FFF7D4F81A
:101CF00080463B68DB05C5D4FFF7CEF8A0EB0800B3
:101D00006428F6D9B1E63BBB236A23F001032362C2
:101D1000236A23F004032362FFF7BEF802278246FA
:101D2000B9464FF0010897FAA7F397FAA7F373B3F0
:101D3000226A99FAA9F3B3FA83F303F01F0308FAAE
:101D400003F31342BDD0FFF7A7F841F28833A0EBAD
:101D50000A009842E7D988E6052B236A03D143F0AD
:101D60000403236291E723F001032362236A23F033
:101D700004038DE7FFF790F841F28833A0EB0A00E7
:101D800098428DD971E697FAA7F3626A8FE797FABE
:101D9000A7F3626ACDE7514A536803F00C03082B9E
:101DA000144600F0828002284FF0807358D193FAD5
:101DB000A3F3B3FA83F303F1845303F584139B0075
:101DC00000221A60FFF768F84FF00077804601267E
:101DD00097FAA7F3226897FAA7F3B3FA83F303F00D
:101DE0001F0306FA03F3134233D1E36A6A6A23F04E
:101DF0000F031343E36262682B6AE96922F47612E7
:101E00000B43134363604FF0807393FAA3F3B3FA69
:101E100083F303F1845303F584139B004FF00075A3
:101E20001E60FFF739F80126074695FAA5F32268E8
:101E300095FAA5F3B3FA83F303F01F0306FA03F34D
:101E400013427FF4CAADFFF727F8C01B0228ECD974
:101E50000BE6FFF721F8A0EB08000228B8D904E64A
:101E600093FAA3F3B3FA83F303F1845303F58413D2
:101E70009B0000221A60FFF70FF84FF0007507462D
:101E8000012695FAA5F3226895FAA5F3B3FA83F330
:101E900003F01F0306FA03F313423FF49EADFEF76F
:101EA000FBFFC01B0228ECD9DFE501283FF4DEADC3
:101EB0005368D06AEA6903F4C03191427FF478AD87
:101EC0002A6A03F4701393427FF472AD6B6A00F0D8
:101ED0000F00C01A18BF0120C8E500BF0010024063
:101EE00011494B6803F00C02082A1AD14FF4701202
:101EF00092FAA2F20F20B2FA82F2C96A90FAA0F026
:101F0000B0FA80F001F00F0103F47013D340C14028
:101F1000064A0748415C0748B0FBF1F1D05C4843F2
:101F200070470448704700BF001002405476000814
:101F30006476000800127A002DE9F0410D4604464F
:101F400010B90120BDE8F0814D4A136803F0070382
:101F50008B422FD32268910737D4D2073DD4484A09
:101F6000136803F007039D4276D32268454D12F0B3
:101F7000040F7DD1130706D56B68226923F46053E3
:101F800043EAC2036B60FFF7ABFF6B68F02292FA83
:101F9000A2F2B2FA82F203F0F003D3403A4AD35CE1
:101FA000D8403A4B18603A4B1868FEF733FF0020D0
:101FB000BDE8F081136823F007030B431360136837
:101FC00003F007039942BCD1C4E72E49A0684B68CF
:101FD00023F0F00303434B60BFE76268294E012AF8
:101FE00027D14FF4003393FAA3F1316893FAA3F3A6
:101FF000B3FA83F303F01F0302FA03F30B42A0D0FA
:10200000736823F003031A437260FEF745FF41F241
:10201000883807467368626803F00C03B3EB820FDD
:102020009DD0FEF739FFC01B4045F3D90320BDE822
:10203000F081022A0CBF4FF00073022393FAA3F140
:10204000306893FAA3F3B3FA83F303F01F0301217B
:1020500001FA03F30342D2E7136823F007032B438B
:102060001360136803F007039D427FF46AAF7CE7B7
:102070006B68E16823F4E0630B436B607AE700BFB1
:102080000020024000100240028D0008880100205C
:1020900004000020084B4FF4E0625B6892FAA2F261
:1020A000B2FA82F203F4E063D340044AD35C044AF8
:1020B0001068D840704700BF00100240128D000821
:1020C00088010020084B4FF460525B6892FAA2F23C
:1020D000B2FA82F203F46053D340044AD35C044A58
:1020E0001068D840704700BF00100240128D0008F1
:1020F0008801002003682DE9F347DF03044623D558
:102100009B4DEB69DE0000F1D780EB6943F0805313
:10211000EB61EB6903F080530193019B0126954F1E
:102120003B68D80540F1CA802B6A13F4407340F035
:10213000DA802B6A626823F4407313432B621EB16A
:10214000EB6923F08053EB612068C30706D5884A0A
:10215000A168136B23F003030B431363870706D5B2
:10216000834AE168136B23F440330B431363460740
:1021700006D57F4A2169136B23F440230B43136375
:10218000850606D57A4AE169136B23F010030B43E9
:102190001363810306D5764A616D536823F4800387
:1021A0000B435360420606D5714A216A136B23F034
:1021B00020030B431363430306D56D4A616A136B17
:1021C00023F040030B431363070706D5684A616990
:1021D000136B23F440130B431363C60606D5644AFE
:1021E000A169136B23F440030B431363850506D5E4
:1021F0005F4A216B536823F400030B4353600106CD
:1022000006D55B4AA16AD36A23F4F8730B43D36201
:10221000C20506D5564AE16AD36A23F478530B43C4
:10222000D362C30406D5524A616B136B23F48073E7
:102230000B431363870406D54D4A216C136B23F4BB
:1022400000730B431363C60206D5494AA16B136B97
:1022500023F080730B431363850206D5444AE16B78
:10226000136B23F000730B431363410206D5404AFE
:10227000616C136B23F480630B431363020206D576
:102280003B4AA16C136B23F400630B431363C3013C
:1022900006D5374AE16C136B23F400530B431363E9
:1022A00010F000701CD0324A216D136B23F40043F0
:1022B0000B431363002013E0002630E73B6843F430
:1022C00080733B60FEF7E8FD80463B68D9053FF52B
:1022D0002BAFFEF7E1FDA0EB08006428F5D9032041
:1022E00002B0BDE8F087626802F4407293423FF4A6
:1022F00020AF296A4FF4803321F4407093FAA3F29F
:10230000DFF874E0B2FA82F272449200012717609B
:1023100093FAA3F3B3FA83F373449B0000221A6089
:10232000CA0728627FF505AFFEF7B6FD4FF0020839
:102330008246C14698FAA8F398FAA8F3A3B12A6A8C
:1023400099FAA9F3B3FA83F303F01F0307FA03F32F
:1023500013427FF4EEAEFEF79FFD41F28833A0EB0F
:102360000A009842E6D9BAE798FAA8F36A6AE7E75A
:102370000010024000700040008190100368DA688D
:1023800042F00102DA609968064A0A40062A06D03D
:10239000B2F5803F1EBF1A6842F001021A600020A9
:1023A000704700BF070001000368DA6822F00102ED
:1023B000DA60196A41F21112114208D1196A40F229
:1023C0004442114202BF1A6822F001021A60002042
:1023D0007047704770477047704703681A699107E4
:1023E00010B504460FD5DA6892070CD56FF00202DB
:1023F0001A619B6901229907027700F08580FFF737
:10240000E9FF0023237723681A69520710D5DA6899
:1024100050070DD56FF004021A619B69022213F474
:10242000407F2277204675D0FFF7D4FF0023237723
:1024300023681A6911070FD5DA6812070CD56FF0F7
:1024400008021A61DB6904229B072277204667D0C5
:10245000FFF7C0FF0023237723681A69D00610D541
:10246000DA68D1060DD56FF010021A61DB69082217
:1024700013F4407F2277204658D0FFF7ABFF0023AC
:10248000237723681A69D20708D5DA68D00705D5FB
:102490006FF001021A61204602F0C2FA23681A693D
:1024A000110608D5DA68120605D56FF080021A61A8
:1024B000204600F014F923681A69D00508D5DA68B7
:1024C000110605D56FF480721A61204600F008F9F4
:1024D00023681A69520608D5DA68500605D56FF0E8
:1024E00040021A612046FFF777FF23681A699106B8
:1024F00022D5DA6892061FD56FF0200220461A61B5
:10250000BDE8104000F0EAB8FFF763FF2046FFF790
:1025100062FF76E7FFF75DFF2046FFF75CFF85E788
:10252000FFF757FF2046FFF756FF93E7FFF751FFEE
:102530002046FFF750FFA2E710BD0000324A0368B3
:10254000904212D0B0F1804F0FD0A2F59432904259
:102550000BD002F58062904207D002F5963290428D
:1025600003D002F5E052904215D14A6823F070037F
:102570001343254A90421DD0B0F1804F1AD0A2F5E6
:102580009432904216D002F58062904212D002F549
:10259000963290420ED01D4A90420BD002F58062D6
:1025A000904207D002F58062904203D002F50062AB
:1025B000904203D1CA6823F4407313434A6923F05D
:1025C0008003134303608B68C3620B6883620E4B06
:1025D000984213D003F5006398420FD003F540638F
:1025E00098420BD003F58063984207D003F58063CF
:1025F000984203D003F50063984201D10B6903634D
:1026000001234361704700BF002C0140004001409E
:1026100010B50446A0B190F83D3003F0FF021BB99D
:1026200080F83C2002F020FD022384F83D30206831
:10263000211DFFF783FF012384F83D30002010BDEA
:10264000012010BD90F83C30012B30B54FF0020353
:1026500040D080F83D30204D03680122AB4280F825
:102660003C205A689C6807D005F50065AB4203D052
:1026700005F5E055AB4203D14D6822F470022A43C0
:102680000D6822F070022A435A60134A934216D012
:10269000B3F1804F13D0A2F5943293420FD002F5DC
:1026A000806293420BD002F59632934207D002F536
:1026B0004062934203D002F58052934204D189686C
:1026C00024F080020A439A60012380F83D30002301
:1026D00080F83C30184630BD002C014070477047F0
:1026E000704703681A6822F490721A609A6822F0A0
:1026F00001029A60202383670023036670477047B6
:10270000704700000368DA69196870B540F60F0673
:10271000324204469D680AD1960670D58E066ED563
:10272000036E002B00F08E80BDE87040184715F056
:10273000010002D111F4907F61D0D60707D5CD05F5
:1027400005D501251D62E56F45F00105E567960792
:1027500006D528B102251D62E56F45F00405E56741
:10276000550706D528B104251D62E56F45F0020521
:10277000E567160708D58D0600D428B10820186231
:10278000E06F40F00800E067100508D54E0106D55F
:102790004FF400601862E36F43F02003E367E36FD8
:1027A000002B4FD0950605D5880603D5236E0BB1B7
:1027B000204698472268E56F92685106204602D469
:1027C00015F0280517D0FFF78CFF23689A6852068A
:1027D0000DD59A68E06E22F040029A6038B11A4B2B
:1027E0004363FEF77BFC68B3E06E436B9CE72046D7
:1027F000FFF786FF70BDFFF783FFE56770BDD60268
:1028000009D5680207D54FF4801220461A62BDE848
:10281000704000F081BA160605D50D0603D5636E2B
:1028200083B1204680E750060CD54A060AD51A68BF
:1028300022F040021A60202363670023636620466B
:10284000FFF75DFF70BD00BF4D28000808B5406A66
:102850000023A0F85A30A0F85230FFF751FF08BD0E
:102860000268816838B50446C36900691568014388
:10287000606901437A481943284001431160516857
:10288000E068256A21F44051014351609068A169D4
:1028900020F4306029430143916072498A4211D18A
:1028A000714A7249126B02F00302B3F5004F8A5C61
:1028B0005AD0082A26D8DFE802F0A1A7AA25BD250C
:1028C0002525C0006A498A422AD1674A126B02F460
:1028D0004032B2F5803F00F0B58015D8DAB9B3F5D3
:1028E000004F40F08B80FFF7D5FB6268530803EB85
:1028F0004000B0FBF2F080B2A0F110024FF6EF738F
:102900009A426FD9012075E0B2F5003F00F0A08037
:10291000B2F5403F46D0B3F5004FF3D01022C8E7E0
:1029200054498A420FD1504A126B02F44022B2F548
:10293000802F00F08780D1D9B2F5002F00F0888079
:10294000B2F5402FE6E74C498A4237D1464A126B2E
:1029500002F44012B2F5801F74D01DD8002ABED0F8
:10296000B3F5004FCED11022082ACBD801A353F8DB
:1029700022F000BFE7280008DF290008AB29000883
:10298000052900084B2A0008052900080529000828
:1029900005290008572A0008B2F5001F58D0B2F5E3
:1029A000401FDDD1B3F5004F31D16368580800F501
:1029B000740000F51050B0FBF3F09CE72F498A42F9
:1029C000A0D1294A126B02F44002B2F5800F39D02F
:1029D00084D9B2F5000F3BD0B2F5400F9AE7FFF76C
:1029E00071FB82E720F00F032268C0F34200184316
:1029F000D060002000232366636638BDFFF74AFBE2
:102A0000636800EB530008E0FFF75CFBF8E76368DE
:102A1000580800F5F40000F59050B0FBF3F080B2D8
:102A2000A0F110024FF6EF739A423FF66BAF2368A6
:102A3000D860DEE7FFF754FAE2E76368580800F56C
:102A40000040EAE7B3F5004FF4D1FFF749FA4CE74D
:102A5000B3F5004FF1D16368580800F58030AAE75C
:102A6000F369FFEF0038014000100240747600085F
:102A70000044004000480040004C0040005000402E
:102A8000436ADA0710B506D50168846A4A6822F4F9
:102A9000003222434A609C0706D50168C46A4A682E
:102AA00022F4803222434A60590706D50168046B3C
:102AB0004A6822F4802222434A601A0706D5016838
:102AC000446B4A6822F4004222434A60DC0606D581
:102AD0000168846B8A6822F4805222438A609906D6
:102AE00006D50168C46B8A6822F4005222438A60CA
:102AF0005A060FD50168046C4A6822F480122243FA
:102B0000B4F5801F4A6005D14A68446C22F4C002C3
:102B100022434A601B0606D50268816C536823F481
:102B200000230B43536010BD2DE9F041069D044680
:102B30000F46164698462168CA6937EA02030CBF59
:102B400001220022B24202D00020BDE8F081681CC0
:102B5000F2D0FEF7A1F9A0EB0800854220680368D7
:102B600000D37DB923F4D0730360836823F001039D
:102B7000836020236367A367002384F870300320F9
:102B8000BDE8F0815A07D6D5C3691B05D3D54FF4EC
:102B900000630362036823F4D0730360836823F047
:102BA0000103836020236367A367E367E4E72DE9FC
:102BB000F7439846436F202B04460E4691464BD16F
:102BC000002947D0002A45D090F87030012B43D01F
:102BD000012380F8703000252123C5674367FEF785
:102BE0005BF9A368A4F85090B3F5805F0746A4F89A
:102BF000529003D123690BB935461E46B4F85220D2
:102C0000CDF8008092B23B464AB940212046FFF7FA
:102C10008BFF50B92023636784F8700006E0002220
:102C200080212046FFF780FF18B1032003B0BDE8E4
:102C3000F08322685EB935F8023BC3F308031385BD
:102C4000B4F85230013B9BB2A4F85230D6E716F8E4
:102C5000013BF4E70120E9E70220E7E773B504460A
:102C60000026C667FEF718F923681B681A07054691
:102C700015D423681B685B070AD56FF07E43009369
:102C800000222B464FF480012046FFF74DFF90B9FC
:102C900020230020636784F87000A3670CE06FF0C6
:102CA0007E430093324603464FF400112046FFF75F
:102CB0003BFF0028DDD0032002B070BD10B50446F4
:102CC00040B3436F1BB980F8703002F02DFA2268D0
:102CD00024236367136823F0010313602046FFF782
:102CE000BFFD012816D0636A13B12046FFF7C8FE66
:102CF00023685A6822F490425A609A6822F02A02A5
:102D00009A601A6842F0010220461A60BDE810403D
:102D1000FFF7A4BF012010BD70470B88052B70B5CD
:102D20000D462ED1C378027942EA0322531E9BB28C
:102D300040F2CE718B4224D80023467881782B80D4
:102D4000012303702B8812F0070F4FEAD20418BF3B
:102D500001340133E4B22B8044702B8841EA062110
:102D6000013301312B8089B20023023001F038FF9A
:102D700018B1BDE8704000F081B92A8814442C8055
:102D800070BD032070BD0B88052B13B51DD10379D1
:102D9000DBB9C478621ED2B2FD2A16D94278817896
:102DA0008DF80530FF2C08BF012341EA02218DF880
:102DB0000430013101231A4689B201A801F010FF45
:102DC00028B100F05BF902B010BD0320FBE7FAE781
:102DD0000B88052B10B50C4624D9C378027942EA3A
:102DE000032212F0070F4FEAD20302F1FF3118BF9E
:102DF0000133B1F5F66FDBB214D24179994211D1AA
:102E00004378817841EA03210131012389B20630F8
:102E100001F0E6FE18B1BDE8104000F02FB9052220
:102E2000228010BD032010BD0B88052B70B50D4608
:102E30002DD1C378027942EA0322531E9BB240F29D
:102E4000CE718B4223D80023467881782B800223D1
:102E500003702B8812F0070F4FEAD20418BF013419
:102E60000133E4B22B8044702B8841EA0621013300
:102E700001312B8089B2023001F0B4FE18B1BDE8F7
:102E8000704000F0FBB82A8814442C8070BD0320E9
:102E900070BD08B50B88052B0FD14378817841EAC6
:102EA0000321013101231A4689B2033001F064FE87
:102EB00028B1BDE8084000F0E1B8032008BD08BD16
:102EC0000B88052B10B50C461DD9C378027942EA50
:102ED0000322531E772B16D853004179DBB2994257
:102EE00011D14378817841EA03210131012389B26C
:102EF000063001F041FE18B1BDE8104000F0BEB848
:102F00000522228010BD032010BDF8B50B88052BCB
:102F10000C4624D1027995B26B1E7C2B1FD8032658
:102F20000023477881782380067026885200013676
:102F300026804270228841EA072101320131228035
:102F400089B22A46023001F017FE18B1BDE8F840F8
:102F500000F094B8228802EB45052580F8BD0320D7
:102F6000F8BD2DE9F8430B88092B04460D463CD9E2
:102F7000C378077947EA03277B1E7C2B38D8C379AF
:102F8000027A42EA0322531E782B31D8437AB3EBFC
:102F9000420F2DD14379817990F80190867841EAEA
:102FA00003210131012389B20A3001F0E5FD034616
:102FB00008BB1722288022702A884FEA470801326E
:102FC0002A8084F801802A8846EA092101320131E9
:102FD0002A8089B23A46A01C01F0CEFD58B92B8850
:102FE0009844A5F80080BDE8F8830020BDE8F88388
:102FF0000320BDE8F883BDE8F84300F03FB80B8834
:10300000052B70B50C4624D1C378027942EA03221D
:10301000531E7B2B1DD80023467881782380042300
:10302000037023885500013323804570238841EACB
:10303000062101330131238089B2023001F07CFD89
:1030400018B1BDE8704000F019B8228815442580F9
:1030500070BD032070BD000038B5064B1C880D46BE
:10306000224605490134013002F048FD2C80002041
:1030700038BD00BF380800201808002007289ABF74
:10308000014B185C042070477876000838B5044678
:10309000084611461A46431EDBB2F62B27D8164BBC
:1030A000187024BB154B164D1D60164B164D1D6038
:1030B000164B174D1D60174B174D1D60174B1C60AD
:1030C000174B184C1C60184B184C1C60184B194CB3
:1030D0001C609DF8103000F067F9044628B900F034
:1030E000B5F830B1144B01221A70204638BD0224C5
:1030F000FBE70324F9E700BF51080020480800203F
:10310000E13300084C080020FD330008400800208F
:10311000793400083C0800201134000844080020DD
:10312000E01F0020F1340008D81F0020853500087A
:10313000DC1F00200D3600080800002010B5064CEA
:103140002378012B05D1054B1B6898470020207080
:1031500010BD062010BD00BF080000204808002058
:10316000304BF7B51C78002C59D10DF1070000F059
:1031700081F80128034601D0002405E09DF80720CE
:10318000012A04D0022A17D0204603B0F0BD264DF4
:10319000264B274A1B68274928469847044600289B
:1031A000EAD1254A2B7812789A4201D0002BE3D13C
:1031B000022000F053F8E7E71E4D204E2868204F0C
:1031C000027833701F4B3A7013F834104FEAC40E74
:1031D00031B18A421FD1734415495B6898473070FA
:1031E000114B1B78002BC7D03178114B59B10122FC
:1031F0001A803A78286862F07F0202701A8828687C
:10320000541C1C808154104A296814681A880A4B7F
:103210001878A047B0E70134102CD5D1E0E7062498
:10322000B2E700BF08000020580800203C0800203A
:103230005A08002054080020510800203A080020B5
:10324000500800200C00002040080020024B002203
:103250001A700120704700BF5D080020034A012357
:103260001370034A10701846704700BF5D080020B5
:103270005C080020054A13782BB1054B1B780370BE
:103280000023137001231846704700BF5D0800201B
:103290005C0800200A4B58B11868026842F020020E
:1032A00002601A68136841B143F0800313607047ED
:1032B0001868026822F02002F2E723F08003F5E7A5
:1032C000B42100200120704707B502A90A2301F8A4
:1032D000010D01220448FFF76AFCB0FA80F04009B2
:1032E00003B05DF804FB00BFB4210020024B1B6853
:1032F0009B8C037001207047B42100207FB5114DD5
:10330000114B2B600646FEF7C5FE104BB0FBF3F0E9
:1033100031230138EB600E4B686000242846AC6016
:103320001E80FFF775F958B92023039001A928469C
:103330000193FFF787F9B0FA80F0400904B070BD3F
:103340002046FBE7943400200014004040420F0068
:1033500060080020034B04481A88044B1A80FFF7CA
:103360000DB800BF60080020943400205E080020E3
:103370000148FFF719B800BF9434002070B5FF234F
:10338000074D084E01441C46884202D143EA0420FE
:1033900070BD10F8012B5A40AB5C6340B45CF3E79E
:1033A000807600088077000810B514460846082289
:1033B0002146FFF787FF01280CD1B4F5964F97BF40
:1033C000064823206400B0FBF4F080B2FFF796FFBC
:1033D000012801D0032010BD002010BDA07F1700E0
:1033E00008B5054B002101201970FFF753FFBDE818
:1033F0000840FFF7AFBF00BF6208002008B50021FA
:103400000846FFF747FFBDE80840FFF7B1BF0000DF
:103410002DE9F041134D2B889BB2FF2B80460E46C1
:10342000174605D9104B114A11489C2102F004F8A7
:103430002B889BB2032B02D80520BDE8F081298898
:103440000C4C89B22046FFF799FF0028F4D114F8FC
:10345000012B298888F80020033939803460BDE8C1
:10346000F08100BF68080020C77800088078000855
:10347000EC780008EC1F002038B5034617480578A3
:10348000EDB2012D27D1164C481E2060154C258029
:1034900001F8013C238812FA83F292B2228021883B
:1034A00089B2FFF76BFF23880F499BB25A1C92B277
:1034B0002280C2B2CA5423889BB25A1C92B2C0F373
:1034C00007202280C854094B294600201D70FFF7B1
:1034D000E1FE002038BD052038BD00BF6208002095
:1034E000640800206A080020EC1F00206308002008
:1034F0001D4B1B7807B52BB11C4B1D4A1D48E621FF
:1035000001F09AFF0DF10700FFF7F0FE1A4B1A7851
:10351000032A22D8DFE802F01F02111F17490022F8
:103520000A800A8892B2501C80B2088014499DF823
:103530000700885402221A700DE0104A118889B2DF
:10354000FF290ED813889BB2591C89B211800C4AEE
:103550009DF80710D154FFF7FDFE002003B05DF881
:1035600004FB0322E7E700BF630800200D79000891
:103570008E780008EC7800086208002068080020B7
:10358000EC1F0020F8B51A4B1878C0B2012806D0FD
:10359000184B194A194840F2211101F04DFF184FFC
:1035A0003B7803F0FF061BB1012E05D000251DE07E
:1035B0003146FFF76FFEF9E7124D2C88A4B264B1D3
:1035C000114C23681878FFF77FFE236801332360CE
:1035D0002B88013B9BB22B80E8E70320FFF73EFEE0
:1035E000214605463046FFF755FE3C702846F8BD9B
:1035F000620800208B7900089F780008EC780008AA
:10360000630800206A0800206408002038B5144BC5
:103610001878C0B202281D460BD003281DD050B91F
:10362000FFF71CFE0446FFF7A3FE01232B70204684
:1036300038BD0120F4E71A7802F0FF04002AF2D026
:103640001A78022A09D01B78032B06D0054B064AAC
:10365000064840F25B1101F0EFFE0024E3E700BFF3
:103660006208002028790008B1780008EC7800088A
:1036700008B500F05FFB002008BD7FB5B0F9084039
:10368000866902690B4690E82200842C0296406904
:10369000019014BF033400240094284600F05CFA23
:1036A00004B070BD08B5002808BF012000F092FCEE
:1036B000002008BD00F1080343604FF0FF32C360F3
:1036C0000361002382600360704700230361704739
:1036D00043684B609A688A609A6851609960036891
:1036E00008610133036070470A68531C30B50AD182
:1036F00003695A684A6091608B6059600368086189
:103700000133036030BD00F108035C682568AA42FC
:10371000EFD32346F9E74168826803698A608268CB
:1037200051605968884208BF5A60002202611A68D5
:10373000013A1A601868704782B0002301930D4B5C
:103740001B68013308D04FF0500383F31188BFF397
:103750006F8FBFF34F8FFEE74FF0500383F3118855
:10376000BFF36F8FBFF34F8F019B002BFCD002B0D4
:10377000704700BF8C00002008480068006880F394
:1037800008884FF0000080F3148862B661B6BFF37A
:103790004F8FBFF36F8F00DF00BF000008ED00E028
:1037A000DFF80C00016841F470010160704700000F
:1037B00088ED00E04FF0807340F8043C074B40F880
:1037C0000C3C21F001016FF0020340F8081C40F8A6
:1037D000202C40F8243C4438704700BF393700089B
:1037E000074B19680868B0E8F04F80F30988BFF309
:1037F0006F8F4FF0000080F311887047AFF30080A7
:10380000740800204FF0500383F31188BFF36F8FCB
:10381000BFF34F8F0A4A13680133012B13600DD198
:10382000084B1B6813F0FF0F08D04FF0500383F3D1
:103830001188BFF36F8FBFF34F8FFEE7704700BF54
:103840008C00002004ED00E0084A136843B94FF0F3
:10385000500383F31188BFF36F8FBFF34F8FFEE7E1
:10386000013B13600BB983F3118870478C00002073
:10387000EFF30980BFF36F8F154B1A681EF0100F1E
:1038800008BF20ED108A20E9F04F10602DE90900F3
:103890004FF0500080F31188BFF34F8FBFF36F8F4D
:1038A00000F0BCFB4FF0000080F3118809BC1968E0
:1038B0000868B0E8F04F1EF0100F08BFB0EC108A97
:1038C00080F30988BFF36F8F704700BFAFF30080AC
:1038D0007408002008B54FF0500383F31188BFF33C
:1038E0006F8FBFF34F8F00F06BFA18B1034B4FF09F
:1038F00080521A60002383F3118808BD04ED00E0B4
:10390000084A0949002313600B60084B4FF47A7191
:103910001B68B3FBF1F30649013B0B6007231360FF
:10392000704700BF10E000E018E000E088010020D0
:1039300014E000E0394B3A4A13B51968914208D1B6
:103940004FF0500383F31188BFF36F8FBFF34F8F96
:10395000FEE71A68334B9A4208D14FF0500383F3C5
:103960001188BFF36F8FBFF34F8FFEE72E4B1A788E
:10397000D2B20192FF221A701B782C4ADBB28DF86A
:1039800003309DF8033003F050031370284B0722D7
:103990001A6000219DF80300000602F1FF340DD4E7
:1039A00001B11A601A68032A11D04FF0500383F353
:1039B0001188BFF36F8FBFF34F8FFEE79DF8032091
:1039C0005200D2B28DF8032001212246E2E7120212
:1039D00002F4E0621A60019B134ADBB21370154BCC
:1039E0001A6842F470021A601A6842F070421A6053
:1039F000FFF786FF104B00241C60FFF7D1FE0F4A33
:103A0000136843F040431360FFF7B6FE00F006FB77
:103A1000FFF792FE204602B010BD00BF00ED00E0AF
:103A200071C20F4170C20F4100E400E06C08002039
:103A30007008002020ED00E08C00002034EF00E052
:103A400080B5DFF86080134F134C144D236863B9C1
:103A5000134B1B68012BF8D94FF08053C8F8003086
:103A6000BFF34F8FBFF36F8FEEE7FFF7CBFEFB681F
:103A7000DE68301DFFF74FFE2B68013B2B6023688B
:103A8000013B2360FFF7E0FE06F14C0002F064F812
:103A9000DCE700BF80090020100900200C0900208D
:103AA0008008002004ED00E0064A13681968064B00
:103AB00019B94FF0FF321A6070471268D268D268A5
:103AC0005268F8E7780800204C090020F8B51B4B35
:103AD0001B4E1D680446306804300F46FFF71BFE7E
:103AE000334640B93168174EC96A326801208840B0
:103AF00022EA00023260621C07D137B1196812480D
:103B00000431BDE8F840FFF7E3BD2C441A68A54234
:103B1000546007D90D4A10681968BDE8F8400431AF
:103B2000FFF7E2BD0A4A106819680431FFF7DCFDAF
:103B3000084B1A68944238BF1C60F8BD94090020F5
:103B400074080020200900206C0900207C08002057
:103B5000780800204C0900202DE9F34780460B9897
:103B60000C9C994640B94FF0500383F31188BFF382
:103B70006F8FBFF34F8FFEE744B94FF0500383F3CD
:103B80001188BFF36F8FBFF34F8FFEE74FF4A2731F
:103B90000193019BB3F5A27F08D04FF0500383F34C
:103BA0001188BFF36F8FBFF34F8FFEE702F1804A9A
:103BB0000AF1FF3A206300EB8A004B1E20F0070A4F
:103BC00004F134020F31587802F8010B13F8010F99
:103BD00008B18B42F7D10A9D062D28BF0625002685
:103BE000271D84F84360E5626564A6643846FFF7E4
:103BF0006CFDC5F1070504F11800FFF766FDC4F878
:103C00003C613146A56184F84061F0222461646220
:103C100004F14C0001F07DFF354B2365354B6365A6
:103C2000354BA3654A4641465046FFF7C3FD206029
:103C3000FFF7E8FD314B324D1A68DFF8F0800132B2
:103C40001A602E68002E48D12C601B68012B1DD1F4
:103C500008EB06001436FFF72DFD8C2EF8D1DFF8A7
:103C6000D090284E4846FFF725FD3046FFF722FD4D
:103C70002548FFF71FFD2548FFF71CFD2448FFF7E7
:103C800019FD244BC3F80090234B1E60234A24499E
:103C90001368086801331360E26A01239340034309
:103CA00014200B6000FB02803946FFF711FDFFF77F
:103CB000CBFD1C4B1B6863B12B68DA6AE36A9A423E
:103CC00007D2194B4FF080521A60BFF34F8FBFF3EA
:103CD0006F8F204602B0BDE8F087124B1B68002BA7
:103CE000D4D12B68DA6AE36A9A4298BF2C60CDE798
:103CF000788D0008988D0008588D00080C09002068
:103D00007408002038090020540900208009002090
:103D10006C090020780800207C0800201C09002085
:103D2000200900206809002004ED00E08008002040
:103D30002409002010B588B0002407AA06A905A808
:103D40000594069400F06AFB059B0293069B019381
:103D500000942346079A0F490F48FFF7FDFEB8B1BC
:103D60004FF0500383F31188BFF36F8FBFF34F8F72
:103D70000A4B0B4A1B684C3313600A4B4FF0FF325F
:103D80001A60094B01221A60084B1C60FFF7D2FD34
:103D900008B010BDA1790008413A0008740800205D
:103DA0008C0100204C0900206809002094090020A3
:103DB000024A136801331360704700BF18090020DE
:103DC0002DE9F84F3C4B1B68002B53D13B4B1C6833
:103DD00001341C60BCB93A4B1A68126842B14FF00A
:103DE000500383F31188BFF36F8FBFF34F8FFEE74C
:103DF000344A1968106818601160334A1368013337
:103E00001360FFF751FE314D314F2B689C424FF04C
:103E1000000B3ED3DFF8A880DFF8C490D8F800206C
:103E2000126872BB4FF0FF322A6032E006F1040ADA
:103E30005046FFF770FCB16A19B106F11800FFF7A0
:103E40006AFCF06AD9F80030012202FA00F1194345
:103E5000204BC9F800104FF0140E51460EFB0030F5
:103E6000FFF736FC3868F16AC26A914228BF4FF00A
:103E7000010BD3E7184A1368013313604FF0000BAE
:103E800011E0D8F80020D268D66871688C42CDD293
:103E900029603A680F4BD16A14224A439A58022A81
:103EA00028BF4FF0010B0D4A1268002A18BF4FF0CF
:103EB000010B5846BDE8F88F18090020940900202E
:103EC000780800207C080020500900204C090020C0
:103ED00074080020800800201409002098090020A0
:103EE000200900202DE9F843314C236843B94FF0F5
:103EF000500383F31188BFF36F8FBFF34F8FFEE73B
:103F0000FFF780FC2368013B236024682CB1002468
:103F1000FFF79AFC2046BDE8F883264B1B68002B70
:103F2000F5D0DFF8A890244FDFF8A480D9F800304E
:103F3000E3B90CB1FFF7B8FD204D2C6844B1204E19
:103F40000127FFF73DFF00B13760013CF9D12C603C
:103F50001B4B1B68002BDAD01A4B4FF080521A60B3
:103F6000BFF34F8FBFF36F8F0124D1E7D9F80C3027
:103F7000DC68261D04F11800FFF7CDFB3046FFF783
:103F8000CAFBE26A3968012505FA02F314200B43E3
:103F900000FB028031463B60FFF79AFB0A4BE26A66
:103FA0001B68DB6A9A4224BF054B1D60BEE700BF59
:103FB000180900200C090020200900201409002005
:103FC0009809002004ED00E0740800205409002046
:103FD0008008002008B540B90E4B4FF080521A609F
:103FE000BFF34F8FBFF36F8F08BD0B4B196841B103
:103FF0004FF0500383F31188BFF36F8FBFF34F8FE0
:10400000FEE7FFF7D5FEFFF761FDFFF76BFF002826
:10401000E2D008BD04ED00E018090020194B1A6831
:10402000194B10B512B101221A6010BD1A60174B5E
:104030001B68B3FA83F3DBB2C3F11F0314221449E4
:104040005A4388188C5844B94FF0500383F31188B1
:10405000BFF36F8FBFF34F8FFEE744680832646889
:1040600044600A44944204BF62684260142202FB26
:1040700003135B68DA68074B1A601B68064A4C3307
:10408000136010BD180900209809002020090020A5
:1040900080080020740800208C010020054B1B685C
:1040A00033B1054B1B68002B0CBF0220002070476A
:1040B0000120704768090020180900207FB506AA72
:1040C0001F2302F8043D4FF4FA73029301238DE895
:1040D0000C0098211A46FDF7A5FA07B05DF804FB1D
:1040E0007FB506AA002302F8013D40F2DC5302939B
:1040F00001238DE80C0098210222FDF793FA07B006
:104100005DF804FB2DE9F04786B006AE002406F802
:10411000014D80460D4627464FF47A794FF0010A4B
:1041200005B11CB1384606B0BDE8F0872246012330
:104130009821CDF808908DE840044046FDF72AFB11
:104140009DF8174007460A3D0A2004F00404FCF7D6
:10415000A9FEADB2E4E700002DE9F04186B00125EB
:1041600005AB4FF47A7600930F46029601952B46E5
:104170000E2298218046FDF70DFB044638BB0DF159
:1041800015030093029601952B460F229821404675
:10419000FDF700FB0446D0B99DF814309DF81500DA
:1041A00040EA0320C0F30D00FCF7C4F90BA3D3E9E8
:1041B0000023FCF725FA0BA3D3E90023FCF74AFB05
:1041C0000022054BFCF76AF8FCF74CFC38602046EF
:1041D00006B0BDE8F08100BF000004407B14AE478C
:1041E000E11273400000000080842E4100000000B6
:1041F0002DE9F04186B0012505AB4FF47A760093A6
:104200000F46029601952B46082298218046FDF71D
:10421000C1FA044638BB0DF11503009302960195CF
:104220002B46092298214046FDF7B4FA0446D0B93E
:104230009DF814309DF8150040EA0320C0F30D00EE
:10424000FCF778F90AA3D3E90023FCF7D9F90AA30C
:10425000D3E90023FCF7FEFA02460B46FCF71EF8F2
:10426000FCF700FC3860204606B0BDE8F08100BFD6
:104270007B14AE47E11273400000000080842E41A1
:104280002DE9F04186B0012505AB4FF47A76009315
:104290000F46029601952B46062298218046FDF78F
:1042A00079FA044638BB0DF1150300930296019587
:1042B0002B46072298214046FDF76CFA0446D0B9F8
:1042C0009DF814309DF8150040EA0320C0F30D005E
:1042D000FCF730F90AA3D3E90023FCF791F90AA30C
:1042E000D3E90023FCF7B6FA02460B46FBF7D6FFEC
:1042F000FCF7B8FB3860204606B0BDE8F08100BF8F
:104300007B14AE47E11273400000000080842E4110
:1043100070EE607A10B517EE900A0C46FCF71CF9A7
:104320000022094BFCF76CF905A3D3E90023FCF745
:1043300091FAFCF797FB206010BD00BFAFF300803F
:10434000000000400AD7C33F00408F4011B911461A
:10435000FFF702BF012902D11146FFF791BF0429DF
:1043600002D11146FFF744BF0023136000207047BD
:104370009FED157ADFED157A1548164A80EE070A8B
:1043800008B5154B0F21F0EE086AE0EE267A87EEAD
:10439000A60A20EE070A83ED000A00F099FDDFED82
:1043A0000F7AB4EEE70AF1EE10FA81BF0C4B9FEDE5
:1043B0000D7AD3ED007AE0EE077A8ABF0120002063
:1043C000C3ED007A08BD00BF0000C842CDCCCCBD13
:1043D00090000020CC000020A0090020333333409F
:1043E0009C090020CDCCCC3D024B00221A60FFF787
:1043F000BFBF00BF9C09002010B5044C94ED000A1B
:10440000FFF7B6FF0028F9D1012010BDA009002058
:10441000014B93ED000A70479C090020034B036099
:10442000034B0B604FF4806313607047A4190020A6
:10443000A409002030B5A7B02822002106A801F069
:1044400068FB1422002101A801F063FB582200211F
:1044500010A801F05EFB0123099310230A934FF487
:10446000004302250D9306A84FF4E0130E93069522
:104470000C95FDF799FA0F230024019329464FF478
:10448000806301A80493029503940594FDF754FDFD
:10449000054B109310A8129413941794229423940C
:1044A000FDF728FE27B030BD230080012DE9F04F35
:1044B0008FB0FCF7D3FCFFF7BDFF1422002107A843
:1044C00001F027FB9C4B9D4D5A699D4E42F4002202
:1044D0005A615A6902F400220392039A5A6942F41B
:1044E00080025A615A6902F480020492049A5A695D
:1044F00042F400325A615A6902F400320592059A78
:104500005A6942F480225A615B6903F4802306935E
:1045100000224FF484614FF09040069BFCF7D8FED8
:1045200000224FF481618748FCF7D2FE4FF400531C
:104530000024079307A9844B844808934FF001088F
:104540000994FCF7EFFD4FF4846307A94FF0904006
:104550000793CDF8208009940A94FCF7E3FD4FF40B
:10456000816307A977480793CDF8208009940A94BE
:10457000FCF7D8FD4FF44073079307A9744B0893D9
:104580004FF09040CDF82480FCF7CCFD2246052169
:104590001720FCF7ADFC1720FCF7DEFC6D4B2B6001
:1045A0002846079408940994FCF7FAFC07A92246C8
:1045B0002846694D07940894FCF73FFD674A684B0D
:1045C000AC60284685E80C00C5F80C802C616C6155
:1045D000AC61EC612C62FCF7D4FF21462846FDF764
:1045E00097F921462846FDF7B9F95E4BB46048F6C5
:1045F000A04B40F6C419304686E80808C6F80C906F
:10460000B461079408940994FEF702F807A93046AC
:1046100007940994FEF716F85348544B544E84609F
:104620004FF416474FF00C0A80E88800C46004611C
:10463000C0F814A08461C46104624462FEF73EFBCA
:104640004C4BB460304686E81800F460B4610794BF
:1046500008940994FDF7DCFF07A93046464E0794FD
:104660000994FDF7EFFF454BB460304686E8080833
:10467000C6F80C9034617461B461FDF7C9FF40481D
:10468000404B846080E80808C0F80C9004614461E5
:104690008461FDF7BDFF3C483C4B846080E88800A6
:1046A000C4600461C0F814A08461C46104624462FF
:1046B000FEF704FB00F0E0FA204600F0A9FA04211E
:1046C0000F2000F0C7FB324A324806CA434600F0CA
:1046D000ABFB00F0ABFA2846FFF7F0FC3046FDF7E5
:1046E0004DFE2D4B2D4E0B221A8016225A80212270
:1046F0009A802C22DA8037221A8142225A814D2256
:104700009A815822DA810A213B46224600942046AB
:10471000FEF7BCFCFEF712FD0FCE07AD0FC596E805
:10472000070085E80700214607A8FEF7A6FF1C4BF7
:104730001860FEF79DFFFEE700100240F420002005
:104740004422002000040048000011100008004826
:104750000000211000740040082100200054004097
:104760000E09002000100040D43300200044004017
:1047700094340020001400405434002000440140D0
:104780006021002000480140B42100200038014091
:1047900008010020F28C0008141B00203876000865
:1047A000F020002037B5134C02AD002345F8043D3E
:1047B00020460093FFF794FC64212046FFF7A2FCFB
:1047C0002A460D4D00212046FFF7C0FD2A46012153
:1047D0002046FFF7BBFD6A4604212046FFF7B6FDE1
:1047E0000649DDED000A95ED000A2046FFF790FD31
:1047F00003B030BD08210020FC1A0020001B00205F
:10480000144B70B51D68144B144E1D60144B367854
:104810001C68144B1C60144B1868144B1860144B24
:104820001968144B1960144B1A68144B1A60144B16
:104830001E809D802E0C1C81250C9881040C1982F1
:10484000080C110C5E80DD805C81D88159829A82CF
:1048500070BD00BFF81A002034220020F11A002099
:10486000EC1A0020D4340020001B0020B0210020CE
:10487000FC1A0020EC200020F41A0020A0210020C7
:10488000141B002038B5104B104C1B78104D2DED2B
:10489000028B9FED108AF0EE088A63B900F00EFBE0
:1048A000C0EE087A84ED000A67EEA87AC5ED007ABA
:1048B000BDEC028B38BD95ED007AC7EE287A67EE25
:1048C000887AC4ED007AF3E7F11A0020EC1A002090
:1048D000E81A00200000C84208B5134D134C144ECE
:1048E000FFF760FFD5ED000A94ED000AFFF7CAFF5D
:1048F00094ED000A00F0B4FA0E4B86ED000A93ED39
:10490000000AFFF771FDFFF777FD012804D1FFF7DB
:104910007FFD094B83ED000AFFF772FFFEF720FCD5
:104920000120FEF7BFFEDBE7E81A0020FC1A00209A
:10493000F81A0020EC1A0020F41A0020B0F5807F4D
:1049400002D0B0F5007F02D10148FDF717BD7047D6
:104950004422002000000000642838B528BF6420ED
:104960000546FBF7E7FD00220F4B104CFBF772FFEB
:104970000BA3D3E90023FBF743FEFCF753F8002217
:10498000034611462046FCF71FFB094B1D702046CD
:104990000021BDE83840FCF729BB00BFAFF3008021
:1049A0000000000000FEAF4000005940F42000204D
:1049B000F01A002008B5054801224FF48061FCF789
:1049C00087FC0020BDE80840FFF7C6BF0004004890
:1049D000012802464FF4806118BF00220148FCF70D
:1049E00077BC00BF000400480C4B10B5044618709B
:1049F00030B9FFF7EDFF2046BDE81040FFF7ACBF30
:104A0000012803D1BDE81040FFF7D4BF022804D12C
:104A10000020FFF7DDFF0A20EEE710BDF11A0020AD
:104A200038B53D4B98425CD108213C483C4CFCF7E2
:104A300054FC4FF400714FF09040FCF743FC80BBF6
:104A40004FF480714FF09040FCF73CFC054640BBB2
:104A500022787AB901224FF484614FF09040FCF73C
:104A600037FC01232370FFF7A5FF2B48BDE8384032
:104A7000FDF79ABC012A09D14FF090404FF48461B0
:104A8000FCF726FC0220FFF7AFFFEEE7022AFAD17F
:104A900002464FF484614FF09040FCF719FC284621
:104AA000F1E72378022B0DD14FF400714FF09040C5
:104AB000FCF708FC30B91B4B18780A30C0B2FFF77E
:104AC0004BFFD2E72378022BCFD14FF480714FF008
:104AD0009040FCF7F7FB0028C7D1124B18780A3832
:104AE000ECE7114B984216D10D4B1B78013B012B83
:104AF00011D80E4BDFED0E7AD3ED000AB7EE000AA7
:104B0000C0EEA70A00F0D0F90A4BD3ED007A37EED9
:104B1000800A83ED000A38BD4422002000040048CA
:104B2000F11A0020F01A002054340020001B00204D
:104B300000007A44E81A0020B1F57A7F10B516D348
:104B40008B18B3F5856F12DC0A4B03EB4101A1F220
:104B5000D27102300AB9104610BD31F8023F00F898
:104B6000013C1C0A013A00F8024C92B2F1E7012024
:104B700010BD00BF141B0020B1F5FA6F10B52BD388
:104B80008C18B4F5FB6F27DC9BB1012B18D1134BAC
:104B900003EB4101A1F6A27102308AB110F8024C78
:104BA00010F8013C013A43EA042321F8023F92B293
:104BB000F2E70A4B03EB4101A1F6A27102300AB9F8
:104BC000002010BD31F8023F00F8013C1C0A013AF8
:104BD00000F8024C92B2F1E7012010BD041B002046
:104BE00001207047012070477FB506AA0A2302F80A
:104BF000010D029301238DE80C0078210022034867
:104C0000FCF710FD07B05DF804FB00BF0821002091
:104C100005490023021C18BF012252425A54013395
:104C2000B3F5806FF6D170479A1B00207FB5104E08
:104C3000104D0024A4F15000C0B2FFF7D5FF0020B2
:104C4000FFF7D2FF1020FFF7CFFF642302938023EA
:104C5000019306EBC41300934022012378212846D8
:104C60000134FCF7DFFC082CE4D104B070BD00BFB8
:104C70009A1B00200821002008B56420FCF712F9D7
:104C8000AE20FFF7B1FF2020FFF7AEFF1020FFF7A7
:104C9000ABFFB020FFF7A8FFC820FFF7A5FF00205B
:104CA000FFF7A2FF1020FFF79FFF4020FFF79CFFB8
:104CB0008120FFF799FFFF20FFF796FFA120FFF764
:104CC00093FFA620FFF790FFA820FFF78DFF3F205E
:104CD000FFF78AFFA420FFF787FFD320FFF784FFA9
:104CE0000020FFF781FFD520FFF77EFFF020FFF7C0
:104CF0007BFFD920FFF778FF2220FFF775FFDA202E
:104D0000FFF772FF1220FFF76FFFDB20FFF76CFF4A
:104D10002020FFF769FF8D20FFF766FF1420FFF7C3
:104D200063FFAF20FFF760FF0020FFF771FFFFF781
:104D30007DFF034B0120002258711A805A8008BD64
:104D4000941B0020030630B51BD43F2919D80D4B06
:104D50001B7913B1B2FA82F25209CB088025012ADD
:104D6000094C01F0070105FB030004D18A40215CD6
:104D70000A43225430BD01228A40215C21EA02010B
:104D8000215430BD941B00209A1B00202DE9F04FC8
:104D900087B0074606A800E906009B46214B9DF810
:104DA00010901C88019304EB09027F2A37DC5B8892
:104DB0009DF811A0009303EB0A023F2A2FDCA7F114
:104DC00020020AFB02F303930026564506D3019BFB
:104DD0004C441C80384607B0BDE8F08F039B059912
:104DE000F218002531F812300293009B03EB0608FD
:104DF0005FFA88F84D4501D30136E6E7029B03FAD6
:104E000005F2130405EB040056BFBBFA8BF25A46B9
:104E100052094146C0B2FFF795FF0135EAE7002786
:104E2000D8E700BF941B0020F7B58DE806006D465B
:104E30001F46461E74784CB120463B4695E8060056
:104E4000FFF7A4FF16F8014FA042F3D0204603B0AD
:104E5000F0BD0000014B188059807047941B002062
:104E6000DFED0E7A9FED0E7ADFED0E6A70EE677A57
:104E7000F4EE477AF1EE10FA48BFF0EE477A87EE8B
:104E8000A67AF3EE047AB4EE677AF1EE10FAC8BFB0
:104E9000B0EE677A27EE000A704700BF3333334025
:104EA000000000000AD7A33C20EEC00ADFED027A22
:104EB00080EE270A704700BF00006145024A0348A0
:104EC0000F2100F005B800BF4C01002010010020A8
:104ED000D0ED007AF4EEC07AF1EE10FA10B502DDF2
:104EE00092ED000A10BD01F18044013CA4000319B9
:104EF000D3ED007AB4EEE70AF1EE10FA28DC041DD7
:104F0000002301398B4203F1010306DAF4EC017A44
:104F1000B4EEE70AF1EE10FAF4D59B00191F44181D
:104F200011441A4494ED006AD1ED006AD2ED007A82
:104F3000034430EE460A77EEE67A93ED007A67EEA8
:104F4000807A37EE467A87EE870A30EE260A10BD61
:104F50002244C5E70E4B07B59A6942F001029A61F7
:104F60009A6902F001020092009ADA6942F08052D6
:104F7000DA61DB6903F08053019300220F216FF0A7
:104F80000100019BFBF7B4FF03B05DF804FB00BF19
:104F90000010024010B5044688B01422002103A876
:104FA00000F0B7FD2268154B9A4224D103F5CE33A9
:104FB00003A9DA6942F00052DA61DA6902F00052BC
:104FC0000192019A5A6942F400325A615B6903F412
:104FD00000330293029B102303934FF0904003236E
:104FE0000493FCF79FF8362000220521FBF780FF91
:104FF0003620FBF7B1FF08B010BD00BF00740040C1
:1050000010B5044688B01422002103A800F081FDE9
:105010002268124B9A421FD1114C1248636943F423
:1050200080236361636903F480230193019B4FF440
:1050300040730393122304930323069303A90423C9
:105040000793FCF76FF8E36943F40013E361E36946
:1050500003F400130293029B08B010BD00540040FB
:1050600000100240000400481FB50368294A93421B
:1050700014D1294BDA6942F01002DA61DB6903F0DE
:1050800010030093362000220521009BFBF730FF20
:105090003620FBF761FF05B05DF804FB1F4A934221
:1050A00010D11D4BDA6942F02002DA61DB6903F0AE
:1050B00020030193372000220521019BFBF718FFF5
:1050C0003720E6E7164A934210D1134B9A6942F40F
:1050D00000329A619B6903F4003302931920002285
:1050E0000521029BFBF704FF1920D2E70D4A9342EA
:1050F000D1D1094B9A6942F480229A619B6903F4E9
:10510000802303931A2000220521039BFBF7F0FE66
:105110001A20BEE7001000400010024000140040BA
:10512000004401400048014010B514228AB00446F2
:1051300000210DEB020000F0ECFC2368274A9342AB
:1051400028D1274B27489A6942F480429A619A698C
:1051500002F480420192019A5A6942F400225A6193
:105160005B6903F400230293029B3023059302231F
:1051700006930323089305A907230993FBF7D2FF9E
:10518000252000220521FBF7B3FE2520FBF7E4FED6
:105190000AB010BD144A9342FAD1114BDA6942F4B5
:1051A0000032DA61DA6902F400320392039A5A6932
:1051B00042F400325A615B6903F400330493049BA8
:1051C0000C230593022306930323089305A90723C1
:1051D0004FF090400993FBF7A5FFD9E70038014055
:1051E00000100240000800480044004070471EF0D4
:1051F000040F0CBFEFF30880EFF309808169004AC8
:10520000104701530008FEE7FEE7FEE7FEE77047A0
:1052100008B5FBF735FEFEF741FF012803D0BDE8D6
:105220000840FEF757BB08BD08B54FF48070FCF787
:105230005BF84FF40070BDE80840FCF755B800007B
:105240000148FDF7CAB800BF543400200148FDF7FB
:10525000C4B800BF6021002010B50F4C2368D96985
:105260001A68880608D5910606D50C4B1B68984726
:10527000236801221A6210BDDA69120607D51B687D
:105280001B0604D5064BBDE810401B6818470248B2
:10529000BDE81040FDF736BAB4210020E01F002021
:1052A000D81F002008B50448FDF797F80348BDE86B
:1052B0000840FBF7E3BE00BF44220020F42000209A
:1052C00008B50C4B1B681A69D1070ED5DA68D207EE
:1052D0000BD56FF001021A61074A1388013B9BB29C
:1052E000138013B9054B1B6898470248BDE8084076
:1052F000FDF773B8943400205E080020DC1F002006
:1053000088B0036800934368019383680293C3687D
:105310000393036904934369059383690693C369FF
:105320000793FEE70120704708B500F0A3F81623A5
:1053300003604FF0FF3008BD08B500F09BF816235E
:105340000360FEE770B50E4615460C46A31B9D4252
:1053500001DC284670BDAFF3008004F8010BF5E7CF
:1053600070B50E4615460C46A31B9D4201DC28462F
:1053700070BD14F8010BAFF30080F5E708B50A4BD8
:105380001968024609B90949196018686946024452
:105390008A4206D900F06EF80C2303604FF0FF300C
:1053A00008BD1A6008BD00BF9C1F0020E834002023
:1053B0004FF0FF3070474FF400534B6000207047B0
:1053C0000120704700207047054BD3F8882042F435
:1053D0007002C3F888204FF000629A60704700BFE7
:1053E00000ED00E0DFF834D0002103E00C4B5B5807
:1053F000435004310B480C4B42189A42F6D30B4AE7
:1054000002E0002342F8043B094B9A42F9D3FFF72C
:10541000DBFF00F03DF9FFF749F8FEE7000001204F
:105420001C8F000800000020FC070020FC07002063
:10543000E8340020FEE700001FB51C46094B1B683E
:105440000546D86852B1084B02928DE80A00224600
:105450002B46064900F0ECF801F082F9044B1A469D
:10546000F2E700BF8C0100201A8D0008278D00088C
:10547000558D0008014B1868704700BF8C01002053
:10548000014900F0E7B800BF91670008002310B59C
:10549000044603604360836081814366C281036187
:1054A00043618361194608225C3000F032FB054BF2
:1054B0006362054BA362054BE362054B24622363E1
:1054C00010BD00BF455C0008675C00089F5C0008D9
:1054D000C35C000870B54A1E682555430E4605F1A9
:1054E000740100F0FDF8044640B1002180E842005C
:1054F0000C30A06005F1680200F00BFB204670BD87
:10550000014800F0EBB800BFE0340020014800F093
:10551000E6B800BFE0340020014800F0DFB800BF6B
:10552000DB340020014800F0DAB800BFDB34002093
:1055300010B50446FFF7F0FFA3691BB1BDE81040AA
:10554000FFF7F0BFC4F8D830C4F8DC30C4F8E0305E
:10555000124B134A1B68A2629C4204BF0123A36141
:10556000204600F01FF86060204600F01BF8A060A5
:10557000204600F017F80022E06004216068FFF781
:1055800085FF01220921A068FFF780FF0222122176
:10559000E068FFF77BFF0123A361CFE7B88D000828
:1055A00081540008F8B50746FFF7AAFF1F4B1E6895
:1055B000B36913B93046FFF7BBFFD836B4687368D8
:1055C000013B03D5336833B13668F7E7B4F90C50C3
:1055D0007DB16834F4E704213846FFF77BFF0446C9
:1055E00030600028F0D1FFF791FF0C233B6020468C
:1055F000F8BD4FF6FF73E3810123A38104F1580046
:10560000656600F069F8FFF781FF2560A5606560B9
:1056100025616561A5610822294604F15C0000F05E
:1056200078FA6563A563A564E564E0E7B88D0008D2
:105630000EB403B5014603AB054853F8042B0068CC
:10564000019300F077FB02B05DF804EB03B0704704
:105650008C0100202DE9F8438046894600F1D804EA
:10566000002614B93046BDE8F883A5686768013F95
:1056700001D52468F5E7AB89012B07D9B5F90E30C0
:10568000013303D029464046C84706436835EEE754
:1056900070B50D4E0D4CA41BA4100025A54209D1D8
:1056A0000B4E0C4C01F0BCFFA41BA4100025A5421E
:1056B00005D170BD56F8253098470135EEE756F80C
:1056C000253098470135F2E7148F0008148F000841
:1056D000148F0008188F0008704770477047704794
:1056E0002DE9F74F01F10B04162C814607D934F050
:1056F000070405D50C23C9F80030002631E1102439
:105700008C42F7D3484600F00DFAB4F5FC7F9C4D6F
:1057100036D204F108022A44A2F1080156688E42EA
:105720004FEAD40302D1D668B24210D07368F2684F
:10573000B16823F00303CA60334491605A6842F0B1
:1057400001025A60484600F0F3F9083609E10233D5
:105750008C4A2E69964211466DD0706820F0030085
:10576000071B0F2F47DD331944F0010474606B6190
:105770002B61DA609A6047F001025A603750E1E726
:10578000630A2AD0042B12D8A30938335A1C05EB1C
:10579000C202A2F108005668864206D0726822F062
:1057A0000302111B0F291CDD013B0133D0E7142B31
:1057B00001D85B33EAE7542B02D8230B6E33E5E7BD
:1057C000B3F5AA7F02D8E30B7733DFE740F25452F8
:1057D000934204D8A30C7C33D8E73F23D6E77E233B
:1057E000D4E70029F16804DBB368D9608B60B31893
:1057F000A4E70E46D0E7002F6A612A6105DB30443A
:10580000436843F0010343609CE7B0F5007F44D256
:10581000C0088710012202FA07F76A6801303A438C
:105820006A6005EBC00255F83070B760083AF26064
:1058300045F83060FE6001209A1000FA02F26868B4
:10584000824200F2A180024206D123F003035200FB
:10585000024203F10403FAD005EBC30CE0469E4676
:10586000D8F80C60464553D10EF1010E1EF0030F1F
:1058700008F10808F4D1980779D16B6823EA02038C
:105880006B606868520082427ED8002A7CD07346E2
:105890000242E1D104335200FAE7420A042A15D841
:1058A00082093832571C05EBC20E55F83770BE45D9
:1058B00026D10120921000FA02F268681043686055
:1058C000C6F80CE0B760CEF80860B3E7142A01D838
:1058D0005B32E7E7542A02D8020B6E32E2E7B2F5F8
:1058E000AA7F02D8C20B7732DCE740F25457BA42A3
:1058F0009ABF820C7C327E22D4E7BF68BE4504D0BA
:105900007A6822F003029042F7D3D7F80CE0D7E789
:105910007068F76820F00300A0EB040ABAF10F0FDB
:1059200010DDB268331944F001047460D760BA60C6
:105930004AF001026B612B61D96099605A6046F8A8
:1059400000A0FFE6BAF1000F0FDB3044436843F0DC
:105950000103436056F8083F4846DF60BB6000F033
:10596000E7F8304603B0BDE8F08F3E467AE75CF8D2
:105970000809844503F1FF333FF47DAF81E700BFA1
:105980008002002088020020D5F808B0DBF804600F
:1059900026F00306B44203D8331B0F2B00F3968086
:1059A0004F4A17684F4A1168103701310BEB060355
:1059B000274405D04C4901390F44013149420F4079
:1059C000394648460192009300F02CF9B0F1FF3FB0
:1059D000804656D0009B019A834201D9AB4550D1F5
:1059E00042480168434507EB010EC0F800E040491A
:1059F000824613D10B4211D1AB683E4446F00106FA
:105A00005E603C4ADAF8003011688B4288BF136050
:105A1000394A11688B4288BF136032E01068013048
:105A20001BBFA8EB03037344C2F80080CAF8003020
:105A300018F007001CBFC0F1080080442A4B4744FF
:105A400018440F40C71B3946484600F0EBF8431C8A
:105A500008BF4046DAF80030C5F8088008BF0027C4
:105A6000A0EB08003B44074447F00107AB45CAF8E8
:105A70000030C8F80470C4D00F2E10D80123C8F825
:105A80000430AB685A6822F003029442A2EB04038C
:105A900001D80F2B1ADC484600F04AF82DE6DBF857
:105AA00004300C3E26F0070603F001033343CBF825
:105AB00004300BEB060305220F2E5A609A60A0D922
:105AC0000BF10801484601F05DF89AE7AE6844F032
:105AD0000102344443F001037260AC60636031E65C
