:020000040800F2
:1000000000000120FD5C0008F95A0008FB5A0008B6
:10001000155B0008175B0008195B00080000000072
:10002000000000000000000000000000413F000848
:100030001B5B000800000000D13F00081D5B0008AA
:100040004D5D00084D5D00084D5D00084D5D0008E8
:100050004D5D00084D5D00084D5D00084D5D0008D8
:100060004D5D00084D5D00084D5D00084D5D0008C8
:100070004D5D00084D5D00084D5D00084D5D0008B8
:100080004D5D00084D5D00084D5D00084D5D0008A8
:10009000355B00084D5D00084D5D0008415B0008C0
:1000A0004D5D0008595B0008655B00084D5D000868
:1000B0004D5D00084D5D00084D5D00084D5D000878
:1000C0004D5D00084D5D00084D5D00084D5D000868
:1000D0004D5D0008715B00084D5D00084D5D000836
:1000E0004D5D00084D5D00084D5D00084D5D000848
:1000F0004D5D00084D5D00084D5D00084D5D000838
:100100004D5D000800000000000000004D5D00088B
:100110004D5D00084D5D0008BD5B0008D95B00081F
:100120004D5D00084D5D00084D5D00084D5D000807
:100130004D5D00084D5D000800000000000000005B
:100140004D5D00084D5D00084D5D00080000000099
:10015000000000000000000000000000000000009F
:100160004D5D00084D5D00084D5D00084D5D0008C7
:100170004D5D00084D5D00084D5D00084D5D0008B7
:100180004D5D00084D5D000800000000000000000B
:040190004D5D0008B9
:1001A00010B5054C237833B9044B13B10448AFF3B1
:1001B00000800123237010BD08080020000000000B
:1001C00024B4000808B5034B1BB103490348AFF33F
:1001D000008008BD000000000C08002024B40008C6
:1001E00001F0FF01102A2BDB10F0070F08D010F8E8
:1001F000013B013A8B422DD010F0070F42B3F6D1EC
:10020000F0B441EA012141EA014122F007047FF004
:1002100000070023F0E80256083C85EA010586EA5B
:10022000010685FA47F5A3FA87F586FA47F6A5FA97
:1002300087F68EB9EED1F0BC01F0FF0102F00702A3
:1002400032B110F8013B013A83EA010313B1F8D14E
:100250000020704701387047002D06BF354603382F
:10026000073815F0010F07D1013015F4807F02BF68
:10027000013015F4C03F0130F0BC0138704700BFB9
:10028000034613F8012B002AFBD1181A01387047D6
:1002900081F0004102E000BF83F0004330B54FEA37
:1002A00041044FEA430594EA050F08BF90EA020FA4
:1002B0001FBF54EA000C55EA020C7FEA645C7FEA37
:1002C000655C00F0E2804FEA5454D4EB5555B8BF5A
:1002D0006D420CDD2C4480EA020281EA030382EACB
:1002E000000083EA010180EA020281EA0303362D5D
:1002F00088BF30BD11F0004F4FEA01314FF4801C30
:100300004CEA113102D0404261EB410113F0004F41
:100310004FEA03334CEA133302D0524263EB4303F8
:1003200094EA050F00F0A780A4F10104D5F1200E96
:100330000DDB02FA0EFC22FA05F2801841F10001F1
:1003400003FA0EF2801843FA05F359410EE0A5F1C5
:1003500020050EF1200E012A03FA0EFC28BF4CF0F6
:10036000020C43FA05F3C01851EBE37101F00045AC
:1003700007D54FF0000EDCF1000C7EEB00006EEBB9
:100380000101B1F5801F1BD3B1F5001F0CD3490843
:100390005FEA30004FEA3C0C04F101044FEA44529A
:1003A00012F5800F80F09A80BCF1004F08BF5FEA21
:1003B000500C50F1000041EB045141EA050130BD01
:1003C0005FEA4C0C404141EB010111F4801FA4F1A4
:1003D0000104E9D191F0000F04BF01460020B1FAF9
:1003E00081F308BF2033A3F10B03B3F120020CDA31
:1003F0000C3208DD02F1140CC2F10C0201FA0CF00F
:1004000021FA02F10CE002F11402D8BFC2F1200C73
:1004100001FA02F120FA0CFCDCBF41EA0C01904029
:10042000E41AA2BF01EB0451294330BD6FEA040472
:100430001F3C1CDA0C340EDC04F11404C4F120025D
:1004400020FA04F001FA02F340EA030021FA04F36F
:1004500045EA030130BDC4F10C04C4F1200220FAC6
:1004600002F001FA04F340EA0300294630BD21FA04
:1004700004F0294630BD94F0000F83F4801306BFCA
:1004800081F480110134013D4EE77FEA645C18BFBE
:100490007FEA655C29D094EA050F08BF90EA020F55
:1004A00005D054EA000C04BF1946104630BD91EA4D
:1004B000030F1EBF0021002030BD5FEA545C05D150
:1004C0004000494128BF41F0004130BD14F580048F
:1004D0003CBF01F5801130BD01F0004545F0FE4103
:1004E00041F470014FF0000030BD7FEA645C1ABF38
:1004F000194610467FEA655C1CBF0B46024650EA6F
:10050000013406BF52EA033591EA030F41F400219A
:1005100030BD00BF90F0000F04BF0021704730B520
:100520004FF4806404F132044FF000054FF00001F5
:1005300050E700BF90F0000F04BF0021704730B5B6
:100540004FF4806404F1320410F0004548BF40428B
:100550004FF000013EE700BF42004FEAE2014FEAE0
:1005600031014FEA02701FBF12F07F4393F07F4FBB
:1005700081F06051704792F0000F14BF93F07F4FED
:10058000704730B54FF4607401F0004521F0004130
:1005900020E700BF50EA010208BF704730B54FF0B6
:1005A00000050AE050EA010208BF704730B511F0BB
:1005B000004502D5404261EB41014FF4806404F1F3
:1005C00032045FEA915C3FF4DCAE4FF003025FEA75
:1005D000DC0C18BF03325FEADC0C18BF033202EBFD
:1005E000DC02C2F1200300FA03FC20FA02F001FA57
:1005F00003FE40EA0E0021FA02F11444C1E600BFF6
:1006000070B54FF0FF0C4CF4E06C1CEA11541DBFA8
:100610001CEA135594EA0C0F95EA0C0F00F0DEF873
:100620002C4481EA030621EA4C5123EA4C5350EA58
:10063000013518BF52EA033541F4801143F48013A9
:1006400038D0A0FB02CE4FF00005E1FB02E506F03A
:100650000042E0FB03E54FF00006E1FB03569CF08F
:10066000000F18BF4EF0010EA4F1FF04B6F5007F95
:1006700064F5407404D25FEA4E0E6D4146EB060607
:1006800042EAC62141EA55514FEAC52040EA5E5090
:100690004FEACE2EB4F1FD0C88BFBCF5E06F1ED83A
:1006A000BEF1004F08BF5FEA500E50F1000041EB71
:1006B000045170BD06F0004646EA010140EA02001E
:1006C00081EA0301B4EB5C04C2BFD4EB0C0541EA40
:1006D000045170BD41F480114FF0000E013C00F355
:1006E000AB8014F1360FDEBF002001F0004170BD79
:1006F000C4F10004203C35DA0C341BDC04F1140492
:10070000C4F1200500FA05F320FA04F001FA05F21D
:1007100040EA020001F0004221F0004110EBD370EA
:1007200021FA04F642EB06015EEA430E08BF20EA16
:10073000D37070BDC4F10C04C4F1200500FA04F3B9
:1007400020FA05F001FA04F240EA020001F000414B
:1007500010EBD37041F100015EEA430E08BF20EABE
:10076000D37070BDC4F1200500FA05F24EEA020E06
:1007700020FA04F301FA05F243EA020321FA04F035
:1007800001F0004121FA04F220EA020000EBD370EC
:100790005EEA430E08BF20EAD37070BD94F0000FEC
:1007A0000FD101F00046400041EB010111F4801F20
:1007B00008BF013CF7D041EA060195F0000F18BFD1
:1007C000704703F00046520043EB030313F4801F0D
:1007D00008BF013DF7D043EA0603704794EA0C0FC7
:1007E0000CEA135518BF95EA0C0F0CD050EA4106DD
:1007F00018BF52EA4306D1D181EA030101F000415A
:100800004FF0000070BD50EA410606BF1046194681
:1008100052EA430619D094EA0C0F02D150EA01368D
:1008200013D195EA0C0F05D152EA03361CBF1046CE
:1008300019460AD181EA030101F0004141F0FE416D
:1008400041F470014FF0000070BD41F0FE4141F4F1
:10085000780170BD70B54FF0FF0C4CF4E06C1CEAF1
:1008600011541DBF1CEA135594EA0C0F95EA0C0FA6
:1008700000F0A7F8A4EB050481EA030E52EA033561
:100880004FEA013100F088804FEA03334FF0805582
:1008900045EA131343EA12634FEA022245EA1115AF
:1008A00045EA10654FEA00260EF000419D4208BF60
:1008B000964244F1FD0404F5407402D25B084FEA0D
:1008C0003202B61A65EB03055B084FEA32024FF4B9
:1008D00080104FF4002CB6EB020E75EB030E22BF16
:1008E000B61A754640EA0C005B084FEA3202B6EBD6
:1008F000020E75EB030E22BFB61A754640EA5C0085
:100900005B084FEA3202B6EB020E75EB030E22BF14
:10091000B61A754640EA9C005B084FEA3202B6EB15
:10092000020E75EB030E22BFB61A754640EADC00D4
:1009300055EA060E18D04FEA051545EA16754FEA36
:1009400006164FEAC30343EA52734FEAC2025FEA54
:100950001C1CC0D111F4801F0BD141EA00014FF0E3
:1009600000004FF0004CB6E711F4801F04BF0143B4
:100970000020B4F1FD0C88BFBCF5E06F3FF6AFAED0
:10098000B5EB030C04BFB6EB020C5FEA500C50F160
:10099000000041EB045170BD0EF0004E4EEA1131E3
:1009A00014EB5C04C2BFD4EB0C0541EA045170BDEA
:1009B00041F480114FF0000E013C90E645EA060E2E
:1009C0008DE60CEA135594EA0C0F08BF95EA0C0F5C
:1009D0003FF43BAF94EA0C0F0AD150EA01347FF4A4
:1009E00034AF95EA0C0F7FF425AF104619462CE77B
:1009F00095EA0C0F06D152EA03353FF4FDAE1046DE
:100A0000194622E750EA410618BF52EA43067FF42E
:100A1000C5AE50EA41047FF40DAF52EA43057FF4BE
:100A2000EBAE12E74FF0FF3C06E000BF4FF0010CC9
:100A300002E000BF4FF0010C4DF804CD4FEA410C2D
:100A40007FEA6C5C4FEA430C18BF7FEA6C5C1BD0FA
:100A500001B050EA410C0CBF52EA430C91EA030F7B
:100A600002BF90EA020F0020704710F1000F91EAD8
:100A7000030F58BF994208BF90422CBFD8176FEAA6
:100A8000E37040F0010070474FEA410C7FEA6C5C74
:100A900002D150EA013C07D14FEA430C7FEA6C5C7B
:100AA000D6D152EA033CD3D05DF8040B704700BFA7
:100AB0008446104662468C461946634600E000BFF5
:100AC00001B5FFF7B7FF002848BF10F1000F01BDC7
:100AD0004DF808EDFFF7F4FF0CBF012000205DF892
:100AE00008FB00BF4DF808EDFFF7EAFF34BF012017
:100AF00000205DF808FB00BF4DF808EDFFF7E0FFB0
:100B000094BF012000205DF808FB00BF4DF808ED00
:100B1000FFF7CEFF94BF012000205DF808FB00BF67
:100B20004DF808EDFFF7C4FF34BF012000205DF849
:100B300008FB00BF4FEA410C7FEA6C5C02D150EA2F
:100B4000013C0AD14FEA430C7FEA6C5C02D152EAC5
:100B5000033C02D14FF0000070474FF00100704796
:100B60004FEA410212F5001215D211D56FF47873D5
:100B7000B3EB625212D94FEAC12343F0004343EA78
:100B8000505311F0004F23FA02F018BF4042704753
:100B90004FF00000704750EA013005D111F00040DD
:100BA00008BF6FF0004070474FF00000704700BF73
:100BB0004A0011D212F5001211D20DD56FF47873DC
:100BC000B3EB62520ED44FEAC12343F0004343EA31
:100BD000505323FA02F070474FF00000704750EA7C
:100BE000013002D14FF0FF3070474FF000007047E6
:100BF0004FEA4102B2F1E04324BFB3F5001CDCF13F
:100C0000FE5C0DD901F0004C4FEAC0024CEA507076
:100C1000B2F1004F40EB830008BF20F001007047A5
:100C200011F0804F21D113F13872BCBF01F00040A8
:100C3000704741F480114FEA5252C2F11802C2F1DA
:100C4000200C10FA0CF320FA02F018BF40F001005B
:100C50004FEAC1234FEAD32303FA0CFC40EA0C000D
:100C600023FA02F34FEA4303CCE77FEA625307D14A
:100C700050EA01331EBF4FF0FE4040F44000704781
:100C800001F0004040F0FE4040F40000704700BF1B
:100C900053B94AB9002908BF00281CBF4FF0FF31E3
:100CA0004FF0FF3000F07AB9ADF1080C6DE904CED9
:100CB00000F006F8DDF804E0DDE9022304B0704737
:100CC0002DE9F0478C460D460446089E002B51D175
:100CD0008A4217466DD9B2FA82FEBEF1000F0BD0E0
:100CE000CEF1200C01FA0EF520FA0CFC02FA0EF7F8
:100CF0004CEA050C00FA0EF44FEA174A250CBCFB2F
:100D0000FAF81FFA87F90AFB18CC45EA0C4508FBEC
:100D100009F3AB420AD9ED1908F1FF3280F02381C3
:100D2000AB4240F22081A8F102083D44ED1AA4B282
:100D3000B5FBFAF00AFB105544EA054400FB09F93B
:100D4000A14509D9E41900F1FF3380F00A81A145DA
:100D500040F2078102383C44A4EB090440EA084011
:100D60000021002E61D024FA0EF400233460736059
:100D7000BDE8F0878B4207D9002E54D0002186E8C9
:100D800021000846BDE8F087B3FA83F1002940F05E
:100D90008E80AB4202D3824200F2FA80841A65EB65
:100DA00003050120AC46002E3FD086E81010BDE8B8
:100DB000F08712B90127B7FBF2F7B7FA87FEBEF149
:100DC000000F34D1EB1B3A0C1FFA87FC0121B3FB57
:100DD000F2F8250C02FB183345EA03450CFB08F337
:100DE000AB4207D9ED1908F1FF3002D2AB4200F255
:100DF000D1808046ED1AA3B2B5FBF2F002FB10558C
:100E000043EA05440CFB00FCA44507D9E41900F1B2
:100E1000FF3302D2A44500F2B8801846A4EB0C04BC
:100E200040EA08409DE731463046BDE8F087CEF104
:100E3000200405FA0EF307FA0EF720FA04F83A0C2C
:100E400025FA04F448EA0308B4FBF2F14FEA184526
:100E500002FB11441FFA87FC45EA044501FB0CF331
:100E6000AB4200FA0EF409D9ED1901F1FF3080F020
:100E70008A80AB4240F2878002393D44EB1A1FFA68
:100E800088F5B3FBF2F002FB103345EA034500FBA3
:100E90000CF3AB4207D9ED1900F1FF386FD2AB422A
:100EA0006DD902383D44EB1A40EA01418FE7C1F1A8
:100EB000200722FA07F88B4005FA01F448EA0303F9
:100EC00020FA07FE4FEA134CFD404EEA040EB5FB34
:100ED000FCF94FEA1E440CFB19551FFA83F844EA4B
:100EE000054509FB08F4AC4202FA01F200FA01FAE6
:100EF00008D9ED1809F1FF3043D2AC4241D9A9F12C
:100F000002091D442D1B1FFA8EFEB5FBFCF00CFBE5
:100F100010554EEA054400FB08F8A04507D9E4182F
:100F200000F1FF3529D2A04527D902381C4440EAF8
:100F30000940A4EB0804A0FB02894C45C6464D4677
:100F400015D312D056B1BAEB0E0364EB050404FAC4
:100F500007F7CB401F43CC40376074600021BDE8E9
:100F6000F0871846F8E69046E0E6C245EAD2B8EBCC
:100F7000020E69EB03050138E4E72846D7E740464F
:100F800091E78146BEE7014678E702383C4445E7F1
:100F9000084608E7A8F102083D442BE7704700BF68
:100FA00038B50E4A0E4B054618784FF47A73B3FBEA
:100FB000F0F31068B0FBF3F000F0A6FB044658B95C
:100FC0000F2D09D8024629464FF0FF3000F05AFB9A
:100FD000044B20461D6038BD012038BD940100201F
:100FE0000000002004000020074A08B5136843F001
:100FF00010031360032000F033FB0F20FFF7D0FF36
:1010000004F0F4FB002008BD00200240034A044B1A
:1010100011681B780B441360704700BF1820002034
:1010200000000020014B1868704700BF1820002006
:1010300038B50446FFF7F6FF631C1CBF054B1B7851
:10104000054618BFE418FFF7EDFF401B8442FAD8AD
:1010500038BD00BF0000002038B5044600286ED01F
:1010600090F820300BB904F0E1FB2268136823F0FC
:1010700002031360FFF7D6FF054623685A689107FD
:1010800051D41A6842F001021A60FFF7CBFF0546FF
:1010900023685A68D20754D5227E012A1A680CBFE9
:1010A00042F0800222F080021A60627E012A1A68F1
:1010B0000CBF42F0400222F040021A60A27E012AD8
:1010C0001A680CBF42F0200222F020021A60E27E71
:1010D000012A1A680CBF22F0100242F010021A60B6
:1010E000227F012A1A680CBF42F0080222F008028F
:1010F0001A60627F012A1A680CBF42F0040222F0D3
:1011000004021A60E168A2680A4321690A4361691E
:101110000A43616801390A43DA61002001236062F1
:1011200084F8203038BDFFF77DFF401B0A28A4D982
:10113000636A43F400336362052384F8203001209E
:1011400038BDFFF76FFF401B0A28A1D9F0E790F8E0
:101150002030013B012B70B55FD803684869D3F894
:10116000002242F00102C3F80022012400F01F0215
:10117000D3F81C5204FA02F2D4432540C3F81C529F
:10118000CD6985BBD3F80C52CE682540C3F80C520C
:101190008D8803EBC00045EA0645C0F840528E68D2
:1011A0000D8845EA0645C0F84452886968BBD3F803
:1011B00004022040C3F80402086950BBD3F81402AB
:1011C0002040C3F81402096A012902BFD3F81C1297
:1011D0000A43C3F81C22D3F8002222F00102C3F80C
:1011E0000022002070BD012DDFD1D3F80C520E6813
:1011F0001543C3F80C528D8803EBC00045EA064541
:10120000C0F840528E688D89CBE7D3F804021043B2
:10121000D0E7D3F814021043D3E7436A43F48023A2
:101220004362012070BD38B590F82030012B044690
:101230001FD10268022380F82030136823F00103D5
:101240001360FFF7EFFE05462368586810F00100B1
:1012500001D1606238BDFFF7E5FE401B0A28F3D9D3
:10126000636A43F400336362052384F8203001206D
:1012700038BD436A43F400234362F8E7F0B590F8C1
:1012800020500668013D012DB46840D814F0E05F9D
:1012900039D0C4F30164032C4FF0010505D1436A32
:1012A00043F4000343620120F0BDA5401D6088683F
:1012B000CF6804F1180308BB086847EA40501B01D7
:1012C0002401F05033190869097DC3F8840101290C
:1012D00002BFD3F8841141F48071C3F884113444FF
:1012E0005168C4F88C111268C4F88821D3F88021A1
:1012F00042F00102C3F880210020F0BD4D68384360
:1013000040EAC500DBE7436A43F40013CAE7436AD7
:1013100043F48023C6E790F82030013B012B0CD822
:10132000036898689A689B681201C0F3806048BFA0
:101330000130DB0002D50130704700207047F0B566
:1013400090F82040013C012C6BD8066841B9F46844
:10135000A40707D1436A43F4001343620120F0BDA0
:101360003469F5E70C013519D5F8B07107F00407B9
:101370009760002F4BD1D5F8B0717F0D1760D5F86D
:10138000B07107F00207D760D5F8B47107F00F0706
:101390001761D5F8B471D5F8B4512644C7F30727BF
:1013A0002D0C97615561D6F8B8211A700268224455
:1013B000D2F8B821120A5A7002682244D2F8B82131
:1013C000120C9A7002682244D2F8B821120EDA7018
:1013D00002682244D2F8BC211A7102682244D2F871
:1013E000BC21120A5A7102682244D2F8BC21120CA4
:1013F0009A7102681444D4F8BC21120EDA710368A1
:1014000051B9DA6842F02002DA600020F0BDD5F868
:10141000B071FF085760B2E71A6942F020021A6102
:10142000F3E7436A43F4802397E790F82030013BC9
:10143000012B05D802685369194351610020704798
:10144000436A43F48023436201207047704770472A
:1014500070477047704770477047704770477047D4
:10146000704770472DE9F84F03685E69D3F8049020
:101470009F68D3F80CB0D3F810A0D3F8188016F0FA
:101480000104054622D017F0010407D00122B90754
:101490009A6040F1A380FFF7D9FF0024FB0509D52E
:1014A0002B684FF48072B8059A6040F1A5802846F9
:1014B000FFF7CDFFFB0309D52B684FF48032B8034B
:1014C0009A6040F1A7802846FFF7C2FF330707D58F
:1014D0001BF0100F1FBF2B68102244F40074DA6059
:1014E000770708D51BF0080F05D02B680822DA60B3
:1014F0002846FFF7B1FFB00706D52B68DB689907D0
:1015000002D0284603F0D6FC720607D51AF0100F59
:101510001FBF2B68102244F480641A61B30608D5FB
:101520001AF0080F05D02B6808221A612846FFF729
:1015300095FFF70606D52B681B69980702D0284649
:10154000FFF78BFFB10308D519F0100F05D02B68FA
:1015500010225A602846FFF782FFF20308D519F0DF
:10156000080F05D02B6808225A602846FFF778FF3D
:1015700033042AD519F0040F2A6824D0F70504D5BE
:1015800018F0010F18BF44F00104B00504D518F09D
:10159000020F18BF44F00204710504D518F0040FBF
:1015A00018BF44F0040433050DD518F070030AD0B9
:1015B000302B4CD03CD8102B43D0202B44D09369F7
:1015C00023F070039361042353602CB16B6A1C43B6
:1015D0006C622846FFF745FFBDE8F88F7A0705D40F
:1015E00017F0080405D1FFF734FF57E74FF4006404
:1015F00054E74FF4805451E7790502D544F4005480
:1016000058E73A0502D544F4804453E72846FFF7EB
:1016100021FF4FE7790302D544F4004456E73A032B
:1016200002D544F4803451E72846FFF714FF4DE714
:10163000502B0FD0602B10D0402BC0D144F0400471
:10164000BDE744F00804BAE744F01004B7E744F0FB
:101650002004B4E744F08004B1E744F48074AEE7BA
:10166000074AD36823F4E0631B041B0C43F0BF63F9
:10167000000243F4003300F4E0600343D36070479A
:1016800000ED00E0174B30B5DC68C4F30224C4F170
:101690000703251D042B28BF0423062D4FF0010549
:1016A00005FA03F303F1FF338CBF033C0024194018
:1016B000A14005FA04F4013C2240002842EA01025C
:1016C0004FEA0212ADBF00F1604000F00F00064B80
:1016D00000F56140B5BFD2B2D2B21A5480F80023EF
:1016E00030BD00BF00ED00E014ED00E0002808DB95
:1016F0004209012300F01F0003FA00F0014B43F8F8
:101700002200704700E100E00138B0F1807F0AD28A
:10171000064B074A5860F02182F823100020072268
:1017200098601A6070470120704700BF10E000E029
:1017300000ED00E010B5044668B1037903F0FF0244
:1017400013B9427104F0ACF8022323710020012385
:101750002061237110BD012010BD704713B5002416
:1017600000680194019041B9019908310A4401923D
:10177000019A0020136002B010BD01991431F5E701
:101780004379012B10B54FF0020315D003710368A4
:1017900001221C6842718A4022431A601A6869B9A2
:1017A00002F03C023C2A03D15A6842F001025A601E
:1017B0000123037100234371184610BD02F4701217
:1017C000B2F5701FF4D15A6842F00202EFE7437994
:1017D000012B30B54FF0020317D004680371236862
:1017E00040F6FE75954023EA05050AC90B43934070
:1017F0002B4323602368C02101FA02F223EA02028C
:1018000001232260037100234371184630BD7047E5
:1018100003681A68910410B5044611D55A6B9204F6
:101820000ED504220271026942F0010202614FF4F6
:1018300000525A631A6822F480521A60FFF78DFF33
:1018400023681A68910012D55A6B92000FD50422B2
:101850002271226942F0020222614FF000525A6363
:101860001A6822F080521A602046FFF7D0FF10BDA0
:1018700090F82120022A10B503D0042282630120AF
:1018800010BD0268C46B1168436B21F00E0111603A
:10189000116821F001011160026C012101FA02F2CC
:1018A0006260002480F8211080F8204013B198472E
:1018B000204610BD184610BD2DE9F74FD1F8008025
:1018C000DFF89091614A002338FA03F402D103B0A3
:1018D000BDE8F08F4FF0010E0EFA03FE18EA0E0677
:1018E00000F0A6804C6824F01007022F16D14FEAB2
:1018F000D30A00EB8A0A03F0070BDAF820504FEA0C
:101900008B0B4FF00F0C0CFA0BFC25EA0C0C0D693D
:1019100005FA0BF545EA0C05CAF820504FEA430AD0
:101920000325D0F800B005FA0AF5ED4304F0030CE6
:101930000BEA050B0CFA0AFC013F4CEA0B0C012FD9
:10194000C0F800C011D8876807EA050BCF6807FA0E
:101950000AFC4CEA0B078760476827EA0E0EC4F3BF
:1019600000179F4047EA0E074760C7683D408F68F1
:1019700007FA0AF73D43C560E50059D5D9F8185074
:1019800045F00105C9F81850D9F8185023F003079D
:1019900007F1804705F0010507F58037019503F051
:1019A000030C019DBD684FEA8C0C4FF00F0E0EFA30
:1019B0000CFEB0F1904F25EA0E0E3BD0244DA8420C
:1019C0003AD005F58065A84238D005F58065A84273
:1019D00036D005F58065A84234D005F58065A8426B
:1019E00032D005F58065A84214BF0725062505FA03
:1019F0000CF545EA0E05BD601568F74314F4803F09
:101A00000CBF3D4035431560556814F4003F0CBFD2
:101A10003D4035435560956814F4801F0CBF3D4030
:101A200035439560D568A40254BF3D403543D56029
:101A3000013349E70025DAE70125D8E70225D6E793
:101A40000325D4E70425D2E70525D0E700040140AB
:101A500000040048001002400369194214BF01202D
:101A6000002070470AB18161704781627047436905
:101A70000B4218BF090481617047000008B5044B90
:101A80005969014202D0586103F09AF808BD00BFBD
:101A90000004014003689A69910744BF00229A62DA
:101AA0009A69D2075EBF9A6942F001029A61704753
:101AB00030B5039C05682343640D04F4806444F04E
:101AC0007F7444F458346868C1F3090144F47F74A6
:101AD000194344F0030441EA024120EA040421438B
:101AE000696030BD2DE9F041069F044688461646E0
:101AF0001D462268936938EA03030CBF01230023C3
:101B0000B34202D00020BDE8F0816B1CF2D0FFF799
:101B100089FAC01B854201D3002DEAD1636C43F0E2
:101B200020036364202384F84130002384F842308A
:101B300084F840300120BDE8F081036870B50446A8
:101B4000986910F010000D46164616D170BD691C3C
:101B500014D0FFF767FA801B854200D36DB9636C20
:101B600043F020036364202384F84130002384F889
:101B7000423084F84030012070BD236899698A069C
:101B8000E5D510222025DA612046DD61FFF782FFCE
:101B90002268536823F0FF7323F48B3323F4FF731D
:101BA00023F001035360636C43F00403636484F81F
:101BB0004150DBE770B504460D46164623689B6925
:101BC0009B0701D5002070BD324629462046FFF70D
:101BD000B4FFA0B96A1CF1D0FFF724FA801B85423C
:101BE00001D3002DEAD1636C43F02003636420230A
:101BF00084F84130002384F8423084F840300120DA
:101C000070BD0000F7B5099E1F46164B00930546B0
:101C100014464FF08073FAB2FFF74AFF3246089934
:101C20002846FFF7C7FF10B1012003B0F0BD012F18
:101C30002B680CD1E4B29C62089B009600228021A4
:101C40002846FFF74FFF003018BF0120EDE7220ABA
:101C50009A62089932462846FFF7ACFF0028E3D184
:101C60002B68E7E700200080F7B5099E1F46164B5A
:101C70000093054614460023FAB2FFF719FF3246D7
:101C800008992846FFF796FF10B1012003B0F0BD78
:101C9000012F2B680CD1E4B29C62089B00960022B5
:101CA00040212846FFF71EFF003018BF0120EDE756
:101CB000220A9A62089932462846FFF77BFF0028DD
:101CC000E3D12B68E7E700BF0020008070B5044631
:101CD0000D46164623689B699B0601D5002070BD02
:101CE000324629462046FFF728FF90B9FFF79AF9B8
:101CF000801B854201D3002DECD1636C43F020039F
:101D00006364202384F84130002384F8423084F84F
:101D10004030012070BD10B5044600284AD090F82C
:101D2000413003F0FF021BB980F8402003F0EEFDC4
:101D3000242384F841302368E1681A6822F0010204
:101D40001A60626822F070621A619A68012922F4AE
:101D500000429A60A26824D142F400429A605A6814
:101D6000616942F0007242F400425A60DA6822F47B
:101D70000042DA6022690A43A16942EA0122DA607C
:101D8000216AE2690A431A601A6842F001021A6085
:101D900000202023606484F84130206384F84200EE
:101DA00010BD42F4044202299A6004BF4FF400625D
:101DB0005A60D4E7012010BD2DE9F04F9B4690F802
:101DC000413085B0202B04460F460392BDF83CA05D
:101DD000DDF8408040F0A5800E9B13B1BAF1000FF2
:101DE00006D14FF400736364012005B0BDE8F08FA5
:101DF00090F84030012B00F09480012580F840508D
:101E0000FFF710F91923009006462A464FF40041C7
:101E10002046FFF767FE81460028E5D1212384F89C
:101E20004130402384F842300E9B606463626063FB
:101E3000A4F82AA00196CDF800805B46039A3946A3
:101E40002046FFF7DFFE10B184F84090CCE7638DA9
:101E50009BB2FF2B55D9FF22228500904FF0807353
:101E600039462046FFF724FE324641462046FFF71A
:101E7000A1FE0028B8D1636A226813F8011B9162A1
:101E80006362638D228D013B9BB26385638D013A52
:101E900092B29BB22285ABB1A2B900964346802193
:101EA0002046FFF71FFE00289ED1638D9BB2FF2BBB
:101EB0002FD9FF22228500904FF0807339462046AB
:101EC000FFF7F6FD638D9BB2002BCDD13246414624
:101ED0002046FFF7FBFE002886D123682021D96128
:101EE0005A6822F0FF7222F48B3222F4FF7222F041
:101EF00001025A6084F8411084F8400084F84200DE
:101F000073E7628D009092B222854FF00073D2B2D7
:101F1000A6E7628D009092B222854FF00073D2B294
:101F2000CCE7022061E700002DE9F04F9B4690F8D6
:101F3000413085B0202B04460F460392BDF83CA0EB
:101F4000DDF8408040F0A9800E9B13B1BAF1000F7C
:101F500006D14FF400736364012005B0BDE8F08F33
:101F600090F84030012B00F09880012580F8405017
:101F7000FFF758F81923009006462A464FF400410F
:101F80002046FFF7AFFD81460028E5D1222384F8E3
:101F90004130402384F842300E9B6064636260638A
:101FA000A4F82AA00196CDF800805B46039A394632
:101FB0002046FFF759FE10B184F84090CCE7638DBE
:101FC0009BB2FF2B364B58D9FF22009322854FF04E
:101FD000807339462046FFF76BFD0096434600228A
:101FE00004212046FFF77EFD0028B5D12268636AF0
:101FF000526A1A70636A228D01336362638D013BFA
:102000009BB26385638D013A92B29BB22285ABB1DC
:10201000A2B90096434680212046FFF763FD0028C1
:102020009AD1638D9BB2FF2B2FD9FF22228500907E
:102030004FF0807339462046FFF73AFD638D9BB21F
:10204000002BCAD1324641462046FFF73FFE00280A
:1020500082D123682021D9615A6822F0FF7222F4CC
:102060008B3222F4FF7222F001025A6084F8411090
:1020700084F8400084F842006FE7628D009392B2CA
:1020800022854FF00073D2B2A3E7628D009092B226
:1020900022854FF00073D2B2CCE702205DE700BF8B
:1020A0000024008090F84120D2B2202A10B51DD122
:1020B00090F84030012B19D0242380F84130036878
:1020C0001C6824F001041C601C6824F480541C600B
:1020D0001C6821431960196841F00101196000234F
:1020E00080F8412080F84030184610BD022010BD15
:1020F00010B590F84140E4B2202C1CD190F840304B
:10210000012B18D0242380F8413003681A6822F08C
:1021100001021A601A6822F4706242EA0121196011
:102120001A6842F001021A60002380F8414080F8EA
:102130004030184610BD022010BD00002DE9F347C5
:10214000054608B901205BE00368DF0711D42B685E
:102150009E0700F18A802B681C0700F1FE802B6827
:10216000580700F14781A869002840F0DE8100206F
:1021700046E0BE4C636803F00C03042B0AD063688E
:1021800003F00C03082B19D1636803F4C033B3F5D3
:10219000803F13D14FF4003393FAA3F2216893FAEE
:1021A000A3F3B3FA83F303F01F03012202FA03F34C
:1021B0000B42CCD06B68002BC9D1C3E76B68B3F579
:1021C000803F20D1236843F480332360FEF72AFF49
:1021D0004FF400368046012796FAA6F3226896FA55
:1021E000A6F3B3FA83F303F01F0307FA03F31342D2
:1021F000ADD1FEF717FFA0EB08006428ECD903204F
:1022000002B0BDE8F0870BBB236823F48033236062
:10221000236823F480232360FEF704FF4FF4003685
:102220008046012796FAA6F3226896FAA6F3B3FA37
:1022300083F303F01F0307FA03F3134287D0FEF77B
:10224000F1FEA0EB08006428ECD9D8E7B3F5A02F85
:10225000236803D143F480232360B3E723F480335E
:102260002360236823F48023AFE7804C636813F076
:102270000C0F0AD0636803F00C03082B25D16368A8
:1022800003F4C033B3F5004F1FD1022393FAA3F236
:10229000216893FAA3F3B3FA83F303F01F03012237
:1022A00002FA03F30B4203D0EB6893427FF44AAF88
:1022B0002168F82393FAA3F3B3FA83F22B699340CE
:1022C00021F0F8021343236045E7EA6801260AB3C8
:1022D00096FAA6F3B3FA83F303F1845303F5841358
:1022E0009B0002271E60FEF79DFE804697FAA7F32B
:1022F000226897FAA7F3B3FA83F303F01F0306FAF1
:1023000003F31342D4D1FEF78DFEA0EB08000228A0
:10231000ECD974E796FAA6F3B3FA83F303F1845386
:1023200003F584139B0002271A60FEF77BFE8046AC
:1023300097FAA7F3226897FAA7F3B3FA83F303F0A7
:102340001F0306FA03F313423FF405AFFEF76AFEDC
:10235000A0EB08000228EBD951E76A69434E4449D3
:1023600001241AB394FAA4F3B3FA83F30B449B0049
:1023700002271C60FEF756FE804697FAA7F397FAED
:10238000A7F397FAA7F3726A97FAA7F3B3FA83F35E
:1023900003F01F0304FA03F313427FF4E0AEFEF7E9
:1023A00041FEA0EB08000228E7D928E794FAA4F33D
:1023B000B3FA83F30B449B0002271A60FEF732FE48
:1023C000804697FAA7F397FAA7F397FAA7F3726AEA
:1023D00097FAA7F3B3FA83F303F01F0304FA03F3A6
:1023E00013423FF4BCAEFEF71DFEA0EB080002282E
:1023F000E7D904E71D4CE369D90034D4E36943F01D
:102400008053E361E36903F080530193019B01264C
:10241000184F3B68DA052FD5AB68012B3DD1236AF5
:1024200043F001032362FEF7FDFD02278246B94611
:102430004FF0010897FAA7F397FAA7F3002B6CD097
:10244000226A99FAA9F3B3FA83F303F01F0308FA97
:1024500003F3134258D0002E3FF485AEE36923F016
:102460008053E3617FE60026D2E700BF0010024000
:1024700020819010007000403B6843F480733B6003
:10248000FEF7D0FD80463B68DB05C5D4FEF7CAFDEC
:10249000A0EB08006428F6D9B1E63BBB236A23F021
:1024A00001032362236A23F004032362FEF7BAFDCB
:1024B00002278246B9464FF0010897FAA7F397FA28
:1024C000A7F373B3226A99FAA9F3B3FA83F303F07B
:1024D0001F0308FA03F31342BDD0FEF7A3FD41F238
:1024E0008833A0EB0A009842E7D988E6052B236AD7
:1024F00003D143F00403236291E723F00103236235
:10250000236A23F004038DE7FEF78CFD41F2883344
:10251000A0EB0A0098428DD971E697FAA7F3626A98
:102520008FE797FAA7F3626ACDE7514A536803F041
:102530000C03082B144600F0828002284FF08073B1
:1025400058D193FAA3F3B3FA83F303F1845303F559
:1025500084139B0000221A60FEF764FD4FF00077A1
:102560008046012697FAA7F3226897FAA7F3B3FAF1
:1025700083F303F01F0306FA03F3134233D1E36A34
:102580006A6A23F00F031343E36262682B6AE96906
:1025900022F476120B43134363604FF0807393FA77
:1025A000A3F3B3FA83F303F1845303F584139B007D
:1025B0004FF000751E60FEF735FD0126074695FABF
:1025C000A5F3226895FAA5F3B3FA83F303F01F038A
:1025D00006FA03F313427FF4CAADFEF723FDC01BD6
:1025E0000228ECD90BE6FEF71DFDA0EB080002283F
:1025F000B8D904E693FAA3F3B3FA83F303F184534F
:1026000003F584139B0000221A60FEF70BFD4FF0C8
:1026100000750746012695FAA5F3226895FAA5F3F9
:10262000B3FA83F303F01F0306FA03F313423FF4F4
:102630009EADFEF7F7FCC01B0228ECD9DFE50128B0
:102640003FF4DEAD5368D06AEA6903F4C0319142C9
:102650007FF478AD2A6A03F4701393427FF472AD6D
:102660006B6A00F00F00C01A18BF0120C8E500BF58
:102670000010024011494B6803F00C02082A1AD1DD
:102680004FF4701292FAA2F20F20B2FA82F2C96AE3
:1026900090FAA0F0B0FA80F001F00F0103F470138B
:1026A000D340C140064A0748415C0748B0FBF1F1FE
:1026B000D05C484370470448704700BF0010024098
:1026C00094B40008A4B4000800127A002DE9F04187
:1026D0000D46044610B90120BDE8F0814D4A13684B
:1026E00003F007038B422FD32268910737D4D20718
:1026F0003DD4484A136803F007039D4276D322680D
:10270000454D12F0040F7DD1130706D56B68226981
:1027100023F4605343EAC2036B60FFF7ABFF6B68BF
:10272000F02292FAA2F2B2FA82F203F0F003D3405E
:102730003A4AD35CD8403A4B18603A4B1868FEF7D7
:102740002FFC0020BDE8F081136823F007030B4342
:102750001360136803F007039942BCD1C4E72E4904
:10276000A0684B6823F0F00303434B60BFE7626847
:10277000294E012A27D14FF4003393FAA3F131688F
:1027800093FAA3F3B3FA83F303F01F0302FA03F3FC
:102790000B42A0D0736823F003031A437260FEF764
:1027A00041FC41F2883807467368626803F00C0305
:1027B000B3EB820F9DD0FEF735FCC01B4045F3D92B
:1027C0000320BDE8F081022A0CBF4FF00073022302
:1027D00093FAA3F1306893FAA3F3B3FA83F303F007
:1027E0001F03012101FA03F30342D2E7136823F028
:1027F00007032B431360136803F007039D427FF424
:102800006AAF7CE76B68E16823F4E0630B436B60BD
:102810007AE700BF002002400010024018D30008F1
:102820009401002004000020084B4FF4E0625B6834
:1028300092FAA2F2B2FA82F203F4E063D340044ABD
:10284000D35C044A1068D840704700BF00100240B3
:1028500028D3000894010020084B4FF460525B68B5
:1028600092FAA2F2B2FA82F203F46053D340044A1D
:10287000D35C044A1068D840704700BF0010024083
:1028800028D300089401002003682DE9F347DF03F3
:10289000044623D59B4DEB69DE0000F1D780EB6940
:1028A00043F08053EB61EB6903F080530193019B8C
:1028B0000126954F3B68D80540F1CA802B6A13F476
:1028C000407340F0DA802B6A626823F4407313434C
:1028D0002B621EB1EB6923F08053EB612068C307C4
:1028E00006D5884AA168136B23F003030B431363D7
:1028F000870706D5834AE168136B23F440330B4303
:102900001363460706D57F4A2169136B23F44023DE
:102910000B431363850606D57A4AE169136B23F0EE
:1029200010030B431363810306D5764A616D536828
:1029300023F480030B435360420606D5714A216A93
:10294000136B23F020030B431363430306D56D4A37
:10295000616A136B23F040030B431363070706D52B
:10296000684A6169136B23F440130B431363C60673
:1029700006D5644AA169136B23F440030B43136328
:10298000850506D55F4A216B536823F400030B438A
:102990005360010606D55B4AA16AD36A23F4F87333
:1029A0000B43D362C20506D5564AE16AD36A23F4C3
:1029B00078530B43D362C30406D5524A616B136B41
:1029C00023F480730B431363870406D54D4A216CAF
:1029D000136B23F400730B431363C60206D5494AF5
:1029E000A16B136B23F080730B431363850206D531
:1029F000444AE16B136B23F000730B4313634102F2
:102A000006D5404A616C136B23F480630B43136358
:102A1000020206D53B4AA16C136B23F400630B43FF
:102A20001363C30106D5374AE16C136B23F40053DB
:102A30000B43136310F000701CD0324A216D136BEE
:102A400023F400430B431363002013E0002630E718
:102A50003B6843F480733B60FEF7E4FA80463B68D2
:102A6000D9053FF52BAFFEF7DDFAA0EB080064288F
:102A7000F5D9032002B0BDE8F087626802F4407225
:102A800093423FF420AF296A4FF4803321F4407021
:102A900093FAA3F2DFF874E0B2FA82F27244920081
:102AA0000127176093FAA3F3B3FA83F373449B00EF
:102AB00000221A60CA0728627FF505AFFEF7B2FA56
:102AC0004FF002088246C14698FAA8F398FAA8F394
:102AD000A3B12A6A99FAA9F3B3FA83F303F01F03A7
:102AE00007FA03F313427FF4EEAEFEF79BFA41F2CE
:102AF0008833A0EB0A009842E6D9BAE798FAA8F31F
:102B00006A6AE7E700100240007000400081901000
:102B10000368DA6842F00102DA609968064A0A40FE
:102B2000062A06D0B2F5803F1EBF1A6842F00102A5
:102B30001A600020704700BF070001000368DA68D0
:102B400022F00102DA60196A41F21112114208D131
:102B5000196A40F24442114202BF1A6822F001028F
:102B60001A600020704770477047704770470368CD
:102B70001A69910710B504460FD5DA6892070CD58B
:102B80006FF002021A619B6901229907027700F037
:102B90008580FFF7E9FF0023237723681A6952072E
:102BA00010D5DA6850070DD56FF004021A619B69E1
:102BB000022213F4407F2277204675D0FFF7D4FF1E
:102BC0000023237723681A6911070FD5DA681207E3
:102BD0000CD56FF008021A61DB6904229B0722778B
:102BE000204667D0FFF7C0FF0023237723681A69C8
:102BF000D00610D5DA68D1060DD56FF010021A6133
:102C0000DB69082213F4407F2277204658D0FFF773
:102C1000ABFF0023237723681A69D20708D5DA6847
:102C2000D00705D56FF001021A61204602F030F896
:102C300023681A69110608D5DA68120605D56FF0FF
:102C400080021A61204600F014F923681A69D00541
:102C500008D5DA68110605D56FF480721A6120462E
:102C600000F008F923681A69520608D5DA68500698
:102C700005D56FF040021A612046FFF777FF236801
:102C80001A69910622D5DA6892061FD56FF02002E4
:102C900020461A61BDE8104000F0EAB8FFF763FF74
:102CA0002046FFF762FF76E7FFF75DFF2046FFF75C
:102CB0005CFF85E7FFF757FF2046FFF756FF93E7D6
:102CC000FFF751FF2046FFF750FFA2E710BD0000BD
:102CD000324A0368904212D0B0F1804F0FD0A2F573
:102CE000943290420BD002F58062904207D002F5F8
:102CF0009632904203D002F5E052904215D14A68D4
:102D000023F070031343254A90421DD0B0F1804F49
:102D10001AD0A2F59432904216D002F58062904209
:102D200012D002F5963290420ED01D4A90420BD03E
:102D300002F58062904207D002F58062904203D093
:102D400002F50062904203D1CA6823F44073134332
:102D50004A6923F08003134303608B68C3620B68E6
:102D600083620E4B984213D003F5006398420FD054
:102D700003F5406398420BD003F58063984207D077
:102D800003F58063984203D003F50063984201D1B4
:102D90000B69036301234361704700BF002C0140AE
:102DA0000040014010B50446A0B190F83D3003F05A
:102DB000FF021BB980F83C2002F0DCFD022384F8FE
:102DC0003D302068211DFFF783FF012384F83D304B
:102DD000002010BD012010BD90F83C30012B30B513
:102DE0004FF0020340D080F83D30204D03680122AF
:102DF000AB4280F83C205A689C6807D005F5006516
:102E0000AB4203D005F5E055AB4203D14D6822F447
:102E100070022A430D6822F070022A435A60134A56
:102E2000934216D0B3F1804F13D0A2F5943293425F
:102E30000FD002F5806293420BD002F59632934296
:102E400007D002F54062934203D002F580529342CC
:102E500004D1896824F080020A439A60012380F833
:102E60003D30002380F83C30184630BD002C014036
:102E700070477047704703681A6822F490721A60AE
:102E80009A6822F001029A60202383670023036678
:102E900070477047704700000368DA69196870B5B9
:102EA00040F60F06324204469D680AD1960670D558
:102EB0008E066ED5036E002B00F08E80BDE870404C
:102EC000184715F0010002D111F4907F61D0D607A8
:102ED00007D5CD0505D501251D62E56F45F0010536
:102EE000E567960706D528B102251D62E56F45F016
:102EF0000405E567550706D528B104251D62E56F71
:102F000045F00205E567160708D58D0600D428B1FF
:102F100008201862E06F40F00800E067100508D54F
:102F20004E0106D54FF400601862E36F43F02003B2
:102F3000E367E36F002B4FD0950605D5880603D5D0
:102F4000236E0BB1204698472268E56F92685106C0
:102F5000204602D415F0280517D0FFF78CFF236810
:102F60009A6852060DD59A68E06E22F040029A6087
:102F700038B11A4B4363FEF77BFC68B3E06E436BDA
:102F80009CE72046FFF786FF70BDFFF783FFE567EC
:102F900070BDD60209D5680207D54FF480122046CD
:102FA0001A62BDE8704000F081BA160605D50D061C
:102FB00003D5636E83B1204680E750060CD54A06E0
:102FC0000AD51A6822F040021A60202363670023A2
:102FD00063662046FFF75DFF70BD00BFE12F00086C
:102FE00008B5406A0023A0F85A30A0F85230FFF725
:102FF00051FF08BD0268816838B50446C36900699D
:1030000015680143606901437A4819432840014328
:1030100011605168E068256A21F440510143516014
:103020009068A16920F4306029430143916072499E
:103030008A4211D1714A7249126B02F00302B3F550
:10304000004F8A5C5AD0082A26D8DFE802F0A1A7F0
:10305000AA25BD252525C0006A498A422AD1674A8A
:10306000126B02F44032B2F5803F00F0B58015D803
:10307000DAB9B3F5004F40F08B80FFF7D5FB6268FB
:10308000530803EB4000B0FBF2F080B2A0F1100255
:103090004FF6EF739A426FD9012075E0B2F5003F09
:1030A00000F0A080B2F5403F46D0B3F5004FF3D01A
:1030B0001022C8E754498A420FD1504A126B02F4D9
:1030C0004022B2F5802F00F08780D1D9B2F5002FD1
:1030D00000F08880B2F5402FE6E74C498A4237D1AC
:1030E000464A126B02F44012B2F5801F74D01DD80C
:1030F000002ABED0B3F5004FCED11022082ACBD87B
:1031000001A353F822F000BF7B30000873310008A0
:103110003F31000899300008DF310008993000087D
:103120009930000899300008EB310008B2F5001F13
:1031300058D0B2F5401FDDD1B3F5004F31D16368EF
:10314000580800F5740000F51050B0FBF3F09CE750
:103150002F498A42A0D1294A126B02F44002B2F5EB
:10316000800F39D084D9B2F5000F3BD0B2F5400FB3
:103170009AE7FFF771FB82E720F00F032268C0F3A4
:1031800042001843D060002000232366636638BDE8
:10319000FFF74AFB636800EB530008E0FFF75CFBB6
:1031A000F8E76368580800F5F40000F59050B0FBAC
:1031B000F3F080B2A0F110024FF6EF739A423FF69F
:1031C0006BAF2368D860DEE7FFF754FAE2E7636885
:1031D000580800F50040EAE7B3F5004FF4D1FFF7D7
:1031E00049FA4CE7B3F5004FF1D16368580800F590
:1031F0008030AAE7F369FFEF003801400010024079
:10320000B4B400080044004000480040004C0040B6
:1032100000500040436ADA0710B506D50168846A99
:103220004A6822F4003222434A609C0706D50168AE
:10323000C46A4A6822F4803222434A60590706D59C
:103240000168046B4A6822F4802222434A601A070C
:1032500006D50168446B4A6822F4004222434A6062
:10326000DC0606D50168846B8A6822F4805222430A
:103270008A60990606D50168C46B8A6822F40052F8
:1032800022438A605A060FD50168046C4A6822F40A
:1032900080122243B4F5801F4A6005D14A68446C0D
:1032A00022F4C00222434A601B0606D50268816CE4
:1032B000536823F400230B43536010BD2DE9F04104
:1032C000069D04460F46164698462168CA6937EAA5
:1032D00002030CBF01220022B24202D00020BDE84E
:1032E000F081681CF2D0FDF79DFEA0EB080085423E
:1032F0002068036800D37DB923F4D073036083682A
:1033000023F00103836020236367A367002384F80D
:1033100070300320BDE8F0815A07D6D5C3691B057C
:10332000D3D54FF400630362036823F4D0730360C2
:10333000836823F00103836020236367A367E36747
:10334000E4E72DE9F7439846436F202B04460E46E9
:1033500091464BD1002947D0002A45D090F87030D3
:10336000012B43D0012380F8703000252123C5674D
:103370004367FDF757FEA368A4F85090B3F5805F4C
:103380000746A4F8529003D123690BB935461E466F
:10339000B4F85220CDF8008092B23B464AB94021A1
:1033A0002046FFF78BFF50B92023636784F8700035
:1033B00006E0002280212046FFF780FF18B103209D
:1033C00003B0BDE8F08322685EB935F8023BC3F371
:1033D00008031385B4F85230013B9BB2A4F8523075
:1033E000D6E716F8013BF4E70120E9E70220E7E71A
:1033F00073B504460026C667FDF714FE23681B68F4
:103400001A07054615D423681B685B070AD56FF0B9
:103410007E43009300222B464FF480012046FFF7A5
:103420004DFF90B920230020636784F87000A367E4
:103430000CE06FF07E430093324603464FF40011D8
:103440002046FFF73BFF0028DDD0032002B070BD0F
:1034500010B5044640B3436F1BB980F8703002F0DA
:10346000E9FA226824236367136823F001031360D9
:103470002046FFF7BFFD012816D0636A13B120462E
:10348000FFF7C8FE23685A6822F490425A609A688F
:1034900022F02A029A601A6842F0010220461A605D
:1034A000BDE81040FFF7A4BF012010BD70470B8896
:1034B000052B70B50D462ED1C378027942EA03225E
:1034C000531E9BB240F2CE718B4224D80023467823
:1034D00081782B80012303702B8812F0070F4FEAAD
:1034E000D20418BF01340133E4B22B8044702B881E
:1034F00041EA0621013301312B8089B200230230D9
:1035000001F0BAFF18B1BDE8704000F081B92A8817
:1035100014442C8070BD032070BD0B88052B13B59F
:103520001DD10379DBB9C478621ED2B2FD2A16D947
:10353000427881788DF80530FF2C08BF012341EADD
:1035400002218DF80430013101231A4689B201A805
:1035500001F092FF28B100F05BF902B010BD03202A
:10356000FBE7FAE70B88052B10B50C4624D9C37886
:10357000027942EA032212F0070F4FEAD20302F166
:10358000FF3118BF0133B1F5F66FDBB214D24179C8
:10359000994211D14378817841EA03210131012315
:1035A00089B2063001F068FF18B1BDE8104000F0A4
:1035B0002FB90522228010BD032010BD0B88052BDA
:1035C00070B50D462DD1C378027942EA0322531E0D
:1035D0009BB240F2CE718B4223D80023467881788B
:1035E0002B80022303702B8812F0070F4FEAD204BE
:1035F00018BF01340133E4B22B8044702B8841EAB8
:103600000621013301312B8089B2023001F036FFEF
:1036100018B1BDE8704000F0FBB82A8814442C8033
:1036200070BD032070BD08B50B88052B0FD1437802
:10363000817841EA0321013101231A4689B203301E
:1036400001F0E6FE28B1BDE8084000F0E1B8032033
:1036500008BD08BD0B88052B10B50C461DD9C378D5
:10366000027942EA0322531E772B16D85300417980
:10367000DBB2994211D14378817841EA03210131CB
:10368000012389B2063001F0C3FE18B1BDE8104035
:1036900000F0BEB80522228010BD032010BDF8B591
:1036A0000B88052B0C4624D1027995B26B1E7C2B1E
:1036B0001FD8032600234778817823800670268848
:1036C0005200013626804270228841EA07210132E9
:1036D0000131228089B22A46023001F099FE18B1E8
:1036E000BDE8F84000F094B8228802EB450525803B
:1036F000F8BD0320F8BD2DE9F8430B88092B0446DB
:103700000D463CD9C378077947EA03277B1E7C2BFB
:1037100038D8C379027A42EA0322531E782B31D873
:10372000437AB3EB420F2DD14379817990F8019020
:10373000867841EA03210131012389B20A3001F080
:1037400067FE034608BB1722288022702A884FEAAA
:10375000470801322A8084F801802A8846EA092134
:10376000013201312A8089B23A46A01C01F050FE94
:1037700058B92B889844A5F80080BDE8F88300204C
:10378000BDE8F8830320BDE8F883BDE8F84300F006
:103790003FB80B88052B70B50C4624D1C37802794D
:1037A00042EA0322531E7B2B1DD8002346788178E2
:1037B0002380042303702388550001332380457040
:1037C000238841EA062101330131238089B2023086
:1037D00001F0FEFD18B1BDE8704000F019B8228874
:1037E0001544258070BD032070BD000038B5064B20
:1037F0001C880D46224605490134013002F00AFEBC
:103800002C80002038BD00BF440800202408002080
:1038100007289ABF014B185C04207047B8B4000811
:1038200038B50446084611461A46431EDBB2F62B4D
:1038300027D8164B187024BB154B164D1D60164B20
:10384000164D1D60164B174D1D60174B174D1D6013
:10385000174B1C60174B184C1C60184B184C1C6005
:10386000184B194C1C609DF8103000F067F90446A5
:1038700028B900F0B5F830B1144B01221A70204677
:1038800038BD0224FBE70324F9E700BF5D080020F0
:1038900054080020753B000858080020913B0008A0
:1038A0004C0800200D3C000848080020A53B0008FB
:1038B0005008002024200020853C00081C20002007
:1038C000193D000820200020A13D0008080000202C
:1038D00010B5064C2378012B05D1054B1B68984782
:1038E0000020207010BD062010BD00BF0800002081
:1038F00054080020304BF7B51C78002C59D10DF13D
:10390000070000F081F80128034601D0002405E0FB
:103910009DF80720012A04D0022A17D0204603B0C0
:10392000F0BD264D264B274A1B6827492846984755
:1039300004460028EAD1254A2B7812789A4201D011
:10394000002BE3D1022000F053F8E7E71E4D204E94
:103950002868204F027833701F4B3A7013F83410E8
:103960004FEAC40E31B18A421FD1734415495B68D6
:1039700098473070114B1B78002BC7D03178114B12
:1039800059B101221A803A78286862F07F020270E9
:103990001A882868541C1C808154104A29681468AD
:1039A0001A880A4B1878A047B0E70134102CD5D1FB
:1039B000E0E70624B2E700BF08000020640800200A
:1039C0004808002066080020600800205D080020EC
:1039D000460800205C0800200C0000204C08002055
:1039E000024B00221A700120704700BF69080020B6
:1039F000034A01231370034A10701846704700BF32
:103A00006908002068080020054A13782BB1054B8F
:103A10001B7803700023137001231846704700BF02
:103A200069080020680800200A4B58B1186802682D
:103A300042F0200202601A68136841B143F080032B
:103A4000136070471868026822F02002F2E723F042
:103A50008003F5E7C84400200120704707B502A99C
:103A60000A2301F8010D01220448FFF76AFCB0FAAD
:103A700080F0400903B05DF804FB00BFC84400209B
:103A8000024B1B689B8C037001207047C8440020C8
:103A90007FB5114D114B2B600646FEF7C5FE104B4E
:103AA000B0FBF3F031230138EB600E4B686000246B
:103AB0002846AC601E80FFF775F958B920230390A3
:103AC00001A928460193FFF787F9B0FA80F0400971
:103AD00004B070BD2046FBE78C5700200014004066
:103AE00040420F006C080020034B04481A88044B26
:103AF0001A80FFF70DB800BF6C0800208C5700201B
:103B00006A0800200148FFF719B800BF8C57002051
:103B100070B5FF23074D084E01441C46884202D170
:103B200043EA042070BD10F8012B5A40AB5C63409F
:103B3000B45CF3E7C0B40008C0B5000810B5144683
:103B4000084608222146FFF787FF01280CD1B4F56B
:103B5000964F97BF064823206400B0FBF4F080B274
:103B6000FFF796FF012801D0032010BD002010BDF3
:103B7000A07F170008B5054B002101201970FFF741
:103B800053FFBDE80840FFF7AFBF00BF6E0800203D
:103B900008B500210846FFF747FFBDE80840FFF7DA
:103BA000B1BF00002DE9F041134D2B889BB2FF2BD4
:103BB00080460E46174605D9104B114A11489C21E4
:103BC00002F0C6F82B889BB2032B02D80520BDE873
:103BD000F08129880C4C89B22046FFF799FF002814
:103BE000F4D114F8012B298888F800200339398092
:103BF0003460BDE8F08100BF7408002007B70008FA
:103C0000C0B600082CB700083020002038B50346A5
:103C100017480578EDB2012D27D1164C481E2060BB
:103C2000154C258001F8013C238812FA83F292B2E8
:103C30002280218889B2FFF76BFF23880F499BB24E
:103C40005A1C92B22280C2B2CA5423889BB25A1C18
:103C500092B2C0F307202280C854094B29460020A5
:103C60001D70FFF7E1FE002038BD052038BD00BF04
:103C70006E08002070080020760800203020002008
:103C80006F0800201D4B1B7807B52BB11C4B1D4A3C
:103C90001D48E62102F05CF80DF10700FFF7F0FE89
:103CA0001A4B1A78032A22D8DFE802F01F02111FEC
:103CB000174900220A800A8892B2501C80B20880FC
:103CC00014499DF80700885402221A700DE0104A2A
:103CD000118889B2FF290ED813889BB2591C89B26A
:103CE00011800C4A9DF80710D154FFF7FDFE00200B
:103CF00003B05DF804FB0322E7E700BF6F08002074
:103D00004DB70008CEB600082CB700086E0800209A
:103D10007408002030200020F8B51A4B1878C0B283
:103D2000012806D0184B194A194840F2211102F017
:103D30000FF8184F3B7803F0FF061BB1012E05D09A
:103D400000251DE03146FFF76FFEF9E7124D2C8884
:103D5000A4B264B1114C23681878FFF77FFE236882
:103D6000013323602B88013B9BB22B80E8E70320C3
:103D7000FFF73EFE214605463046FFF755FE3C70F4
:103D80002846F8BD6E080020CBB70008DFB6000853
:103D90002CB700086F08002076080020700800206B
:103DA00038B5144B1878C0B202281D460BD0032832
:103DB0001DD050B9FFF71CFE0446FFF7A3FE0123F8
:103DC0002B70204638BD0120F4E71A7802F0FF047A
:103DD000002AF2D01A78022A09D01B78032B06D0C9
:103DE000054B064A064840F25B1101F0B1FF002482
:103DF000E3E700BF6E08002068B70008F1B60008CE
:103E00002CB7000808B500F0EBFA002008BD7FB51C
:103E1000B0F90840866902690B4690E82200842CBC
:103E200002964069019014BF033400240094284690
:103E300000F0F6F904B070BD00F1080343604FF0E4
:103E4000FF32C36003610023826003607047002378
:103E50000361704743684B609A688A609A68516052
:103E600099600368086101330360704741688268A4
:103E700003698A60826851605968884208BF5A6045
:103E8000002202611A68013A1A601868704700003F
:103E900082B0002301930D4B1B68013308D04FF013
:103EA000500383F31188BFF36F8FBFF34F8FFEE78B
:103EB0004FF0500383F31188BFF36F8FBFF34F8F21
:103EC000019B002BFCD002B0704700BF8C0000208B
:103ED00008480068006880F308884FF0000080F30D
:103EE000148862B661B6BFF34F8FBFF36F8F00DFE8
:103EF00000BF000008ED00E0DFF80C00016841F4AD
:103F0000700101607047000088ED00E04FF08073A1
:103F100040F8043C074B40F80C3C21F001016FF0E5
:103F2000020340F8081C40F8202C40F8243C443898
:103F3000704700BF913E0008000000000000000034
:103F4000074B19680868B0E8F04F80F30988BFF3A1
:103F50006F8F4FF0000080F311887047AFF300803F
:103F6000800800204FF0500383F31188BFF36F8F58
:103F7000BFF34F8F0A4A13680133012B13600DD131
:103F8000084B1B6813F0FF0F08D04FF0500383F36A
:103F90001188BFF36F8FBFF34F8FFEE7704700BFED
:103FA0008C00002004ED00E0084A136843B94FF08C
:103FB000500383F31188BFF36F8FBFF34F8FFEE77A
:103FC000013B13600BB983F3118870478C0000200C
:103FD000EFF30980BFF36F8F154B1A681EF0100FB7
:103FE00008BF20ED108A20E9F04F10602DE909008C
:103FF0004FF0500080F31188BFF34F8FBFF36F8FE6
:1040000000F098FA4FF0000080F3118809BC19689D
:104010000868B0E8F04F1EF0100F08BFB0EC108A2F
:1040200080F30988BFF36F8F704700BFAFF3008044
:104030008008002008B54FF0500383F31188BFF3C8
:104040006F8FBFF34F8F00F009FA18B1034B4FF099
:1040500080521A60002383F3118808BD04ED00E04C
:10406000084A0949002313600B60084B4FF47A712A
:104070001B68B3FBF1F30649013B0B600723136098
:10408000704700BF10E000E018E000E0940100205D
:1040900014E000E0394B3A4A13B51968914208D14F
:1040A0004FF0500383F31188BFF36F8FBFF34F8F2F
:1040B000FEE71A68334B9A4208D14FF0500383F35E
:1040C0001188BFF36F8FBFF34F8FFEE72E4B1A7827
:1040D000D2B20192FF221A701B782C4ADBB28DF803
:1040E00003309DF8033003F050031370284B072270
:1040F0001A6000219DF80300000602F1FF340DD480
:1041000001B11A601A68032A11D04FF0500383F3EB
:104110001188BFF36F8FBFF34F8FFEE79DF8032029
:104120005200D2B28DF8032001212246E2E71202AA
:1041300002F4E0621A60019B134ADBB21370154B64
:104140001A6842F470021A601A6842F070421A60EB
:10415000FFF786FF104B00241C60FFF7CDFE0F4ACF
:10416000136843F040431360FFF7B2FE00F0E2F93A
:10417000FFF78EFE204602B010BD00BF00ED00E04C
:1041800071C20F4170C20F4100E400E078080020C6
:104190007C08002020ED00E08C00002034EF00E0DF
:1041A00080B5DFF85480114F114C124D236843B98C
:1041B0004FF08053C8F80030BFF34F8FBFF36F8FBD
:1041C000F2E7FFF7CFFEFB68DE68301DFFF74EFE1B
:1041D0002B68013B2B602368013B2360FFF7E4FE63
:1041E00006F14C0002F05CF9E0E700BF8C0900200A
:1041F0001C0900201809002004ED00E0064A13689D
:104200001968064B19B94FF0FF321A6070471268EF
:10421000D268D2685268F8E7840800205809002064
:104220002DE9F34780460B980C9C994640B94FF016
:10423000500383F31188BFF36F8FBFF34F8FFEE7F7
:1042400044B94FF0500383F31188BFF36F8FBFF36E
:104250004F8FFEE74FF4A2730193019BB3F5A27F4A
:1042600008D04FF0500383F31188BFF36F8FBFF373
:104270004F8FFEE702F1804A0AF1FF3A206300EB1C
:104280008A004B1E20F0070A04F134020F315878DF
:1042900002F8010B13F8010F08B18B42F7D10A9D08
:1042A000062D28BF06250026271D84F84360E562F9
:1042B0006564A6643846FFF7CAFDC5F1070504F139
:1042C0001800FFF7C4FDC4F83C613146A56184F8CD
:1042D0004061F0222461646204F14C0002F0A5F810
:1042E0002F4B23652F4B63652F4BA3654A464146F1
:1042F0005046FFF70BFE2060FFF734FE2B4B2C4D92
:104300001A68DFF8D48001321A602E68002E3CD182
:104310002C601B68012B1DD108EB06001436FFF73B
:104320008BFD8C2EF8D1DFF8B490224E4846FFF773
:1043300083FD3046FFF780FD1F48FFF77DFD1F48D6
:10434000FFF77AFD1E48FFF777FD1E4BC3F800907C
:104350001D4B1E601D4A1E49136808680133136017
:10436000E26A01239340034314200B6000FB0280A8
:104370003946FFF76FFDFFF717FE164B1B6803B1B9
:104380002B68204602B0BDE8F087124B1B68002B5B
:10439000E0D12B68DA6AE36A9A4298BF2C60D9E7C9
:1043A0008CD30008ACD300086CD300081809002097
:1043B0008008002044090020600900208C090020AA
:1043C000780900208408002088080020280900209F
:1043D0002C090020740900208C08002030090020DE
:1043E00010B588B0002407AA06A905A8059406946C
:1043F00000F0D2FD059B0293069B01930094234697
:10440000079A0F490F48FFF70BFFB8B14FF0500361
:1044100083F31188BFF36F8FBFF34F8F0A4B0B4AA3
:104420001B684C3313600A4B4FF0FF321A60094B84
:1044300001221A60084B1C60FFF72CFE08B010BD6B
:10444000E1B70008A1410008800800209801002081
:104450005809002074090020A00900202C4B1B687B
:104460002DE9F047002B2CD12A4B1C6801341C602D
:10447000BCB9294B1A68126842B14FF0500383F35C
:104480001188BFF36F8FBFF34F8FFEE7234A196880
:10449000106818601160224A136801331360FFF737
:1044A000ADFE204D2B689C420FD31B4FDFF87C8064
:1044B000DFF87CA03B681B6853B94FF0FF332B60DB
:1044C00003E0194A1368013313600020BDE8F08748
:1044D0003B68DB68DE6873689C42F0D306F1040930
:1044E0004846FFF7C3FCB36A1BB106F11800FFF79B
:1044F000BDFCF26AD8F800100123934014200B434E
:1045000000FB02A04946C8F80030FFF7A3FCD1E742
:1045100024090020A0090020840800208808002029
:104520005C09002058090020200900202C090020E7
:104530008C080020194B1A68194B10B512B10122D2
:104540001A6010BD1A60174B1B68B3FA83F3DBB215
:10455000C3F11F03142214495A4388188C5844B9D4
:104560004FF0500383F31188BFF36F8FBFF34F8F6A
:10457000FEE744680832646844600A44944204BF19
:1045800062684260142202FB03135B68DA68074B1F
:104590001A601B68064A4C33136010BD24090020C2
:1045A000A40900202C0900208C080020800800208D
:1045B00098010020054B1B6833B1054B1B68002B8D
:1045C0000CBF0220002070470120704774090020B2
:1045D000240900207FB506AA1F2302F8043D4FF4EA
:1045E000FA73029301238DE80C0098211A46FDF717
:1045F000E3FB07B05DF804FB7FB506AA002302F8D1
:10460000013D40F2DC53029301238DE80C00982118
:104610000222FDF7D1FB07B05DF804FB2DE9F0475E
:1046200086B006AE002406F8014D80460D462746AA
:104630004FF47A794FF0010A05B11CB1384606B043
:10464000BDE8F087224601239821CDF808908DE837
:1046500040044046FDF768FC9DF8174007460A3DB8
:104660000A2004F00404FCF7E3FCADB2E4E7000028
:104670002DE9F04186B0012505AB4FF47A76009321
:104680000F46029601952B460E2298218046FDF793
:104690004BFC044638BB0DF11503009302960195BF
:1046A0002B460F2298214046FDF73EFC0446D0B928
:1046B0009DF814309DF8150040EA0320C0F30D006A
:1046C000FBF738FF0BA3D3E90023FBF799FF0BA3FC
:1046D000D3E90023FCF7BEF80022054BFBF7DEFD13
:1046E000FCF786FA3860204606B0BDE8F08100BFCE
:1046F000000004407B14AE47E1127340000000004C
:1047000080842E41000000002DE9F04186B0012593
:1047100005AB4FF47A7600930F46029601952B462F
:10472000082298218046FDF7FFFB044638BB0DF1B7
:1047300015030093029601952B46092298214046C5
:10474000FDF7F2FB0446D0B99DF814309DF8150032
:1047500040EA0320C0F30D00FBF7ECFE0AA3D3E907
:104760000023FBF74DFF0AA3D3E90023FCF772F8FF
:1047700002460B46FBF792FDFCF73AFA38602046FA
:1047800006B0BDE8F08100BF7B14AE47E112734074
:104790000000000080842E412DE9F04186B0012503
:1047A00005AB4FF47A7600930F46029601952B469F
:1047B000062298218046FDF7B7FB044638BB0DF171
:1047C00015030093029601952B4607229821404637
:1047D000FDF7AAFB0446D0B99DF814309DF81500EA
:1047E00040EA0320C0F30D00FBF7A4FE0AA3D3E9BF
:1047F0000023FBF705FF0AA3D3E90023FCF72AF8FF
:1048000002460B46FBF74AFDFCF7F2F938602046FA
:1048100006B0BDE8F08100BF7B14AE47E1127340E3
:104820000000000080842E4170EE607A10B517EE13
:10483000900A0C46FBF790FE0022094BFBF7E0FEC6
:1048400005A3D3E90023FCF705F8FCF7D1F92060B4
:1048500010BD00BFAFF30080000000400AD7C33F87
:1048600000408F4011B91146FFF702BF012902D164
:104870001146FFF791BF042902D11146FFF744BF4B
:10488000002313600020704730B5084D0FCD89B06C
:1048900001AC0FC495E8070084E80700002101A8D7
:1048A000FFF7B5FA024B186009B030BD40B40008FC
:1048B0009C32002008B500F02BFE002000F0F4FD33
:1048C0000421142000F012FF064A0748012306CAFB
:1048D00000F0F6FE00F0F6FD0448BDE80840FFF7E2
:1048E00079BE00BF0C010020E6B700081444002088
:1048F00037B5134C02AD002345F8043D2046009324
:10490000FFF77AFE64212046FFF788FE2A460D4D08
:1049100000212046FFF7A6FF2A4601212046FFF787
:10492000A1FF6A4604212046FFF79CFF0649DDED02
:10493000000A95ED000A2046FFF776FF03B030BD70
:1049400014440020BC090020C009002010B5544CBC
:1049500004210F2000F0CAFE012394E8060051480C
:1049600000F0AEFE0421342000F0C0FE4E4B1B7858
:10497000002B40F0868094E806004C48012300F0AC
:104980009FFE4B4B4B49D3ED007A4B48FDEEE77A47
:1049900017EE902A01F0FAFD0E210F2000F0A6FE7E
:1049A00094E806000123454800F08AFE0E213420D9
:1049B00000F09CFE94E8060001233F4800F080FED2
:1049C0003F4B4049D3ED007A3F48FDEEE77A17EEC2
:1049D000902A01F0DBFD19210F2000F087FE94E8FA
:1049E00006000123394800F06BFE1921342000F045
:1049F0007DFE94E806000123334800F061FE344B4D
:104A00003449D3ED007A3448FDEEE77A17EE902A68
:104A100001F0BCFD25210F2000F068FE94E806009F
:104A200001232E4800F04CFE2521342000F05EFECC
:104A300094E806000123284800F042FE284B29494B
:104A4000D3ED007A2848FDEEE77A17EE902A01F0C0
:104A50009DFD31210F2000F049FE94E8060001235E
:104A6000224800F02DFE3121342000F03FFE94E872
:104A7000060001231C4800F023FEBDE8104000F0B2
:104A800021BD012B03D194E80600194877E7022BDA
:104A900094E806004FF001030CBF164816486EE775
:104AA00014010020F2B70008B1090020E1B70008A6
:104AB000B8090020FFB700084431002006B80008FC
:104AC000AC0900200DB800084E31002013B80008D2
:104AD000C009002019B800083A21002021B80008B8
:104AE000BC09002027B80008302100202EB800089B
:104AF000FBB70008FAB7000835B8000838B5104B06
:104B0000104C1B78104D2DED028B9FED108AF0EEAE
:104B1000088A63B900F01EFEC0EE087A84ED000A30
:104B200067EEA87AC5ED007ABDEC028B38BD95ED35
:104B3000007AC7EE287A67EE887AC4ED007AF3E748
:104B4000B1090020AC090020A80900200000C842DB
:104B500008B5154E154C164DFFF7CAFED6ED000AE6
:104B600094ED000AFFF7CAFF94ED000A00F0C4FDBF
:104B7000104B83ED000A104B93ED000A00F0F2F9A0
:104B800000F0F8F9012804D100F000FA0B4B83ED96
:104B9000000AFFF7DBFE4FF080532B60BFF34F8F0F
:104BA000BFF36F8FD8E700BFA8090020BC09002021
:104BB00004ED00E0B8090020AC090020B409002091
:104BC000B0F5807F02D0B0F5007F02D10148FDF73B
:104BD0009FBF704748450020642838B528BF64202F
:104BE0000546FBF7A7FC00220F4B104CFBF732FEEB
:104BF0000BA3D3E90023FBF703FDFBF7D9FF00224A
:104C0000034611462046FCF7A9FD094B1D702046BE
:104C10000021BDE83840FCF7B3BD00BFAFF3008012
:104C20000000000000FEAF4000005940004400209A
:104C3000B0090020012802464FF4806118BF00220D
:104C40000148FCF70FBF00BF000400480E4B10B531
:104C5000C4B21C703CB92046FFF7ECFF0020BDE851
:104C60001040FFF7B9BF012C06D122464FF48061F6
:104C70000648FCF7F7FEF1E7022C04D10020FFF70D
:104C8000D9FF0A20EBE710BDB1090020000400485D
:104C900038B53C4B984259D108213B483B4CFCF776
:104CA000E6FE4FF400714FF09040FCF7D5FE68BB74
:104CB0004FF480714FF09040FCF7CEFE054628BBC4
:104CC000227872B94FF0904001224FF48461FCF7D2
:104CD000C9FE0120FFF7BAFF2A48BDE83840FDF7BA
:104CE0002DBF012A07D14FF090404FF48461FCF7AB
:104CF000B9FE0220EEE7022AECD102464FF48461AD
:104D00004FF09040FCF7AEFE2846E3E72378022BF5
:104D10000DD14FF400714FF09040FCF79DFE30B97B
:104D20001B4B18780A30C0B2FFF756FFD4E7237840
:104D3000022BD1D14FF480714FF09040FCF78CFEE4
:104D40000028C9D1124B18780A38ECE7114B984269
:104D500016D10E4B1B78013B012B11D80E4BDFED0A
:104D60000F7AD3ED000AB7EE000AC0EEA70A00F0F2
:104D7000E7FC0B4BD3ED007A37EE800A83ED000A97
:104D800038BD00BF4845002000040048B10900209C
:104D9000B00900204C570020C009002000007A44D0
:104DA000A809002008B5164C164D17484FF40051BD
:104DB000FCF752FE012807D04FF080532B60BFF361
:104DC0004F8FBFF36F8FF0E7237810491048042B03
:104DD00004BF0023237023785A1C22700D4A1370DD
:104DE000FF2353700C4BFCF749FA08B100F06EFA40
:104DF000074E3046FCF78FFA0328FAD1DCE700BFF4
:104E0000F809002004ED00E000080048E009002057
:104E1000A0440020E8430020F043002000B58BB000
:104E200000230122049300930193029303930593BB
:104E3000069369460E231148079208920993FCF7DE
:104E400086F908B100F042FA0C48FCF7ECF908B119
:104E500000F03CFA0E210948FCF7E7FA08B100F02F
:104E600035FA074A074B12881A60022100229A601D
:104E7000DA6019611A750BB05DF804FBA0440020DC
:104E800090000020E009002030B5084D0FCD89B01A
:104E900001AC0FC495E8070084E80700002101A8D1
:104EA000FEF7B5FF024B186009B030BD5CB40008D6
:104EB000E443002008B5094A094B0021FCF73FFAFA
:104EC00008B100F003FA074B044A1B8812689A42A3
:104ED00001BF034B1A78044B1A7008BDC4090020A7
:104EE000F443002092000020F80900209FED157A7D
:104EF000DFED157A1548164A80EE070A08B5154BFE
:104F00000F21F0EE086AE0EE267A87EEA60A20EE80
:104F1000070A83ED000A00F027FCDFED0F7AB4EEFC
:104F2000E70AF1EE10FA81BF0C4B9FED0D7AD3ED3D
:104F3000007AE0EE077A8ABF01200020C3ED007AF4
:104F400008BD00BF0000C842CDCCCCBD94000020FD
:104F5000D0000020000A002033333340FC09002039
:104F6000CDCCCC3D024B00221A60FFF7BFBF00BF83
:104F7000FC09002010B5044C94ED000AFFF7B6FFC1
:104F80000028F9D1012010BD000A0020014B93ED4B
:104F9000000A7047FC090020034B0360034B0B60C1
:104FA0004FF4806313607047041A0020040A002045
:104FB00030B5A7B02822002106A801F036FA142245
:104FC000002101A801F031FA0021582210A801F0B7
:104FD0002CFA032306934FF4803310220793012504
:104FE00002240D9306A84FF480130A920C940E939A
:104FF0000995FDF7A3F80F23019302944FF4806302
:105000000024294601A8049303940594FDF75EFB50
:10501000054B109310A81294139417942294239480
:10502000FDF732FC27B030BD2300800180B58AB087
:10503000FBF7DAFFFFF7BCFF142200210DEB0200A3
:1050400001F0F3F98A4B8B4D5A6942F400225A6100
:105050005A6902F400220192019A5A6942F48002CC
:105060005A615A6902F480020292029A5A6942F421
:1050700000325A615A6902F400320392039A5A6963
:1050800042F480225A615B6903F480230493002276
:105090004FF484614FF09040049BFCF7E3FC002246
:1050A0004FF4816174480024FCF7DCFC4FF400539A
:1050B00005A972480593012606940794FCF7FCFBAA
:1050C0004FF4846305A94FF090400593069607942A
:1050D0000894FCF7F1FB4FF4816305A9664805933A
:1050E000069607940894FCF7E7FB4FF4407305938A
:1050F00005A9634B06934FF090400796FCF7DCFB45
:10510000224605211720FCF7BDFA1720FCF7EEFA1E
:105110005C4B2B602846059406940794FCF70AFB29
:1051200005A922462846584D05940694FCF74FFBE6
:10513000564A574BAC60284685E80C00EE602C615F
:105140006C61AC61EC612C62FCF7E5FD2146284600
:10515000FCF7A8FF214628464E4DFCF7C9FF4E4BF1
:10516000AC6048F6A04A40F6C418284685E8080412
:10517000C5F80C80AC61059406940794FDF712FE07
:1051800005A9284605940794FDF726FE4348444B9D
:10519000444D84600C274FF4164980E80802C4602F
:1051A000046147618461C46104624462FEF750F99E
:1051B0003D4BAC60284685E81800EC60AC61059476
:1051C00006940794FDF7EEFD05A92846374D059492
:1051D0000794FDF701FE364BAC60284685E80804CD
:1051E000C5F80C802C616C61AC61FDF7DBFD3148CA
:1051F000314B846080E80804C0F80C80046144618D
:105200008461FDF7CFFD2D482D4B846080E80802B6
:10521000C460046147618461C46104624462FEF752
:1052200017F92848284B846080E888004FF4402311
:1052300003614FF480134361C4600476447684763E
:10524000C67604774477FBF707FF2846FDF760FC36
:10525000FFF730FBFFF7E2FD00F03AF8FFF714FB31
:10526000FFF712FE00F09EF8FEF7CCFDFEE700BF50
:1052700000100240004400200004004800080048DC
:10528000000021100074004014440020005400402D
:105290000E0900204845002000100040CC56002098
:1052A000004400408C570020001400404C57002060
:1052B000004401406044002000480140C8440020F0
:1052C00000380140A0440020006400407047000006
:1052D00007B500220A2100924FF416431046FEF74C
:1052E0009FFAFEF7F5FA014628B1044803B05DF8CD
:1052F00004EB01F0AFB803B05DF804FBF8D200088E
:10530000144B70B51D68144B144E1D60144B367849
:105310001C68144B1C60144B1868144B1860144B19
:105320001968144B1960144B1A68144B1A60144B0B
:105330001E809D802E0C1C81250C9881040C1982E6
:10534000080C110C5E80DD805C81D88159829A82C4
:1053500070BD00BFB809002020590020F8090020C6
:10536000AC09002024690020C00900201C5900203D
:10537000BC090020CC570020B40900201859002097
:10538000581B002008B5064C4FF08055FFF7B8FFBA
:10539000FEF7B0FA2560BFF34F8FBFF36F8FF5E7CD
:1053A00004ED00E030B5084D0FCD89B001AC0FC45D
:1053B00095E8070084E80700002101A8FEF727FD13
:1053C000024B186009B030BD78B4000814590020B1
:1053D000B1F57A7F10B516D38B18B3F5856F12DC53
:1053E0000A4B03EB4101A1F2D27102300AB9104617
:1053F00010BD31F8023F00F8013C1C0A013A00F8E8
:10540000024C92B2F1E7012010BD00BF581B0020F2
:10541000B1F5FA6F10B52BD38C18B4F5FB6F27DC00
:105420009BB1012B18D1134B03EB4101A1F6A271E3
:1054300002308AB110F8024C10F8013C013A43EAFC
:10544000042321F8023F92B2F2E70A4B03EB410139
:10545000A1F6A27102300AB9002010BD31F8023F56
:1054600000F8013C1C0A013A00F8024C92B2F1E744
:10547000012010BD481B002001207047012070470B
:105480007FB506AA0A2302F8010D029301238DE8D5
:105490000C00782100220348FCF78EFC07B05DF871
:1054A00004FB00BF1444002005490023021C18BF60
:1054B000012252425A540133B3F5806FF6D170473E
:1054C000DE1B00207FB5104E104D0024A4F15000CB
:1054D000C0B2FFF7D5FF0020FFF7D2FF1020FFF783
:1054E000CFFF642302938023019306EBC413009340
:1054F00040220123782128460134FCF75DFC082C6A
:10550000E4D104B070BD00BFDE1B002014440020B5
:1055100008B56420FBF78CFDAE20FFF7B1FF20201B
:10552000FFF7AEFF1020FFF7ABFFB020FFF7A8FF9B
:10553000C820FFF7A5FF0020FFF7A2FF1020FFF70C
:105540009FFF4020FFF79CFF8120FFF799FFFF207E
:10555000FFF796FFA120FFF793FFA620FFF790FF2C
:10556000A820FFF78DFF3F20FFF78AFFA420FFF759
:1055700087FFD320FFF784FF0020FFF781FFD520AE
:10558000FFF77EFFF020FFF77BFFD920FFF778FFC2
:105590002220FFF775FFDA20FFF772FF1220FFF7D6
:1055A0006FFFDB20FFF76CFF2020FFF769FF8D20E6
:1055B000FFF766FF1420FFF763FFAF20FFF760FFE0
:1055C0000020FFF771FFFFF77DFF034B0120002252
:1055D00058711A805A8008BDD81B0020030630B5C8
:1055E0001BD43F2919D80D4B1B7913B1B2FA82F2A3
:1055F0005209CB088025012A094C01F0070105FB5F
:10560000030004D18A40215C0A43225430BD0122A8
:105610008A40215C21EA0201215430BDD81B0020C0
:10562000DE1B00202DE9F04F87B0074606A800E9F1
:1056300006009B46214B9DF810901C88019304EBBB
:1056400009027F2A37DC5B889DF811A0009303EBE9
:105650000A023F2A2FDCA7F120020AFB02F3039380
:105660000026564506D3019B4C441C80384607B0A3
:10567000BDE8F08F039B0599F218002531F8123030
:105680000293009B03EB06085FFA88F84D4501D3AF
:105690000136E6E7029B03FA05F2130405EB04006A
:1056A00056BFBBFA8BF25A4652094146C0B2FFF7C9
:1056B00095FF0135EAE70027D8E700BFD81B002097
:1056C000F7B58DE806006D461F46461E74784CB14E
:1056D00020463B4695E80600FFF7A4FF16F8014F69
:1056E000A042F3D0204603B0F0BD0000014B18806B
:1056F00059807047D81B0020DFED0E7A9FED0E7A9F
:10570000DFED0E6A70EE677AF4EE477AF1EE10FA8A
:1057100048BFF0EE477A87EEA67AF3EE047AB4EE4D
:10572000677AF1EE10FAC8BFB0EE677A27EE000A8A
:10573000704700BF33333340000000000AD7A33C5A
:1057400020EEC00ADFED027A80EE270A704700BF24
:1057500000006145024A03480F2100F005B800BF70
:10576000580100201C010020D0ED007AF4EEC07A30
:10577000F1EE10FA10B502DD92ED000A10BD01F154
:105780008044013CA4000319D3ED007AB4EEE70A8B
:10579000F1EE10FA28DC041D002301398B4203F1DD
:1057A000010306DAF4EC017AB4EEE70AF1EE10FA3E
:1057B000F4D59B00191F441811441A4494ED006A53
:1057C000D1ED006AD2ED007A034430EE460A77EE5E
:1057D000E67A93ED007A67EE807A37EE467A87EEC6
:1057E000870A30EE260A10BD2244C5E70E4B07B5E6
:1057F0009A6942F001029A619A6902F001020092EC
:10580000009ADA6942F08052DA61DB6903F0805372
:10581000019300220F216FF00100019BFBF732FF83
:1058200003B05DF804FB00BF0010024010B5044651
:1058300088B01422002103A800F0F7FD2268174B5E
:105840009A4229D103F5D63303A9DA6942F00072EE
:10585000DA61DA6902F000720192019A5A6942F43F
:1058600000325A615B6903F400330293029B4FF4E8
:10587000C053039302230493032306934FF09040F5
:1058800009230793FCF718F8142000220521FBF7E1
:10589000F9FE1420FBF72AFF08B010BD0064004099
:1058A00010B5044688B01422002103A800F0BDFD05
:1058B0002268154B9A4224D103F5CE3303A9DA6945
:1058C00042F00052DA61DA6902F000520192019A64
:1058D0005A6942F400325A615B6903F4003302935F
:1058E000029B102303934FF0904003230493FBF794
:1058F000E3FF362000220521FBF7C4FE3620FBF72C
:10590000F5FE08B010BD00BF0074004010B504469D
:1059100088B01422002103A800F087FD2268124BF2
:105920009A421FD1114C1248636943F4802363618A
:10593000636903F480230193019B4FF44073039345
:10594000122304930323069303A904230793FBF76D
:10595000B3FFE36943F40013E361E36903F4001365
:105960000293029B08B010BD00540040001002409A
:10597000000400481FB50368294A934214D1294BFB
:10598000DA6942F01002DA61DB6903F01003009378
:10599000362000220521009BFBF774FE3620FBF722
:1059A000A5FE05B05DF804FB1F4A934210D11D4BC4
:1059B000DA6942F02002DA61DB6903F02003019327
:1059C000372000220521019BFBF75CFE3720E6E72C
:1059D000164A934210D1134B9A6942F400329A61ED
:1059E0009B6903F400330293192000220521029BD6
:1059F000FBF748FE1920D2E70D4A9342D1D1094B5B
:105A00009A6942F480229A619B6903F4802303938C
:105A10001A2000220521039BFBF734FE1A20BEE763
:105A200000100040001002400014004000440140FB
:105A30000048014010B514228AB0044600210DEB45
:105A4000020000F0F2FC2368274A934228D1274B3A
:105A500027489A6942F480429A619A6902F4804226
:105A60000192019A5A6942F400225A615B6903F477
:105A700000230293029B3023059302230693032302
:105A8000089305A907230993FBF716FF2520002299
:105A90000521FBF7F7FD2520FBF728FE0AB010BD16
:105AA000144A9342FAD1114BDA6942F40032DA61B6
:105AB000DA6902F400320392039A5A6942F400321E
:105AC0005A615B6903F400330493049B0C23059330
:105AD000022306930323089305A907234FF0904060
